:100000000C945A000C9477000C9477000C947700B1
:100010000C9477000C9477000C9477000C94770084
:100020000C9477000C9477000C9477000C94770074
:100030000C9477000C9477000C9477000C94770064
:100040000C9477000C9477000C9477000C94770054
:100050000C9477000C9477000C9477000C94770044
:100060000C9477000C9477000C9477000C94770034
:100070000C9477000C9477000C9477000C94770024
:100080000C9477000C9477000C9477000C94770014
:100090000C9477000C9477000C9477000C94770004
:1000A0000C9477000C9477000C9477000C947700F4
:1000B0000C94770011241FBECFEFD8E0DEBFCDBF78
:1000C00013E0A0E0B1E0E4EFF4E002C005900D928F
:1000D000A231B107D9F723E0A2E1B3E001C01D923C
:1000E000A331B207E1F70E9486000C9478020C94C9
:1000F000000080E091E00E9436020E9492010E947E
:10010000430280EA91E00E9436020895CF93DF9384
:1001100000D000D01F92CDB7DEB719821A821B82A1
:100120001C821D820E9421020E9495018AB1806E6C
:100130008AB986E191E00E9436028BE391E00E9449
:10014000360288E191E00E9436028CE591E00E943F
:1001500036028FE691E00E9436028BE891E00E9421
:10016000360283EA91E00E943602AE014F5F5F4F94
:100170006DE085E30E94A101811107C08DEB91E044
:100180000E9436020E94790090C0AE014E5F5F4F20
:100190006EE085E30E94A101811107C08DEC91E022
:1001A0000E9436020E94790080C0AE014D5F5F4F11
:1001B0006FE085E30E94A101811107C087EE91E005
:1001C0000E9436020E94790070C081E092E00E9495
:1001D000360289810E94430280EA91E00E94360241
:1001E00089E192E00E9436028B810E9443028A815B
:1001F0000E94430280EA91E00E94360281E392E08D
:100200000E943602AE014C5F5F4F60E085E30E94C2
:10021000A101811107C088E592E00E9436020E9488
:10022000790043C040E060E085E30E94EE01811167
:1002300007C085E792E00E9436020E94790035C02F
:10024000AE014B5F5F4F60E085E30E94A101811129
:1002500007C08CE892E00E9436020E94790025C017
:1002600088EA92E00E9436028C810E94430280EA72
:1002700091E00E94360284EC92E00E9436028D8169
:100280000E94430280EA91E00E9436028D81811132
:1002900008C080EE92E00E9436028BB180588BB984
:1002A00004C087EE92E00E94360280EA91E00E944C
:1002B00036022FEB87E299E0215080409040E1F731
:1002C00000C000004ECF84EA8093DC008091DC0007
:1002D0008823E4F78091D900887F809312030895E2
:1002E00084E98093DC0008958093DB0084E88093A8
:1002F000DC008091DC008823E4F78091D900887FBE
:1003000080931203089584E88093DC008091DC00E0
:100310008823E4F78091D900887F8093120380912D
:10032000DB0008958091120308958EB183608EB929
:100330001092D90082E08093D80084E08093DC00A2
:1003400008950F931F93CF93DF93C82FD62F8A0161
:100350000E946301883031F0803121F00E947001E9
:1003600080E037C08C2F880F0E947401883121F003
:100370000E94700180E02DC08D2F0E947401883290
:1003800021F00E94700180E024C00E94630180314E
:1003900021F00E94700180E01CC08C2F90E0880F3B
:1003A000991F81600E947401803421F00E947001C5
:1003B00080E00FC00E948301F801808380911203C6
:1003C000883521F00E94700180E003C00E94700116
:1003D00081E0DF91CF911F910F9108951F93CF93EB
:1003E000DF93C82FD62F142F0E946301883031F07D
:1003F000803121F00E94700180E01FC08C2F880F97
:100400000E947401883121F00E94700180E015C0C3
:100410008D2F0E947401883221F00E94700180E0CB
:100420000CC0812F0E947401883221F00E9470015B
:1004300080E003C00E94700181E0DF91CF911F91A5
:1004400008951092C5008CE08093C4001092C00003
:1004500088E08093C10086E08093C2000895909167
:10046000C00095FFFCCF8093C6000895CF93DF9323
:10047000EC0103C021960E942F0288818111FACFDE
:10048000DF91CF9108951F93CF93DF93CDB7DEB760
:1004900061970FB6F894DEBF0FBECDBF182F81E174
:1004A000E1E0F3E0DE01119601900D928A95E1F70B
:1004B000812F82958F70E1E0F0E0EC0FFD1FE80FD7
:1004C000F11D80810E942F021F70E1E0F0E0EC0F2F
:1004D000FD1FE10FF11D80810E942F0261960FB672
:1004E000F894DEBF0FBECDBFDF91CF911F9108956D
:0404F000F894FFCFAE
:1004F4004641494C2C2054574920737461747573D8
:10050400203D203078000D0A3D3D3D3D3D3D3D3DC3
:100514003D3D3D3D3D3D3D3D3D3D3D3D3D3D3D3D07
:100524003D3D3D3D3D3D3D3D0D0A0042553030369B
:10053400202D20544D4147353237332052656769A9
:100544007374657220546573740D0A0055415254D6
:10055400303A203438303020626175640D0A00541A
:10056400574931203A205045303D534441312C20E5
:100574005045313D53434C310D0A00544D41472001
:100584003A206164647265737320307833350D0AE0
:100594000D0A0052656164696E67204944207265E2
:1005A400676973746572732E2E2E0D0A00444556C6
:1005B4004943455F4944207265616420004D414EC2
:1005C4005546414354555245525F49445F4C53424A
:1005D400207265616420004D414E55464143545597
:1005E4005245525F49445F4D534220726561642015
:1005F400004445564943455F49442020202020209B
:10060400202020203D203078004D414E5546414366
:1006140054555245525F4944202020203D203078D3
:10062400000D0A54657374696E6720726567697397
:100634007465722077726974652F72656164626192
:10064400636B2E2E2E0D0A004445564943455F43E5
:100654004F4E4649475F3120726561642D6265667D
:100664006F726520004445564943455F434F4E46EB
:1006740049475F31207772697465200044455649C3
:1006840043455F434F4E4649475F3120726561647D
:100694002D616674657220004445564943455F43A5
:1006A4004F4E4649475F31206265666F7265203D53
:1006B400203078004445564943455F434F4E4649F0
:1006C400475F3120616674657220203D20307800D8
:1006D400504153530D0A004641494C3A207265611A
:1006E400646261636B206D69736D617463680D0A84
:1006F400003031323334353637383941424344459A
:020704004600AD
:00000001FF
