:100000000C945A000C946F000C946F000C946F00C9
:100010000C946F000C946F000C946F000C946F00A4
:100020000C946F000C946F000C946F000C946F0094
:100030000C946F000C946F000C946F000C946F0084
:100040000C946F000C946F000C946F000C946F0074
:100050000C946F000C946F000C946F000C946F0064
:100060000C946F000C946F000C946F000C946F0054
:100070000C946F000C946F000C946F000C946F0044
:100080000C946F000C946F000C946F000C946F0034
:100090000C946F000C946F000C946F000C946F0024
:1000A0000C946F000C946F000C946F000C946F0014
:1000B0000C946F0011241FBECFEFD8E0DEBFCDBF80
:1000C00011E0A0E0B1E0E2EAF2E002C005900D929A
:1000D000A235B107D9F70E94EA000C944F010C94A5
:1000E000000087B1807F87B98AB18B7F8AB988B1D8
:1000F000807F88B98BB18B7F8BB90895309902C00E
:1001000080E001C081E03199826032998460339946
:1001100088604A99806108950E947E0080958F7161
:100120000895CF93DF93D82FC4E012C08D2F90E0B5
:100130000C2E02C0959587950A94E2F780FF04C0C3
:1001400081E30E943B0103C080E30E943B01C15058
:10015000CC2364F7DF91CF9108951F93CF93DF9362
:1001600000D01F92CDB7DEB781111DC080E30E9481
:100170003B0129C0E1E0F0E0EC0FFD1FE10FF11DB4
:100180009DEC899F912D1124969596959695392FE2
:10019000330F232F220F220F230F821B805D8083BA
:1001A000892F1F5F01C010E08111E4CF0AC01150F8
:1001B000E1E0F0E0EC0FFD1FE10FF11D80810E94F6
:1001C0003B011111F4CF0F900F900F90DF91CF9161
:1001D0001F9108950E942D010E94710087EA91E607
:1001E0000197F1F700C0000080E391E00E94420116
:1001F00080E091E00E9442018DE191E00E94420185
:1002000080E391E00E9442010E947E00D82F0E946C
:100210008C00C82F83E391E00E9442018D2F0E9441
:1002200091008CE391E00E9442018C2F0E9491008A
:1002300087E491E00E9442018C2F0E94AD0080E390
:1002400091E00E9442019FE926E881E09150204020
:100250008040E1F700C00000D7CF1092C5008CE0CD
:100260008093C4001092C00088E08093C10086E0B3
:100270008093C20008959091C00095FFFCCF8093B9
:10028000C6000895CF93DF93EC0103C021960E942E
:100290003B0188818111FACFDF91CF910895F894C5
:0202A000FFCF8E
:1002A200425530303841202D2044495020426F6160
:1002B200726420494420546573740D0A005043301F
:1002C2002050433120504332205043332050443297
:1002D2000D0A00524157203D203062002020204963
:1002E20044203D20306200202020444543203D2010
:0202F20000000A
:00000001FF
