S01700004763634170706C69636174696F6E312E737265635B
S11300000C945A000C9477000C9477000C947700AD
S11300100C9477000C9477000C9477000C94770080
S11300200C9477000C9477000C9477000C94770070
S11300300C9477000C9477000C9430060C947700A1
S11300400C9477000C9477000C94A10E0C94770018
S11300500C9477000C9477000C9477000C94770040
S11300600C9477000C9477000C9477000C94770030
S11300700C9477000C9477000C9477000C94770020
S11300800C9477000C9477000C9477000C94770010
S11300900C9477000C9477000C9477000C94770000
S11300A00C9477000C9477000C9477000C947700F0
S11300B00C94770011241FBECFEFD8E0DEBFCDBF74
S11300C016E0A0E0B1E0E4E6F9E202C005900D928A
S11300D0AE37B107D9F727E0AEE7B6E001C01D920D
S11300E0A93CB207E1F70E94A7070C94B0140C9442
S11300F0000087B1807F87B98AB18B7F8AB988B1C4
S1130100807F88B98BB18B7F8BB90895309902C0F9
S113011080E001C081E03199826032998460339932
S113012088604A99806180958F7108954F925F929B
S11301306F927F92AF92BF92CF92DF92EF92FF9233
S11301400F931F93DC01CB01821B930BA40BB50B04
S11301502C013D01770C4408542C3201B801A7014D
S1130160770F440B542FBA01AE2CBF2CC02ED12EC6
S1130170E42EF42E042F142F282F392F4A2F5B2F0F
S1130180642D742D842D942D0E94C010A0E00E9433
S1130190F0114CF0205E3E45484F5F4F6F4F7F4F4C
S11301A08F4F9F4F08C02052314A4740510961097F
S11301B07109810991096894AA24A6F80F2EF2E422
S11301C0BF2EF02D0F2EFFE0CF2EF02DD12CE12CE1
S11301D0F12C00E010E00E941B11622F732F842F7A
S11301E0952F1F910F91FF90EF90DF90CF90BF90CC
S11301F0AF907F906F905F904F90089566E370E0AA
S11302000E94FF050895CF93DF93EC0188E3FE017C
S113021011928A95E9F788E392E3A4E4BEE4888323
S11302209983AA83BB8381E090E09D838C8388E3D8
S113023090E09F838E8380E492E4AFE0B0E08C8B07
S11302409D8BAE8BBF8B888F998FAA8FBB8F8C8F22
S11302509D8FAE8FBF8FCE010E94FE009FAB8EABF1
S1130260DF91CF9108950F931F93CF93DF93EC0108
S113027048E350E060E070E00E945C14888199815A
S1130280AA81BB8188339243A444BE4481F48C8107
S11302909D81019761F48E819F81C89741F40EA9D5
S11302A01FA9CE010E94FE000817190781F088815A
S11302B09981AA81BB818F3F9F4FAF4FBF4F11F0F0
S11302C00E942307CE010E94030180E001C081E067
S11302D0DF91CF911F910F910895CF93DF93CDB705
S11302E0DEB7C057D1090FB6F894DEBF0FBECDBF3D
S11302F0FC0198E3DE01119601900D929A95E1F7C5
S113030088E392E3A4E4BEE489839A83AB83BC8349
S113031081E090E09E838D8388E390E098878F83CB
S1130320CE0101960E94FE0098AF8FAB48E350E0E7
S113033060E070E0CE0101960E94721448E350E040
S113034060E070E0CE01C9960E945C1448E350E07E
S1130350BE01675C7F4FCE0101960E941514892B64
S113036021F00E94230780E001C081E0C059DF4FE3
S11303700FB6F894DEBF0FBECDBFDF91CF910895C5
S1130380CF93DF93CDB7DEB7E8970FB6F894DEBF0F
S11303900FBECDBF48E350E06FEF70E0CE01019691
S11303A00E94221448E350E060E070E0CE01019620
S11303B00E947214E8960FB6F894DEBF0FBECDBF4C
S11303C0DF91CF910895CF92DF92EF92FF920F9336
S11303D01F93CF93DF936C01EB01FC01E488F58854
S11303E00689178920853185428553856C817D81F5
S11303F08E819F810E9496006C837D838E839F8370
S1130400F601E08CF18C028D138D248535854685AB
S11304105785688579858A859B850E9496006887BB
S113042079878A879B87F601E48CF58C068D178D76
S113043020893189428953896C857D858E859F8584
S11304400E9496006C877D878E879F87DF91CF916E
S11304501F910F91FF90EF90DF90CF90089581301E
S113046029F0823031F486E091E0089580E091E053
S113047008958CE091E00895CF93DF93EC0184E13B
S113048091E00E94E00ECE010E94E00E87E995E023
S11304900E94E00EDF91CF910895CF93DF93EC019A
S11304A08CE291E00E94E00ECE010E94E00E87E90A
S11304B095E00E94E00EDF91CF910895EF92FF92B4
S11304C00F931F93CF93DF9300D0CDB7DEB78C018A
S11304D07B011A8219824AE050E0BE016F5F7F4FB0
S11304E00E941213E981FA810E171F0751F020812F
S11304F0211109C0F701608371838283938381E0B2
S113050003C080E001C080E00F900F90DF91CF9195
S11305101F910F91FF90EF900895CF92DF92EF9289
S1130520FF920F931F93CF93DF930097D9F0611538
S11305307105D1F041155105C9F06A01EB01B9010A
S11305400E945E028823A1F0B801CE010E945E02DF
S1130550882381F0B701C6010E945E02882361F0FE
S113056081E00BC080E009C080E007C080E005C0E6
S113057080E003C080E001C080E0DF91CF911F9153
S11305800F91FF90EF90DF90CF900895EF92FF923C
S11305900F931F93CF93DF9300D0CDB7DEB78C01B9
S11305A07B011A8219824AE050E0BE016F5F7F4FDF
S11305B00E94FC11E981FA810E171F0751F0208176
S11305C0211109C0F701608371838283938381E0E1
S11305D003C080E001C080E00F900F90DF91CF91C5
S11305E01F910F91FF90EF900895CF92DF92EF92B9
S11305F0FF920F931F93CF93DF930097D9F0611568
S11306007105D1F041155105C9F06A01EB01B90139
S11306100E94C6028823A1F0B801CE010E94C6023E
S1130620882381F0B701C6010E94C602882361F0C5
S113063081E00BC080E009C080E007C080E005C015
S113064080E003C080E001C080E0DF91CF911F9182
S11306500F91FF90EF90DF90CF9008951F93CF9369
S1130660DF93EC01162F8EE391E00E94E00E812FC0
S11306700E942F020E94E00E89E496E00E94E00EA0
S11306808C819D810E94020F8FE491E00E94E00E14
S113069068A979A98AA99BA90E94590F87E591E0C5
S11306A00E94E00E688579858A859B850E949E0F4D
S11306B08CE591E00E94E00E6C857D858E859F859A
S11306C00E949E0F81E691E00E94E00E688979897C
S11306D08A899B890E949E0F86E691E00E94E00E23
S11306E06C897D898E899F890E949E0F8BE691E09B
S11306F00E94E00E688D798D8A8D9B8D0E949E0FDD
S113070080E791E00E94E00E6C8D7D8D8E8D9F8D33
S11307100E949E0F85E791E00E94E00E68A179A1F6
S11307208AA19BA10E94590F8AE791E00E94E00EE2
S11307306CA17DA18EA19FA10E94590F8FE791E02A
S11307400E94E00E68A579A58AA59BA50E94590F71
S113075084E891E00E94E00E6CA57DA58EA59FA57E
S11307600E949E0F87E995E00E94E00EDF91CF91F1
S11307701F9108956F927F928F929F92AF92BF9232
S1130780CF92DF92EF92FF920F931F93CF93DF9359
S1130790CDB7DEB72C970FB6F894DEBF0FBECDBF32
S11307A05B016A01F22E6BE871E00E9410148C0167
S11307B0009709F4D0C16DE871E00E942914892BD7
S11307C029F482E991E00E94E00EC5C166E172E07D
S11307D0C8010E942914892B39F06BE172E0C80129
S11307E00E942914892B31F4F60160818F2D0E9417
S11307F07F09B1C164E272E0C8010E942914892B07
S113080021F48F2D0E943107A6C169E272E0C8016C
S11308100E942914892B29F08DE292E00E943C0267
S11308209AC16BE871E080E090E00E9410148C01A2
S1130830009729F48DE392E00E943C028CC163EDA1
S113084073E00E942914892B31F4F6016081C501FB
S11308500E942E0380C16DE672E0C8010E94291433
S1130860892B09F049C06BE871E080E090E00E94B8
S113087010143C016BE871E080E090E00E941014D9
S11308804C016BE871E080E090E00E9410149E013E
S11308902F5F3F4F79018E010B5F1F4F285F3F4F42
S11308A0A301B4010E94F502811105C084E592E020
S11308B00E943C0250C189859A85AB85BC85F501AF
S11308C080879187A287B3878D819E81AF81B88508
S11308D084879587A687B78789819A81AB81BC81F4
S11308E0808B918BA28BB38B82E0F601808389E6A7
S11308F092E00E944D022FC16BE872E0C8010E9491
S11309002914892B09F058C06BE871E080E090E06D
S11309100E9410143C016BE871E080E090E00E94BA
S113092010144C016BE871E080E090E00E94101418
S11309309E012F5F3F4F79018E010B5F1F4F285F90
S11309403F4FA301B4010E94F5028823D9F08985A1
S11309509A85AB85BC85181619061A061B0694F4ED
S11309604D815E816F81788514161506160617066B
S11309704CF409811A812B813C8110161106120650
S113098013062CF084E792E00E943C02E4C0F501D7
S1130990848B958BA68BB78B408F518F628F738F0F
S11309A0048F158F268F378F82E0F601808387E8C6
S11309B092E00E944D02CFC068EA72E0C8010E9432
S11309C02914892B09F049C06BE871E080E090E0BC
S11309D00E9410143C016BE871E080E090E00E94FA
S11309E010144C016BE871E080E090E00E94101458
S11309F09E012F5F3F4F79018E010B5F1F4F285FD0
S1130A003F4FA301B4010E948D02811105C080E90A
S1130A1092E00E943C029FC089859A85AB85BC8583
S1130A20F50180A391A3A2A3B3A38D819E81AF817D
S1130A30B88584A395A3A6A3B7A389819A81AB8122
S1130A40BC8180A791A7A2A7B3A782E0F601808307
S1130A5084EA92E00E944D027EC064EC72E0C80118
S1130A600E942914892B29F56BE871E080E090E05D
S1130A700E941014009739F0BE016F5F7F4F0E94EF
S1130A80C602811105C08EEA92E00E943C0263C056
S1130A9089819A81AB81BC81F50184A795A7A6A71A
S1130AA0B7A782E0F601808380EC92E00E944D02B9
S1130AB052C06DEC72E0C8010E942914892B79F5AB
S1130AC0F50180A991A9A2A9B3A90196A11DB11DFF
S1130AD080AB91ABA2ABB3ABC5010E946D0188237F
S1130AE069F081E0F601808389EC92E00E944D0276
S1130AF0F6016081C5010E942E032DC0F50180A975
S1130B0091A9A2A9B3A90197A109B10980AB91AB9D
S1130B10A2ABB3AB82ED92E00E943C021CC06BEE30
S1130B2072E0C8010E942914892B89F40E94C00133
S1130B30C5010E940301F601108287EE92E00E9433
S1130B404D02F6016081C5010E942E0304C081EFAD
S1130B5092E00E943C022C960FB6F894DEBF0FBEC2
S1130B60CDBFDF91CF911F910F91FF90EF90DF9058
S1130B70CF90BF90AF909F908F907F906F9008958B
S1130B80DF92EF92FF920F931F93CF93DF93CDB732
S1130B90DEB7C056D1090FB6F894DEBF0FBECDBF85
S1130BA08C017B01D42E0E945F10882391F00E9457
S1130BB062100E94150788E093E00E943C0209C07D
S1130BC00E9407072D2DA701B801CE0101960E94AE
S1130BD0BA0360E6CE0101960E94FB0F8111F0CFAB
S1130BE0C05ADF4F0FB6F894DEBF0FBECDBFDF9102
S1130BF0CF911F910F91FF90EF90DF900895DC014A
S1130C0040E050E08FEF9FEF1BC0FD01E40FF51FA4
S1130C10208130E0322F22278227932720E00CC046
S1130C2099233CF4880F991F31E2832730E19327FD
S1130C3002C0880F991F2F5F283090F34F5F5F4FDA
S1130C404617570710F3089582E084BD85BD8CE7ED
S1130C5087BD16BCEEE6F0E0808182608083089553
S1130C601F920F920FB60F9211248F939F93AF93FD
S1130C70BF9380919D0690919E06A0919F06B0918E
S1130C80A0060196A11DB11D80939D0690939E061A
S1130C90A0939F06B093A006BF91AF919F918F91AF
S1130CA00F900FBE0F901F90189584B780939806ED
S1130CB014BEE0E8F6E010821182128213821482DC
S1130CC01582168217821086118612861386148660
S1130CD0158616861786108A118A128A138A148A30
S1130CE0158A168A178A10929D0610929E061092F3
S1130CF09F061092A00688E390E00E946C14609313
S1130D00990670939A0680939B0690939C066F3F76
S1130D107F4F8F4F9F4F41F41092990610929A067D
S1130D2010929B0610929C064091990650919A0647
S1130D3060919B0670919C064F5F5F4F6F4F7F4F92
S1130D404093990650939A0660939B0670939C0671
S1130D5088E390E00E9494140E94240608952FB71B
S1130D60F89460919D0670919E0680919F069091E3
S1130D70A0062FBF08956091990670919A068091FC
S1130D809B0690919C0608958091980683FD09C066
S1130D9082FD0AC081FD0BC080FF0CC085E393E097
S1130DA0089589E193E0089582E293E008958CE246
S1130DB093E008958EE393E00895E0E8F6E08081FF
S1130DC09181A281B3810196A11DB11D808391837C
S1130DD0A283B3830895E0E8F6E084819581A68137
S1130DE0B7810196A11DB11D84839583A683B78322
S1130DF00895E0E8F6E080859185A285B3850196A3
S1130E00A11DB11D80879187A287B3870895E0E86B
S1130E10F6E084859585A685B7850196A11DB11D4B
S1130E2084879587A687B7870895E0E8F6E08089E8
S1130E309189A289B3890196A11DB11D808B918BE3
S1130E40A28BB38B0895E0E8F6E084899589A6899E
S1130E50B7890196A11DB11D848B958BA68BB78B89
S1130E600895CF93DF93C82F86E493E00E94E00EA9
S1130E708C2F90E00E94020F85E593E00E94E00E23
S1130E800E94AF060E94590F81E693E00E94E00E93
S1130E906091990670919A0680919B0690919C06A8
S1130EA00E94590F89E693E00E94E00EC0E8D6E064
S1130EB0688179818A819B810E94590F83E793E03D
S1130EC00E94E00E6C817D818E819F810E94590F6A
S1130ED08FE793E00E94E00E688579858A859B857B
S1130EE00E94590F89E893E00E94E00E6C857D858D
S1130EF08E859F850E94590F84E993E00E94E00E3D
S1130F00688979898A899B890E94590F8FE993E0BE
S1130F100E94E00E6C897D898E899F890E94590FF9
S1130F208CEA93E00E94E00E0E94C4060E94E00E48
S1130F3084EB93E00E94E00E809198060E94ED0EEF
S1130F4087E995E00E94E00EDF91CF9108950E9419
S1130F50BA080E940909FDCF2F923F924F925F92E7
S1130F606F927F928F929F92AF92BF92CF92DF92B5
S1130F70EF92FF920F931F93CF93DF93CDB7DEB71A
S1130F806A970FB6F894DEBF0FBECDBF009709F481
S1130F90B6C06115710509F4B4C01A01788B6F8766
S1130FA09E8B8D8B10E000E01E86412C512C32016B
S1130FB01A861B861C861D86812C912C5401C12CFB
S1130FC0D12C760145C0CE0101960E94490B88239D
S1130FD099F189819A81092E000CAA0BBB0BC80ECA
S1130FE0D91EEA1EFB1E8B819C81092E000CAA0BC4
S1130FF0BB0B880E991EAA1EBB1E8D819E81092ED5
S1131000000CAA0BBB0B2A853B854C855D85280FFC
S1131010391F4A1F5B1F2A873B874C875D878F8157
S11310209885092E000CAA0BBB0B480E591E6A1E8C
S11310307B1E39853E870F5F2114310411F0F101C5
S1131040099587EA91E60197F1F700C000001F5F58
S11310501A3008F4B8CFAF85B88951960C930023A1
S113106009F451C0202F30E040E050E0298B3A8B46
S11310704B8B5C8BC301B2010E9487102F8B388F7E
S1131080498F5A8F6A857B858C859D8529893A8904
S11310904B895C890E9487102A873B874C875D8730
S11310A0C501B40129893A894B895C890E9487105A
S11310B029013A01C701B60129893A894B895C891A
S11310C00E948710CA01B90138893F934F854F9315
S11310D08E84AF88B88CC98CDA8CEA84FB840C8546
S11310E01D85A30192010E94A20B6F8578898D89C9
S11310F09E890E94E3010F900F9081E005C080E07B
S113110003C080E001C080E06A960FB6F894DEBFA9
S11311100FBECDBFDF91CF911F910F91FF90EF9044
S1131120DF90CF90BF90AF909F908F907F906F9003
S11311305F904F903F902F9008954091A10666EAEA
S113114076E087EA96E00E94C0058091A6060E9498
S1131150BD0A0E94CF0A08950E949E0C82E00E945C
S1131160A50A0E949D088FE493EC0197F1F700C053
S11311700000F7CFCF93DF931F92CDB7DEB719826C
S11311800E9455060E949B0C0E94C40D0E94790087
S11311900E944B0A0E94590A78940E948600809308
S11311A0A1061092A2061092A3061092A406109211
S11311B0A50687EA96E00E9433018093A6060E9462
S11311C0BD0ACE0101960E941A0B811104C084EC61
S11311D093E00E94AC080E942A0B811104C088EDA0
S11311E093E00E94AC0881E00E94A50A2981409105
S11311F0A1066091A60687EA96E00E94AF0C609172
S1131200A6068091A1060E94F3090F90DF91CF9169
S113121008950F931F93CF93DF93CDB7DEB76297F3
S11312200FB6F894DEBF0FBECDBF0E949D084DE9F6
S113123058E0BE016F5F7F4F87EA96E00E94AC07DB
S1131240811118C082EE93E00E94E00E6091A20624
S11312507091A3068091A4069091A5060E94590F4F
S113126087E995E00E94E00E82E00E94A50A0E94B0
S1131270EB062DC081E00E94A50A0E94DD06409184
S1131280A2065091A3066091A4067091A5068E0152
S11312900F5F1F4F2091A6068091A1060E94150D95
S11312A08091A2069091A306A091A406B091A506F0
S11312B00196A11DB11D8093A2069093A306A0934D
S11312C0A406B093A5069BB180E289278BB96296E8
S11312D00FB6F894DEBF0FBECDBFDF91CF911F9143
S11312E00F910895813029F0823031F486E091E045
S11312F0089580E091E008958CE091E00895CF9303
S1131300DF93D82FC62F83E094E00E94E00E8D2F48
S113131090E00E94020F82E194E00E94E00E8BE1D3
S113132094E00E94E00E88E294E00E94E00E81E0E6
S113133090E00E94020F80E394E00E94E00E8CE3B0
S113134094E00E94E00E8EE394E00E94E00E83E4B9
S113135094E00E94E00E84E594E00E94E00E8AE5A9
S113136094E00E94E00E86E694E00E94E00E8FE690
S113137094E00E94E00E8AE794E00E94E00E8AE086
S113138091E00E94020F82E894E00E94E00E8AE05D
S113139090E00E94020F88E894E00E94E00E81E051
S11313A090E00E94020F85E994E00E94E00E8C2FE9
S11313B00E9472090E94E00E8BE994E00E94E00E04
S11313C088EA94E00E94E00E84EB94E00E94E00E30
S11313D081EC94E00E94E00E87E995E00E94E00E23
S11313E0DF91CF910895CF93DF93D82FC62F8AEC46
S11313F094E00E94E00E8BE194E00E94E00E8AEDFE
S113140094E00E94E00E81E090E00E94020F80E3ED
S113141094E00E94E00E8CE394E00E94E00E84E5E8
S113142094E00E94E00E8AE594E00E94E00E86E6D5
S113143094E00E94E00E8FE694E00E94E00E85EEB8
S113144094E00E94E00E8D2F90E00E94020F85E947
S113145094E00E94E00E8C2F0E9472090E94E00E1C
S11314608FEE94E00E94E00E88EA94E00E94E00E81
S113147084EB94E00E94E00E81EC94E00E94E00E84
S113148087E995E00E94E00EDF91CF9108958BB13A
S11314908F718BB908958AB1806E8AB90E94470A08
S11314A01092E2061092E1061092E0061092DF0616
S11314B008950E94470A8BB180628BB98FE59AEE3A
S11314C00197F1F700C000000E94470A8FE295E7F8
S11314D00197F1F700C000008BB180648BB98FE5F0
S11314E09AEE0197F1F700C000000E94470A8FE2CC
S11314F095E70197F1F700C000008BB180688BB9C4
S11315008FE59AEE0197F1F700C000000E94470AA8
S11315108FE295E70197F1F700C000008BB1806E70
S11315208BB99FE926E881E0915020408040E1F7A3
S113153000C000000E94470A1092E2061092E106E1
S11315401092E0061092DF0608959091E206981733
S113155099F08093E2061092E006811104C08BB1E9
S11315608F7B8BB90895813021F48BB180648BB962
S113157008958BB18F7B8BB908959091E1069817EC
S113158069F08093E1061092DF06813021F48BB17B
S113159080688BB908958BB18F778BB9089580914A
S11315A0E206813021F48BB180648BB913C08111C0
S11315B004C08BB18F7B8BB90DC08091E0068F5F27
S11315C08093E006823030F01092E0069BB180E414
S11315D089278BB98091E106811104C08BB18F7783
S11315E08BB90895813021F48BB180688BB908954B
S11315F08091DF068F5F8093DF06853028F010929C
S1131600DF068BB180588BB9089590E0982F882716
S1131610862B0895CF93462F682F85E30E94D00D23
S1131620C82F811103C00E94F90601C0C1E08C2FAC
S1131630CF910895CF93AC016DE085E30E94040E31
S1131640C82F811103C00E94F90601C0C1E08C2F8C
S1131650CF91089560E080E00E940A0B8823C1F0D6
S113166060E081E00E940A0B882391F064E782E045
S11316700E940A0B882361F063E083E00E940A0B56
S1131680882331F061E087E00E940A0B811181E038
S11316900895EF92FF921F93CF93DF93CDB7DEB7F8
S11316A029970FB6F894DEBF0FBECDBF7C0140E092
S11316B06DE885E30E94D00D182F811103C00E94AC
S11316C0F90633C081EE94E00197F1F700C0000001
S11316D029E0AE014F5F5F4F60E185E30E94470E52
S11316E0182F811103C00E94F9061FC06A818981E5
S11316F00E94050BF701918380836C818B810E948A
S1131700050BF701938382836E818D810E94050B03
S1131710F7019583848368858F810E94050BF70107
S1131720978386838985808711E0812F29960FB658
S1131730F894DEBF0FBECDBFDF91CF911F91FF9014
S1131740EF9008953F924F925F926F927F928F92A3
S11317509F92AF92BF92CF92DF92EF92FF920F933C
S11317601F93CF93DF93CDB7DEB729013A01382C0D
S11317708C889D889B01AC0124563444410951094D
S1131780A8EEB3E00E94B51029E532E040E050E055
S11317900E948710DA01C9018C53964FAF4FBF4F97
S11317A0F40180839183A283B383A8EEB7E6A301F7
S11317B092010E94B5102B013C01992334F4FFEFF0
S11317C04F0EFFE75F1E611C711CD301C201072E7F
S11317D07FE0B595A795979587957A95D1F7702D64
S11317E0F40184839583A683B783A8EEB7E6A801A2
S11317F097010E94B5108B019C01992324F4015098
S113180010482F4F3F4FD901C801072E7FE0B595EF
S1131810A795979587957A95D1F7702DF4018087D0
S11318209187A287B387A8EEB7E6A60195010E9427
S1131830B5108B019C01992324F4015010482F4FBB
S11318403F4FD901C801072E7FE0B595A79597951D
S113185087957A95D1F7702DF40184879587A687AB
S1131860B787308ADF91CF911F910F91FF90EF904E
S1131870DF90CF90BF90AF909F908F907F906F90AC
S11318805F904F903F900895813029F0823031F479
S113189086E091E0089580E091E008958CE091E085
S11318A008951F93CF93DF93EC01162F8DEF94E0EF
S11318B00E94E00E812F0E94440C0E94E00E8AE0F8
S11318C095E00E94E00E8C819D810E94020F84E1CC
S11318D095E00E94E00E68A979A98AA99BA90E94B3
S11318E0590F87E995E00E94E00E8EE195E00E9491
S11318F0E00E688579858A859B850E94BA0F8CE203
S113190095E00E94E00E6C857D858E859F850E9402
S1131910BA0F8BE395E00E94E00E688979898A8981
S11319209B890E94BA0F87E995E00E94E00EDF913F
S1131930CF911F9108950E94CB0E0895CF93DF930A
S1131940EC018AE495E00E94E00ECE010E94E00ED4
S113195087E995E00E94E00EDF91CF910895FF9210
S11319600F931F93CF93DF938C01F62EC42FD22FA6
S113197081E595E00E94E00E8BE194E00E94E00E88
S11319808FE695E00E94E00E8AE995E00E94E00E61
S11319908AE090E00E94020F8BEA95E00E94E00E3C
S11319A084E690E00E94020F80EC95E00E94E00E35
S11319B087E794E00E94E00E80ED95E00E94E00E3F
S11319C08AE091E00E94020F87E995E00E94E00E10
S11319D06F2DC8010E94510C80EE95E00E94E00E2C
S11319E08D2F0E94ED0E82EF95E00E94E00E8C2F69
S11319F090E00E94020F8CE096E00E94E00E0E94AC
S1131A00C4060E94E00E8BE196E00E94E00E0E9464
S1131A10BB060E94590F88E296E00E94E00EDF9117
S1131A20CF911F910F91FF9008958F929F92AF9243
S1131A30BF92EF92FF920F931F93CF93DF93E82E01
S1131A404A015B01F22EE80183E496E00E94E00E75
S1131A508BE194E00E94E00E80E593E00E94E00EAA
S1131A608E2D90E00E94020F8DEF93E00E94E00E15
S1131A70C501B4010E94590F82E894E00E94E00E6F
S1131A80898990E00E94020F85E994E00E94E00EAB
S1131A908F2D0E94440C0E94E00E8FE496E00E9479
S1131AA0E00E688179818A819B810E94BA0F83E567
S1131AB096E00E94E00E6C817D818E819F810E9460
S1131AC0BA0F88E596E00E94E00E688579858A85DC
S1131AD09B850E94BA0F8DE596E00E94E00E6C850E
S1131AE07D858E859F850E94BA0F82E696E00E94CE
S1131AF0E00E88890E94ED0E87E995E00E94E00ED1
S1131B00DF91CF911F910F91FF90EF90BF90AF9015
S1131B109F908F90089584EA8093DC008091DC008C
S1131B208823E4F78091D900887F883021F08031C0
S1131B3021F481E0089581E0089580E0089584E926
S1131B408093DC0008958093DB0084E88093DC00BC
S1131B508091DC008823E4F78091D900887F089580
S1131B6084EC8093DC008091DC008823E4F780918E
S1131B70DB00089584E88093DC008091DC008823F6
S1131B80E4F78091DB0008958EB183608EB91092E2
S1131B90D90082E08093D80084E08093DC0008952B
S1131BA00F931F93CF93DF93D82F162F042F0E94E8
S1131BB08B0DC82F811103C00E949F0D1FC08D2F54
S1131BC0880F0E94A30D883121F00E949F0DC0E070
S1131BD015C0812F0E94A30D883221F00E949F0D11
S1131BE0C0E00CC0802F0E94A30D883221F00E9417
S1131BF09F0DC0E003C00E949F0DC1E08C2FDF91B8
S1131C00CF911F910F910895EF92FF921F93CF935D
S1131C10DF93D82F162F7A010E948B0DC82F8111C4
S1131C2003C00E949F0D2CC0DD0F8D2F0E94A30DB9
S1131C30883121F00E949F0DC0E022C0812F0E94B4
S1131C40A30D883221F00E949F0DC0E019C00E94AC
S1131C508B0DC82F811103C00E949F0D11C08D2FC1
S1131C6081600E94A30D803421F00E949F0DC0E08A
S1131C7007C00E94BA0DF70180830E949F0DC1E046
S1131C808C2FDF91CF911F91FF90EF900895EF92E9
S1131C90FF920F931F93CF93DF93222309F448C03D
S1131CA0C22F7A01062F182F0E948B0DD82F811175
S1131CB003C00E949F0D3DC0110F812F0E94A30DF0
S1131CC0883121F00E949F0DD0E033C0802F0E9404
S1131CD0A30D883221F00E949F0DD0E02AC00E94FB
S1131CE08B0DD82F811103C00E949F0D22C0812F1C
S1131CF081600E94A30D8034A1F00E949F0DD0E06A
S1131D0018C087010D0F111D8FEF8C0FD81303C05E
S1131D100E94BA0D02C00E94B00DF8018083DF5FFB
S1131D2001C0D0E0DC1768F30E949F0DD1E001C030
S1131D30D0E08D2FDF91CF911F910F91FF90EF9005
S1131D4008951F920F920FB60F9211242F938F9321
S1131D509F93EF93FF932091C6008091C6078F5FF6
S1131D608F779091C507891304C081E08093C407DD
S1131D7008C0E091C607F0E0EC5BF84F2083809345
S1131D80C607FF91EF919F918F912F910F900FBEF6
S1131D900F901F9018951092C5008CE08093C4009A
S1131DA01092C00088E98093C10086E08093C2004D
S1131DB008959091C00095FFFCCF8093C6000895CC
S1131DC0CF93DF93EC0103C021960E94D90E888142
S1131DD08111FACFDF91CF910895CF93C82FE82FC7
S1131DE0E295EF70F0E0E359F94F80810E94D90E3B
S1131DF0CF70EC2FF0E0E359F94F80810E94D90EA7
S1131E00CF9108951F93CF93DF9300D000D01F92FA
S1131E10CDB7DEB7AC01892B91F580E30E94D90ED2
S1131E203FC09A01ADECBCEC0E94A6109695879534
S1131E3096958795969587959C01220F331F880F59
S1131E40991F880F991F880F991F820F931F9A015A
S1131E50281B390BC901805DE1E0F0E0EC0FFD1FA8
S1131E60E10FF11D80839A010E94A610AC015695E2
S1131E70479556954795569547951F5F01C010E0C5
S1131E804115510571F60AC01150E1E0F0E0EC0F84
S1131E90FD1FE10FF11D80810E94D90E1111F4CFB5
S1131EA00F900F900F900F900F90DF91CF911F9193
S1131EB008951F93CF93DF93CDB7DEB72A970FB65C
S1131EC0F894DEBF0FBECDBF611571058105910584
S1131ED0C1F480E30E94D90E27C02AE030E040E03C
S1131EE050E00E946510605DE1E0F0E0EC0FFD1F42
S1131EF0E10FF11D6083622F732F842F952F1F5FD5
S1131F0001C010E0611571058105910531F70AC022
S1131F101150E1E0F0E0EC0FFD1FE10FF11D8081B5
S1131F200E94D90E1111F4CF2A960FB6F894DEBF91
S1131F300FBECDBFDF91CF911F910895CF92DF9255
S1131F40EF92FF926B017C0199235CF48DE20E9475
S1131F50D90EF094E094D094C094C11CD11CE11C1F
S1131F60F11CC701B6010E94590FFF90EF90DF905A
S1131F70CF900895CF92DF92EF92FF92CF93DF93A9
S1131F806B017C0199235CF48DE20E94D90EF094DC
S1131F90E094D094C094C11CD11CE11CF11CC70175
S1131FA0B60124E630E040E050E00E948710D62FCE
S1131FB0CA01B9010E94590F8EE20E94D90ECDECDC
S1131FC0DC9FC12D1124C695C695C69580E38C0F60
S1131FD00E94D90ECC0F8C2F880F880FC80F8D2F1D
S1131FE08C1B805D0E94D90EDF91CF91FF90EF9002
S1131FF0DF90CF900895DC015AC0E091C507F0E06E
S1132000EC5BF84F80819091C5079F5F9F77909319
S1132010C5078D3011F08A3039F5E0914307EE237E
S113202009F445C0F0E0ED51F94F108290E005C08D
S1132030FD01E20FF31F40839F5F292F30E0F90178
S11320403196462F50E0E417F50730F4F901ED51CD
S1132050F94F40814111ECCFFD01E20FF31F1082D3
S11320601092430781E00895883011F08F3741F4CE
S1132070809143078823D9F081508093430717C088
S1132080E09143072E2F30E02F5F3F4F203631057C
S113209048F491E09E0F90934307F0E0ED51F94F1F
S11320A0808305C01092430781E08093C407909118
S11320B0C5078091C6079813A0CF80E0089580914A
S11320C0C40708951092C4070895A1E21A2EAA1B0A
S11320D0BB1BFD010DC0AA1FBB1FEE1FFF1FA217D4
S11320E0B307E407F50720F0A21BB30BE40BF50BD1
S11320F0661F771F881F991F1A9469F7609570955A
S1132100809590959B01AC01BD01CF010895052EEA
S113211097FB1EF400940E949E1057FD07D00E9466
S1132120651007FC03D04EF40C949E105095409516
S1132130309521953F4F4F4F5F4F0895909580956F
S1132140709561957F4F8F4F9F4F0895A29FB00167
S1132150B39FC001A39F700D811D1124911DB29FD7
S1132160700D811D1124911D08950E94A610A59F34
S1132170900DB49F900DA49F800D911D112408957E
S1132180DF93CF931F930F939A9DF02D219FF00D12
S11321908B9DF00D8A9DE02DF10D039FF00D029FA4
S11321A0E00DF11D4E9DE00DF11D5E9DF00D4F9D66
S11321B0F00D7F936F93BF92AF925F934F93D501CE
S11321C00E94A6108B01AC01D7010E94A610EB015E
S11321D0E80FF91FD6010E9410112F913F91D601EB
S11321E00E94A610C60FD71FE81FF91FAF91BF9119
S11321F00E9410112F913F910E94A610C60FD71F65
S1132200E81FF91FD6010E94A610E60FF71F9801D8
S1132210BE01CF0111240F911F91CF91DF91089539
S11322200E94A610460F571FC81FD91F08F43196E5
S11322300895689401C0E894F92FF12B12F00C94DE
S11322404D11A0E0B0E0E7E2F1E10C94BF11092EDA
S1132250059422F40E94A911112392F4F0E80F26A8
S1132260FFEFE094F09400951095B094C094D0944E
S1132270A194BF0ACF0ADF0AEF0AFF0A0F0B1F0B54
S11322800E94581107FC0E94A911CDB7DEB7ECE0FB
S11322900C94DB11689401C0E8948F929F92CF93C1
S11322A0DF930E945811DF91CF919F908F900895F2
S11322B088249924F401E401B0E49F93AA279A1591
S11322C08B049C04ED05FE05CF05D007A10798F407
S11322D0AD2FDC2FCF2FFE2FE92D982C892E982F90
S11322E0872F762F652F542F432F322F2227B85054
S11322F031F7BF9127C01B2EBF91BB27220F331F7D
S1132300441F551F661F771F881F991F881C991C1F
S1132310EE1FFF1FCC1FDD1FAA1FBB1F8A149B04C7
S1132320EC05FD05CE05DF05A007B10748F08A18C6
S11323309B08EC09FD09CE09DF09A00BB10B216054
S11323401A94E1F62EF49401AF01BE01CD01000C04
S11323500895609570958095909530954095509529
S113236021953F4F4F4F5F4F6F4F7F4F8F4F9F4F81
S113237008952F923F924F925F926F927F928F9225
S11323809F92AF92BF92CF92DF92EF92FF920F9300
S11323901F93CF93DF93CDB7DEB7CA1BDB0B0FB60A
S11323A0F894DEBF0FBECDBF09942A8839884888C7
S11323B05F846E847D848C849B84AA84B984C8845D
S11323C0DF80EE80FD800C811B81AA81B981CE0F54
S11323D0D11D0FB6F894DEBF0FBECDBFED01089539
S11323E00024A7FD00942A17300540055005600518
S11323F07005800590050895A0E0B0E0E2E0F2E108
S11324000C94BA115C016B017A016115710519F024
S1132410FB0191838083E114F10429F0C701029741
S1132420839708F0E5C0E5012196F5011081812F1D
S113243090E00E940714892B11F05E01F4CF1D3245
S113244029F42196F501118101E007C01B3221F422
S1132450E5012296F501118100E0E114F10409F18E
S1132460F0E1EF16F10429F43FC010E3E114F104A4
S113247021F128E0E216F10401F154F4E2E0EE1651
S1132480F10421F5812C912CA12CB0E4BB2E3EC08B
S1132490FAE0EF16F10439F020E1E216F104B1F4A8
S11324A030C0103319F1FAE0EF2EF12CACEC8A2E87
S11324B0982CA82CACE0BA2E29C078E0E72EF12C99
S11324C0812C912CA12CE0E1BE2E20C060E070E0B4
S11324D080E090E897010F2C000C440B550B0E94F0
S11324E0651049015A0112C0103359F488818F7D57
S11324F0883509F0BACF19812296026080E1E82E6E
S1132500F12C812C912CA12C68E0B62E40E060E0E7
S113251070E0CB0127010F2C000C66087708FE0140
S113252050ED352E310E29E0231570F42FEB210FD9
S11325302A3118F439EC332E06C02FE9210F2A3141
S113254018F529EA322E310E232D30E02E153F05E1
S1132550DCF447FD16C086169706A806B90670F087
S1132560A30192010E94A014630D711D811D911D90
S113257061307105810520E8920710F04FEF01C02A
S113258041E021961081CBCF202F2170C114D104BA
S113259071F0442329F02197F601D183C08307C049
S11325A001FF19C02297F601D183C08314C047FFED
S11325B012C0222329F060E070E080E090E804C0BB
S11325C06FEF7FEF8FEF9FE722E230E03093C80791
S11325D02093C70709C0222381F0909580957095B8
S11325E061957F4F8F4F9F4F462F372F282F12C053
S11325F040E030E020E090E00DC097FFF5CF82E2AC
S113260090E09093C8078093C7076FEF7FEF8FEF39
S11326109FE7EACF642F732F822FCDB7DEB7E1E1B6
S11326200C94D611A0E0B0E0E8E1F3E10C94BA1107
S11326305C016B017A016115710519F0FB0191834D
S11326408083E114F10429F0C7010297839708F00D
S1132650C9C0E5012196F5011081812F90E00E9407
S11326600714892B11F05E01F4CF1D3229F4219651
S1132670F501118101E007C01B3221F4E501229626
S1132680F501118100E0E114F104B1F0F0E1EF167D
S1132690F10429F4B0C010E3E114F10401F12AE0DB
S11326A0E216F104B1F180E1E816F10471F0E8E01A
S11326B0EE16F104F1F413C0103341F588818F7DD7
S11326C0883549F7198122960260F0E1EF2EF12C4A
S11326D088248A94982CA82CAFE0BA2E20C078E0E5
S11326E0E72EF12C88248A94982CA82CEFE1BE2E96
S11326F016C06FEF7FEFCB0197010F2C000C440B3A
S1132700550B0E94651049015A0109C08AE0E82E60
S1132710F12C69E9862E982CA82C69E1B62E40E0AC
S113272060E070E0CB0127010F2C000C66087708ED
S1132730FE0150ED352E310E29E0231570F42FEBF8
S1132740210F2A3118F439EC332E06C02FE9210F5A
S11327502A3130F529EA322E310E232D30E02E15A0
S11327603F05F4F44F3FC9F086169706A806B9064C
S113277088F0A30192010E94A014232D30E040E0D0
S113278050E0620F731F841F951F6217730784073D
S1132790950710F44FEF01C041E021961081C8CF96
S11327A0C114D10451F0442311F0219703C001FF57
S11327B004C02297F601D183C08300FF07C090951F
S11327C08095709561957F4F8F4F9F4F4F3F79F460
S11327D082E290E09093C8078093C7073FEF2FEF02
S11327E09FEF0DC040E030E020E090E008C0462FAD
S11327F0372F282F04C0103309F067CF5FCF642F21
S1132800732F822FCDB7DEB7E1E10C94D61191116D
S11328100C945914803219F089508550C8F70895E2
S11328204EE756E00E9432140895FB01DC0104C017
S11328308D910190801921F441505040C8F7881BB4
S1132840990B0895DC0101C06D9341505040E0F7AD
S11328500895FB01DC018D91019080190110D9F3D9
S1132860990B0895FA01A191B081009719F410977A
S1132870E1F0CD01DC01CD010D90002011F4C00187
S113288013C0FB012191222319F02015D9F7F3CFAE
S1132890FB012191201519F41E92119606C02223E2
S11328A0C1F70D900020A1F7D001FA01A193B083E4
S11328B00895992788270895DC01CB01FC01F99933
S11328C0FECF06C0F2BDE1BDF89A319600B40D9278
S11328D041505040B8F70895A6E1B0E044E050E01C
S11328E00C945E14DC01A40FB51F4150504048F015
S11328F0CB01840F951F2E910E94831441505040A8
S1132900D0F70895262FF999FECF92BD81BDF89A8C
S1132910019700B4021639F01FBA20BD0FB6F8941F
S1132920FA9AF99A0FBE08950396272F0E948314EA
S11329300E948214252F0E948314242F0C94831444
S1132940DB018F939F930E94B510BF91AF91A29F1B
S1132950800D911DA39F900DB29F900D1124089599
S1072960F894FFCF15
S113296456414C4944004449525459004445464153
S1132974554C5400244E443238305253502C455252
S1132984524F522C524541534F4E3D00244E443233
S113299438305253502C4F4B2C434D443D00244E5D
S11329A44432383043414C2C53544154453D002C5B
S11329B4434F554E543D002C4F583D002C4F593D28
S11329C4002C4F5A3D002C47583D002C47593D00DC
S11329D42C475A3D002C4E583D002C4E593D002C9A
S11329E44E5A3D002C5443414C3D00200048454C74
S11329F45000244E443238305253502C434F4D4DE2
S1132A04414E44533D48454C507C494E464F7C49C5
S1132A1444454E544954597C444941477C43414CB0
S1132A2420524541447C43414C204F46465345542F
S1132A3420782079207A7C43414C204741494E2018
S1132A44782079207A7C43414C204E4F49534520C9
S1132A54782079207A7C43414C2054454D5020748D
S1132A647C43414C20534156457C43414C205245C0
S1132A745345540D0A00494E464F004944454E54AB
S1132A8449545900444941470043414C00554E4B75
S1132A944E4F574E5F434F4D4D414E44004D4953A5
S1132AA453494E475F43414C5F535542434F4D4D49
S1132AB4414E44004241445F4F46465345545F41AE
S1132AC45247554D454E54530043414C5F4F46467F
S1132AD4534554004241445F4741494E5F41524784
S1132AE4554D454E54530043414C5F4741494E00B4
S1132AF44241445F4E4F4953455F415247554D450A
S1132B044E54530043414C5F4E4F49534500424198
S1132B14445F54454D505F415247554D454E540012
S1132B2443414C5F54454D500043414C5F5341561F
S1132B344500454550524F4D5F5645524946595FED
S1132B444641494C45440043414C5F524553455426
S1132B5400554E4B4E4F574E5F43414C5F535542C5
S1132B64434F4D4D414E4400554152545F52585FBA
S1132B744F564552464C4F57005741544348444FCF
S1132B84470042524F574E5F4F55540045585445E1
S1132B94524E414C00504F5745525F4F4E00554ED4
S1132BA44B4E4F574E00244E44323830444941472B
S1132BB42C49443D002C555054494D455F4D533DDB
S1132BC4002C424F4F54533D002C4D4541535F4F0D
S1132BD44B3D002C4D4541535F4641494C3D002C2F
S1132BE45457495F4552523D002C554152545F435A
S1132BF44D443D002C554152545F4F56463D002CE4
S1132C04454550524F4D5F4552523D002C52455359
S1132C1445543D002C52455345545F464C4147535B
S1132C243D307800544D41475F4445564943455F20
S1132C3449445F5245414400544D41475F494E491C
S1132C4454004552524F522C544D41475F4E4F5FEE
S1132C5456414C49445F53414D504C45532C5345C4
S1132C64513D00244E44323830494E464F2C494499
S1132C743D002C4E4F44454F533D00302E352E31EC
S1132C842D616C70686131002C50524F544F3D00DB
S1132C942C424F4152445F5245563D0041002C485A
S1132CA4573D00544D414720446562756720426F87
S1132CB4617264002C4D43553D0041546D65676158
S1132CC43332385042002C53454E534F523D005436
S1132CD44D4147353237334132002C52414E47453A
S1132CE43D002C4156473D002C454550524F4D5F05
S1132CF45645523D002C43414C3D002C4255494C11
S1132D04445F444154453D004A756C2031352032BA
S1132D14303236002C4255494C445F54494D453DAC
S1132D240030383A32323A3139004E4F44454F5329
S1132D345F56455253494F4E3D002C50524F544F09
S1132D44434F4C3D002C4E4F44455F49443D000DD8
S1132D540A4255494C445F444154453D0043414C67
S1132D644942524154494F4E3D002C564552534911
S1132D744F4E3D002C434F554E5445523D00434164
S1132D844C5F4F46465345545F583D002C43414CD9
S1132D945F4F46465345545F593D002C43414C5FB5
S1132DA44F46465345545F5A3D004552524F522CA8
S1132DB4000D0A4E44323830204D61676E657469E3
S1132DC463204669656C64204E6F64652076000D4B
S1132DD40A55415254303D343830302C52585F43F4
S1132DE44F4D4D414E44533D4F4E2C545749313D64
S1132DF45045302F5045310D0A0041564552414744
S1132E04455F53414D504C45533D002C53414D5067
S1132E144C455F494E54455256414C5F4D533D0019
S1132E240D0A544D41475F56415249414E543D00A9
S1132E342C544D41475F52414E47455F4D543D002C
S1132E44544D41475F4445564943455F49443D30E9
S1132E5478000D0A544D41475F494E49543D4F4B48
S1132E640D0A424F4152445F49443D000D0A524504
S1132E745345545F43415553453D002C424F4F54F1
S1132E845F434F554E543D000D0A54595045204854
S1132E94454C5020464F5220434F4D4D414E4453D0
S1132EA40D0A00244E443238302C5645523D002C31
S1132EB4543D002C42583D002C42593D002C425AAA
S1132EC43D002C5354415455533D30780030313235
S1112ED43334353637383941424344454600DD
S9030000FC
