S01700004763634170706C69636174696F6E312E737265635B
S11300000C945A000C946F000C946F000C946F00C5
S11300100C946F000C946F000C946F000C946F00A0
S11300200C946F000C946F000C946F000C946F0090
S11300300C946F000C946F000C946F000C946F0080
S11300400C946F000C946F000C946F000C946F0070
S11300500C946F000C946F000C946F000C946F0060
S11300600C946F000C946F000C946F000C946F0050
S11300700C946F000C946F000C946F000C946F0040
S11300800C946F000C946F000C946F000C946F0030
S11300900C946F000C946F000C946F000C946F0020
S11300A00C946F000C946F000C946F000C946F0010
S11300B00C946F0011241FBECFEFD8E0DEBFCDBF7C
S11300C012E0A0E0B1E0ECE3FCE002C005900D9288
S11300D0AC31B107D9F70E94E8010C941C060C94CA
S11300E0000087B1807F87B98AB18B7F8AB988B1D4
S11300F0807F88B98BB18B7F8BB90895309902C00A
S113010080E001C081E03199826032998460339942
S113011088604A99806180958F710895EC0180E030
S113012091E00E94C204CE010E94C20489E791E0DA
S11301300E94C2048BB180588BB98FE493EC019771
S1130140F1F700C00000F6CF2F923F924F925F92DA
S11301506F927F928F929F92AF92BF92CF92DF92D3
S1130160EF92FF920F931F93CF93DF93CDB7DEB738
S11301706A970FB6F894DEBF0FBECDBF282E9A8BB8
S11301807F876E8710E000E0312C812C912C540184
S1130190412C512C3201C12CD12C76011A861B869C
S11301A01C861D863FC0CE0101960E94A7028823AB
S11301B091F189819A81092E000CAA0BBB0B2A8527
S11301C03B854C855D85280F391F4A1F5B1F2A8795
S11301D03B874C875D878B819C81092E000CAA0B81
S11301E0BB0BC80ED91EEA1EFB1E8D819E81092EF3
S11301F0000CAA0BBB0B480E591E6A1E7B1E8F8176
S11302009885092E000CAA0BBB0B880E991EAA1EFA
S1130210BB1E39840F5F87EA91E60197F1F700C0AE
S113022000001F5F1A3008F4BECFAE85BF850C9363
S1130230002309F446C0202F30E040E050E02E8730
S11302403F87488B598BC501B4010E94E3052B8B72
S11302503C8B4D8B5E8BC301B2012E853F85488953
S113026059890E94E3052F8B388F498F5A8FC70114
S1130270B6012E853F85488959890E94E3052901E5
S11302803A016A857B858C859D852E853F854889C5
S113029059890E94E305CA01B9013A893F932F9213
S11302A0832CAB88BC88CD88DE88EF88F88C098DD8
S11302B01A8DA30192010E94F5020F900F9081E024
S11302C001C080E06A960FB6F894DEBF0FBECDBFC2
S11302D0DF91CF911F910F91FF90EF90DF90CF901E
S11302E0BF90AF909F908F907F906F905F904F9052
S11302F03F902F9008958F929F92AF92BF92EF926A
S1130300FF920F931F93CF93DF93E82E4A015B0173
S1130310F22EE80187E091E00E94C20483E191E0BB
S11303200E94C20489E191E00E94C2048E2D90E0F3
S11303300E94E40485E092E00E94C204C501B40175
S11303400E943B058EE191E00E94C2048F2D90E053
S11303500E94E40484E291E00E94C20468817981ED
S11303608A819B810E94800588E291E00E94C204F8
S11303706C817D818E819F810E9480058DE291E058
S11303800E94C204688579858A859B850E948005C0
S113039082E391E00E94C2046C857D858E859F85F1
S11303A00E94800587E391E00E94C20488890E942C
S11303B0CF0489E791E00E94C204DF91CF911F919D
S11303C00F91FF90EF90BF90AF909F908F90089502
S11303D0CF93DF93CDB7DEB763970FB6F894DEBF44
S11303E00FBECDBF0E94AD040E94D0030E947100D5
S11303F08AB1806E8AB982E491E00E94C20483E1EA
S113040091E00E94C20480E691E00E94C2048CE75D
S113041091E00E94C2048AE090E00E94E4048DE826
S113042091E00E94C20484E690E00E94E40489E71B
S113043091E00E94C2041982CE0101960E947D02BD
S1130440811104C082EA91E00E948E0086EB91E063
S11304500E94C20489810E94CF0489E791E00E942E
S1130460C2040E948302811104C088EC91E00E94BE
S11304708E0082ED91E00E94C2040E947E0090E012
S11304800E94E40489E791E00E94C204C12CD12CAB
S113049076011B8ABE016D5E7F4FCE0102960E94DB
S11304A0A400811110C08AEE91E00E94C204C70129
S11304B0B6010E943B0589E791E00E94C2048BB11A
S11304C080588BB9E6CFBB880E947E008E010E5FF8
S11304D01F4F2B2DB701A6010E947B018FEFC81A75
S11304E0D80AE80AF80A9BB180E289278BB9D1CFF0
S11304F090E0982F8827862B0895AC016DE085E362
S11305000E941004089540E060E085E30E94DC034B
S11305108823E1F040E061E085E30E94DC03882366
S1130520A9F044E762E085E30E94DC03882371F0CC
S113053043E063E085E30E94DC03882339F041E073
S113054067E085E30E94DC03811181E008950F9345
S11305501F93CF93DF93CDB7DEB729970FB6F894E7
S1130560DEBF0FBECDBF8C0140E06DE885E30E9485
S1130570DC03882379F181EE94E00197F1F700C060
S1130580000029E0AE014F5F5F4F60E185E30E9408
S113059053048823F9F06A8189810E947802F80162
S11305A0918380836C818B810E947802F80193830C
S11305B082836E818D810E947802F8019583848301
S11305C068858F810E947802F801978386838985E4
S11305D0808781E029960FB6F894DEBF0FBECDBFA9
S11305E0DF91CF911F910F9108953F924F925F92A7
S11305F06F927F928F929F92AF92BF92CF92DF922F
S1130600EF92FF920F931F93CF93DF93CDB7DEB793
S113061029013A01382C8C889D889B01AC01245611
S1130620344441095109A8EEB3E00E94110629E5BA
S113063032E040E050E00E94E305DA01C9018C5346
S1130640964FAF4FBF4FF40180839183A283B3834E
S1130650A0EABFE0A30192010E9411062B013C0114
S1130660992334F4FFEF4F0EFFE75F1E611C711CEA
S1130670D301C201072E7FE0B595A795979587957D
S11306807A95D1F7702DF40184839583A683B7837B
S1130690A0EABFE0A80197010E9411068B019C010A
S11306A0992324F4015010482F4F3F4FD901C8011A
S11306B0072E7FE0B595A795979587957A95D1F7FD
S11306C0702DF40180879187A287B387A0EABFE0E9
S11306D0A60195010E9411068B019C01992324F423
S11306E0015010482F4F3F4FD901C801072E7FE01A
S11306F0B595A795979587957A95D1F7702DF401BF
S113070084879587A687B787308ADF91CF911F9119
S11307100F91FF90EF90DF90CF90BF90AF909F909C
S11307208F907F906F905F904F903F90089584EAF0
S11307308093DC008091DC008823E4F78091D90069
S1130740887F883021F0803121F481E0089581E0B0
S1130750089580E0089584E98093DC0008958093EF
S1130760DB0084E88093DC008091DC008823E4F7DC
S11307708091D900887F089584EC8093DC00809177
S1130780DC008823E4F78091DB00089584E88093FB
S1130790DC008091DC008823E4F78091DB0008957D
S11307A08EB183608EB91092D90082E08093D80014
S11307B084E08093DC0008950F931F93CF93DF931D
S11307C0D82F162F042F0E949703C82F811103C01E
S11307D00E94AB031FC08D2F880F0E94AF03883186
S11307E021F00E94AB03C0E015C0812F0E94AF032B
S11307F0883221F00E94AB03C0E00CC0802F0E941D
S1130800AF03883221F00E94AB03C0E003C00E9412
S1130810AB03C1E08C2FDF91CF911F910F9108950D
S1130820EF92FF921F93CF93DF93D82F162F7A0165
S11308300E949703C82F811103C00E94AB032CC0F0
S1130840DD0F8D2F0E94AF03883121F00E94AB038E
S1130850C0E022C0812F0E94AF03883221F00E94A1
S1130860AB03C0E019C00E949703C82F811103C0D5
S11308700E94AB0311C08D2F81600E94AF038034AE
S113088021F00E94AB03C0E007C00E94C603F70139
S113089080830E94AB03C1E08C2FDF91CF911F9125
S11308A0FF90EF900895EF92FF920F931F93CF93D1
S11308B0DF93222309F448C0C22F7A01062F182F90
S11308C00E949703D82F811103C00E94AB033DC03F
S11308D0110F812F0E94AF03883121F00E94AB03D6
S11308E0D0E033C0802F0E94AF03883221F00E94F1
S11308F0AB03D0E02AC00E949703D82F811103C014
S11309000E94AB0322C0812F81600E94AF03803418
S1130910A1F00E94AB03D0E018C087010D0F111D98
S11309208FEF8C0FD81303C00E94C60302C00E942D
S1130930BC03F8018083DF5F01C0D0E0DC1768F3FB
S11309400E94AB03D1E001C0D0E08D2FDF91CF91A5
S11309501F910F91FF90EF9008951092C5008CE0C5
S11309608093C4001092C00088E08093C10086E0A8
S11309708093C20008959091C00095FFFCCF8093AE
S1130980C6000895CF93DF93EC0103C021960E9423
S1130990BB0488818111FACFDF91CF910895CF9361
S11309A0C82FE82FE295EF70F0E0E55FFD4F8081FE
S11309B00E94BB04CF70EC2FF0E0E55FFD4F808117
S11309C00E94BB04CF9108951F93CF93DF9300D06F
S11309D000D01F92CDB7DEB7AC01892B91F580E32F
S11309E00E94BB043FC09A01ADECBCEC0E9402061D
S11309F09695879596958795969587959C01220F50
S1130A00331F880F991F880F991F880F991F820F12
S1130A10931F9A01281B390BC901805DE1E0F0E0C6
S1130A20EC0FFD1FE10FF11D80839A010E94020665
S1130A30AC015695479556954795569547951F5F32
S1130A4001C010E04115510571F60AC01150E1E0F2
S1130A50F0E0EC0FFD1FE10FF11D80810E94BB044B
S1130A601111F4CF0F900F900F900F900F90DF9112
S1130A70CF911F9108951F93CF93DF93CDB7DEB726
S1130A802A970FB6F894DEBF0FBECDBF611571056E
S1130A9081059105C1F480E30E94BB0427C02AE0CC
S1130AA030E040E050E00E94C105605DE1E0F0E02C
S1130AB0EC0FFD1FE10FF11D6083622F732F842F54
S1130AC0952F1F5F01C010E0611571058105910527
S1130AD031F70AC01150E1E0F0E0EC0FFD1FE10F27
S1130AE0F11D80810E94BB041111F4CF2A960FB628
S1130AF0F894DEBF0FBECDBFDF91CF911F91089553
S1130B00CF92DF92EF92FF92CF93DF936B017C0140
S1130B1099235CF48DE20E94BB04F094E094D09499
S1130B20C094C11CD11CE11CF11CC701B60124E610
S1130B3030E040E050E00E94E305D62FCA01B9013D
S1130B400E943B058EE20E94BB04CDECDC9FC12DCC
S1130B501124C695C695C69580E38C0F0E94BB04EC
S1130B60CC0F8C2F880F880FC80F8D2F8C1B805DA6
S1130B700E94BB04DF91CF91FF90EF90DF90CF9064
S1130B800895A1E21A2EAA1BBB1BFD010DC0AA1FCA
S1130B90BB1FEE1FFF1FA217B307E407F50720F0E2
S1130BA0A21BB30BE40BF50B661F771F881F991F5D
S1130BB01A9469F760957095809590959B01AC01A6
S1130BC0BD01CF010895052E97FB1EF400940E94E9
S1130BD0FA0557FD07D00E94C10507FC03D04EF467
S1130BE00C94FA0550954095309521953F4F4F4F01
S1130BF05F4F089590958095709561957F4F8F4FC5
S1130C009F4F0895A29FB001B39FC001A39F700D91
S1130C10811D1124911DB29F700D811D1124911D00
S1130C2008950E940206A59F900DB49F900DA49F65
S10F0C30800D911D11240895F894FFCF4D
S1130C3C4552524F522C00244E443238302C5645D7
S1130C4C523D00302E322E30002C49443D002C41B4
S1130C5C56473D002C543D002C42583D002C425923
S1130C6C3D002C425A3D002C5354415455533D30B5
S1130C7C78000D0A4E44323830204D61676E65742D
S1130C8C6963204669656C64204E6F646520760048
S1130C9C0D0A55415254303D343830302C54574998
S1130CAC313D5045302F5045310D0A0041564552C7
S1130CBC4147455F53414D504C45533D002C5341E6
S1130CCC4D504C455F494E54455256414C5F4D5323
S1130CDC3D00544D41475F4445564943455F4944A3
S1130CEC5F5245414400544D41475F444556494386
S1130CFC455F49443D307800544D41475F494E4966
S1130D0C5400544D41475F494E49543D4F4B0D0AD5
S1130D1C424F4152445F49443D004552524F522C7C
S1130D2C544D41475F4E4F5F56414C49445F5341CC
S1130D3C4D504C45532C5345513D003031323334D6
S10F0D4C353637383941424344454600EF
S9030000FC
