S01700004763634170706C69636174696F6E312E737265635B
S11300000C945A000C9486000C9486000C94860080
S11300100C9486000C9486000C9486000C94860044
S11300200C9486000C9486000C9486000C94860034
S11300300C9486000C9486000C9468060C9486003C
S11300400C9486000C9486000C94710F0C9486001A
S11300500C9486000C9486000C9486000C94860004
S11300600C9486000C9486000C9486000C948600F4
S11300700C9486000C9486000C9486000C948600E4
S11300800C9486000C9486000C9486000C948600D4
S11300900C9486000C9486000C9486000C948600C4
S11300A00C9486000C9486000C9486000C948600B4
S11300B00C94860011241FBECFEFD8E0DEBFCDBF65
S11300C084B78093570814BE0FB6F894A89580910E
S11300D06000886180936000109260000FBE17E09A
S11300E0A0E0B1E0EEE5FBE202C005900D92A23083
S11300F0B107D9F728E0A2E0B7E001C01D92A73507
S1130100B207E1F70E9471080C94AD150C9400003D
S113011087B1807F87B98AB18B7F8AB988B1807FA4
S113012088B98BB18B7F8BB90895309902C080E078
S113013001C081E03199826032998460339988608A
S11301404A99806180958F7108954F925F926F9262
S11301507F92AF92BF92CF92DF92EF92FF920F9372
S11301601F93DC01CB01821B930BA40BB50B2C0159
S11301703D01770C4408542C3201B801A701770FD4
S1130180440B542FBA01AE2CBF2CC02ED12EE42E1A
S1130190F42E042F142F282F392F4A2F5B2F642D70
S11301A0742D842D942D0E94BD11A0E00E94ED12A7
S11301B04CF0205E3E45484F5F4F6F4F7F4F8F4F4F
S11301C09F4F08C02052314A4740510961097109C3
S11301D0810991096894AA24A6F80F2EF2E4BF2E8F
S11301E0F02D0F2EFFE0CF2EF02DD12CE12CF12C91
S11301F000E010E00E941812622F732F842F952FB5
S11302001F910F91FF90EF90DF90CF90BF90AF9030
S11302107F906F905F904F90089566E370E00E9426
S113022037060895CF93DF93EC0188E3FE01119222
S11302308A95E9F788E392E3A4E4BEE4888399838A
S1130240AA83BB8381E090E09D838C8388E390E064
S11302509F838E8380E492E4AFE0B0E08C8B9D8B2F
S1130260AE8BBF8B888F998FAA8FBB8F8C8F9D8FFE
S1130270AE8FBF8FCE010E940D019FAB8EABDF917D
S1130280CF9108950F931F93CF93DF93EC0148E32D
S113029050E060E070E00E94591588819981AA813C
S11302A0BB8188339243A444BE4481F48C819D81F4
S11302B0019761F48E819F81C89741F40EA91FA90B
S11302C0CE010E940D010817190781F088819981D8
S11302D0AA81BB818F3F9F4FAF4FBF4F11F00E9448
S11302E0E107CE010E94120180E001C081E0DF91AC
S11302F0CF911F910F910895CF93DF93CDB7DEB7C0
S1130300C057D1090FB6F894DEBF0FBECDBFFC01B4
S113031098E3DE01119601900D929A95E1F788E336
S113032092E3A4E4BEE489839A83AB83BC8381E033
S113033090E09E838D8388E390E098878F83CE013D
S113034001960E940D0198AF8FAB48E350E060E046
S113035070E0CE0101960E946F1548E350E060E022
S113036070E0CE01C9960E94591548E350E0BE01E1
S1130370675C7F4FCE0101960E941215892B21F0F4
S11303800E94E10780E001C081E0C059DF4F0FB651
S1130390F894DEBF0FBECDBFDF91CF910895CF9308
S11303A0DF93CDB7DEB7E8970FB6F894DEBF0FBE84
S11303B0CDBF48E350E06FEF70E0CE0101960E949C
S11303C01F1548E350E060E070E0CE0101960E9402
S11303D06F15E8960FB6F894DEBF0FBECDBFDF9160
S11303E0CF910895CF92DF92EF92FF920F931F93D4
S11303F0CF93DF936C01EB01FC01E488F588068957
S1130400178920853185428553856C817D818E8154
S11304109F810E94A5006C837D838E839F83F60158
S1130420E08CF18C028D138D2485358546855785A6
S1130430688579858A859B850E94A5006887798768
S11304408A879B87F601E48CF58C068D178D2089AD
S11304503189428953896C857D858E859F850E946B
S1130460A5006C877D878E879F87DF91CF911F9131
S11304700F91FF90EF90DF90CF900895813029F095
S1130480823031F486E091E0089580E091E00895AF
S11304908CE091E00895CF93DF93EC0184E191E047
S11304A00E94BE0FCE010E94BE0F8EEF96E00E9406
S11304B0BE0FDF91CF910895CF93DF93EC018CE2CF
S11304C091E00E94BE0FCE010E94BE0F8EEF96E017
S11304D00E94BE0FDF91CF910895EF92FF920F9388
S11304E01F93CF93DF9300D0CDB7DEB78C017B0190
S11304F01A8219824AE050E0BE016F5F7F4F0E946A
S11305000F14E981FA810E171F0751F02081211180
S113051009C0F701608371838283938381E003C000
S113052080E001C080E00F900F90DF91CF911F9188
S11305300F91FF90EF900895CF92DF92EF92FF9288
S11305400F931F93CF93DF930097D9F06115710533
S1130550D1F041155105C9F06A01EB01B9010E94BE
S11305606D028823A1F0B801CE010E946D02882398
S113057081F0B701C6010E946D02882361F081E019
S11305800BC080E009C080E007C080E005C080E0C7
S113059003C080E001C080E0DF91CF911F910F91F3
S11305A0FF90EF90DF90CF900895EF92FF920F931A
S11305B01F93CF93DF9300D0CDB7DEB78C017B01BF
S11305C01A8219824AE050E0BE016F5F7F4F0E9499
S11305D0F912E981FA810E171F0751F020812111C8
S11305E009C0F701608371838283938381E003C030
S11305F080E001C080E00F900F90DF91CF911F91B8
S11306000F91FF90EF900895CF92DF92EF92FF92B7
S11306100F931F93CF93DF930097D9F06115710562
S1130620D1F041155105C9F06A01EB01B9010E94ED
S1130630D5028823A1F0B801CE010E94D5028823F7
S113064081F0B701C6010E94D502882361F081E0E0
S11306500BC080E009C080E007C080E005C080E0F6
S113066003C080E001C080E0DF91CF911F910F9122
S1130670FF90EF90DF90CF9008951F93CF93DF9377
S1130680EC01162F8EE391E00E94BE0F812F0E9491
S11306903E020E94BE0F8AE996E00E94BE0F8C8142
S11306A09D810E94E00F8FE491E00E94BE0F68A933
S11306B079A98AA99BA90E94371087E591E00E9435
S11306C0BE0F688579858A859B850E947C108CE5A0
S11306D091E00E94BE0F6C857D858E859F850E946A
S11306E07C1081E691E00E94BE0F688979898A892D
S11306F09B890E947C1086E691E00E94BE0F6C8963
S11307007D898E899F890E947C108BE691E00E94EE
S1130710BE0F688D798D8A8D9B8D0E947C1080E739
S113072091E00E94BE0F6C8D7D8D8E8D9F8D0E94F9
S11307307C1085E791E00E94BE0F68A179A18AA18F
S11307409BA10E9437108AE791E00E94BE0F6CA122
S11307507DA18EA19FA10E9437108FE791E00E9496
S1130760BE0F68A579A58AA59BA50E94371084E8C9
S113077091E00E94BE0F6CA57DA58EA59FA50E9449
S11307807C108EEF96E00E94BE0FDF91CF911F91F7
S113079008956F927F928F929F92AF92BF92CF9261
S11307A0DF92EF92FF920F931F93CF93DF93CDB716
S11307B0DEB72C970FB6F894DEBF0FBECDBF5B013A
S11307C06A01F22E6BE871E00E940D158C0100970E
S11307D009F4F9C16DE871E00E942615892B29F40A
S11307E082E991E00E94BE0FEEC164E272E0C801AA
S11307F00E942615892B39F069E272E0C8010E9433
S11308002615892B31F4F60160818F2D0E94510A3F
S1130810DAC162E372E0C8010E942615892B69F5EA
S11308206BE871E080E090E00E940D15009721F4E0
S11308308F2D0E94EF07C7C167E372E00E9426155F
S1130840892BB1F46BE871E080E090E00E940D1513
S1130850009749F06BE372E00E942615892B19F486
S11308600E945111B0C180E492E00E944B02ABC1DE
S113087085E592E00E944B02A6C16DE672E0C801D4
S11308800E942615892B29F081E792E00E944B02F1
S11308909AC16BE871E080E090E00E940D158C0134
S11308A0009729F481E892E00E944B028CC163E234
S11308B074E00E942615892B31F4F6016081C5018C
S11308C00E943D0380C161EB72E0C8010E942615BD
S11308D0892B09F049C06BE871E080E090E00E9448
S11308E00D153C016BE871E080E090E00E940D156D
S11308F04C016BE871E080E090E00E940D159E01D0
S11309002F5F3F4F79018E010B5F1F4F285F3F4FD1
S1130910A301B4010E940403811105C088E992E097
S11309200E944B0250C189859A85AB85BC85F5012F
S113093080879187A287B3878D819E81AF81B88597
S113094084879587A687B78789819A81AB81BC8183
S1130950808B918BA28BB38B82E0F60180838DEA2E
S113096092E00E945C022FC16FEC72E0C8010E9409
S11309702615892B09F058C06BE871E080E090E0FF
S11309800E940D153C016BE871E080E090E00E944C
S11309900D154C016BE871E080E090E00E940D15AC
S11309A09E012F5F3F4F79018E010B5F1F4F285F20
S11309B03F4FA301B4010E9404038823D9F0898521
S11309C09A85AB85BC85181619061A061B0694F47D
S11309D04D815E816F8178851416150616061706FB
S11309E04CF409811A812B813C81101611061206E0
S11309F013062CF088EB92E00E944B02E4C0F50150
S1130A00848B958BA68BB78B408F518F628F738F9E
S1130A10048F158F268F378F82E0F60180838BEC4D
S1130A2092E00E945C02CFC06CEE72E0C8010E94AA
S1130A302615892B09F049C06BE871E080E090E04D
S1130A400E940D153C016BE871E080E090E00E948B
S1130A500D154C016BE871E080E090E00E940D15EB
S1130A609E012F5F3F4F79018E010B5F1F4F285F5F
S1130A703F4FA301B4010E949C02811105C084ED83
S1130A8092E00E944B029FC089859A85AB85BC8504
S1130A90F50180A391A3A2A3B3A38D819E81AF810D
S1130AA0B88584A395A3A6A3B7A389819A81AB81B2
S1130AB0BC8180A791A7A2A7B3A782E0F601808397
S1130AC088EE92E00E945C027EC068E073E0C80198
S1130AD00E942615892B29F56BE871E080E090E0EF
S1130AE00E940D15009739F0BE016F5F7F4F0E9481
S1130AF0D502811105C082EF92E00E944B0263C0CF
S1130B0089819A81AB81BC81F50184A795A7A6A7A9
S1130B10B7A782E0F601808384E093E00E945C0240
S1130B2052C061E173E0C8010E942615892B79F552
S1130B30F50180A991A9A2A9B3A90196A11DB11D8E
S1130B4080AB91ABA2ABB3ABC5010E947C018823FF
S1130B5069F081E0F60180838DE093E00E945C02FD
S1130B60F6016081C5010E943D032DC0F50180A9F5
S1130B7091A9A2A9B3A90197A109B10980AB91AB2D
S1130B80A2ABB3AB86E193E00E944B021CC06FE2C0
S1130B9073E0C8010E942615892B89F40E94CF01B5
S1130BA0C5010E941201F60110828BE293E00E94BB
S1130BB05C02F6016081C5010E943D0304C085E327
S1130BC093E00E944B022C960FB6F894DEBF0FBE42
S1130BD0CDBFDF91CF911F910F91FF90EF90DF90E8
S1130BE0CF90BF90AF909F908F907F906F9008951B
S1130BF0DF92EF92FF920F931F93CF93DF93CDB7C2
S1130C00DEB7C056D1090FB6F894DEBF0FBECDBF14
S1130C108C017B01D42E0E943D11882391F00E9407
S1130C2040110E94D3078CE493E00E944B0209C058
S1130C300E94C5072D2DA701B801CE0101960E947F
S1130C40C90360E6CE0101960E94D9108111F0CF4C
S1130C50C05ADF4F0FB6F894DEBF0FBECDBFDF9191
S1130C60CF911F910F91FF90EF90DF900895DC01D9
S1130C7040E050E08FEF9FEF1BC0FD01E40FF51F34
S1130C80208130E0322F22278227932720E00CC0D6
S1130C9099233CF4880F991F31E2832730E193278D
S1130CA002C0880F991F2F5F283090F34F5F5F4F6A
S1130CB04617570710F3089582E084BD85BD8CE77D
S1130CC087BD16BCEEE6F0E08081826080830895E3
S1130CD01F920F920FB60F9211242F938F939F930D
S1130CE0AF93BF9380912D0790912E070196909317
S1130CF02E0780932D0780912D0790912E07883E13
S1130D009340B8F010922E0710922D078091290776
S1130D1090912A07A0912B07B0912C070196A11D51
S1130D20B11D8093290790932A07A0932B07B093B2
S1130D302C07BF91AF919F918F912F910F900FBE70
S1130D400F901F9018958091570880932007E4E036
S1130D50F7E01082118212821382148215821682A5
S1130D6017821086118612861386148615861686B7
S1130D701786108A118A128A138A148A158A168A87
S1130D80178A108E118E128E138E10922E071092C7
S1130D902D071092290710922A0710922B07109200
S1130DA02C078CE390E00E946915609325077093EB
S1130DB0260780932707909328076F3F7F4F8F4F15
S1130DC09F4F41F41092250710922607109227078F
S1130DD01092280740912507509126076091270714
S1130DE0709128074F5F5F4F6F4F7F4F40932507E8
S1130DF05093260760932707709328078CE390E0AD
S1130E000E94911588E390E00E9469156093210780
S1130E107093220780932307909324076F3F7F4F9B
S1130E208F4F9F4F41F41092210710922207109286
S1130E302307109224078091200783FF18C0409154
S1130E4021075091220760912307709124074F5F77
S1130E505F4F6F4F7F4F409321075093220760935A
S1130E6023077093240788E390E00E9491158091F2
S1130E70210790912207A0912307B0912407809322
S1130E801C0790931D07A0931E07B0931F070E9491
S1130E905C0608952FB7F8946091290770912A078A
S1130EA080912B0790912C072FBF089560912507FF
S1130EB070912607809127079091280708958091C3
S1130EC0200780FF06C08DE593E00E94BE0F81E0FD
S1130ED001C080E09091200791FF0AC0882319F097
S1130EE08CE70E94B70F86E693E00E94BE0F81E074
S1130EF09091200792FF0AC0882319F08CE70E9482
S1130F00B70F8FE693E00E94BE0F81E09091200717
S1130F1093FF0AC0882319F08CE70E94B70F89E772
S1130F2093E00E94BE0F81E0811104C082E893E047
S1130F300E94BE0F0895E4E0F7E080819181A281D0
S1130F40B3810196A11DB11D80839183A283B383D4
S1130F500895E4E0F7E084819581A681B781019644
S1130F60A11DB11D84839583A683B7830895E4E00E
S1130F70F7E080859185A285B3850196A11DB11DF9
S1130F8080879187A287B3870895E4E0F7E084859A
S1130F909585A685B7850196A11DB11D8487958782
S1130FA0A687B7870895E4E0F7E080899189A2894C
S1130FB0B3890196A11DB11D808B918BA28BB38B3C
S1130FC00895E4E0F7E084899589A689B7890196B4
S1130FD0A11DB11D848B958BA68BB78B0895CF93E0
S1130FE0DF93C82F8AE893E00E94BE0F8C2F90E015
S1130FF00E94E00F89E993E00E94BE0F0E944A0715
S11310000E94371084EA93E00E94BE0F6091250786
S11310107091260780912707909128070E94371026
S11310208CEA93E00E94BE0FC4E0D7E06881798126
S11310308A819B810E94371086EB93E00E94BE0F49
S11310406C817D818E819F810E94371082EC93E0B8
S11310500E94BE0F688579858A859B850E9437101A
S11310608CEC93E00E94BE0F6C857D858E859F85F8
S11310700E94371087ED93E00E94BE0F688979893A
S11310808A899B890E94371082EE93E00E94BE0FEA
S11310906C897D898E899F890E9437108FEE93E039
S11310A00E94BE0F6091210770912207809123074F
S11310B0909124070E9437108CEF93E00E94BE0F9A
S11310C00E945F0784E094E00E94BE0F8091200795
S11310D00E94CB0F8EEF96E00E94BE0FDF91CF915E
S11310E008950E9486090E94D709FDCF2F923F924E
S11310F04F925F926F927F928F929F92AF92BF9224
S1131100CF92DF92EF92FF920F931F93CF93DF93CF
S1131110CDB7DEB76A970FB6F894DEBF0FBECDBF6A
S1131120009709F4B6C06115710509F4B4C01A0139
S1131130788B6F879E8B8D8B10E000E01E86412C90
S1131140512C32011A861B861C861D86812C912CFB
S11311505401C12CD12C760145C0CE0101960E94C8
S11311601B0C882399F189819A81092E000CAA0B02
S1131170BB0BC80ED91EEA1EFB1E8B819C81092E57
S1131180000CAA0BBB0B880E991EAA1EBB1E8D81D8
S11311909E81092E000CAA0BBB0B2A853B854C852E
S11311A05D85280F391F4A1F5B1F2A873B874C87A1
S11311B05D878F819885092E000CAA0BBB0B480E06
S11311C0591E6A1E7B1E39853E870F5F2114310428
S11311D011F0F101099587EA91E60197F1F700C052
S11311E000001F5F1A3008F4B8CFAF85B889519654
S11311F00C93002309F451C0202F30E040E050E06C
S1131200298B3A8B4B8B5C8BC301B2010E948411F6
S11312102F8B388F498F5A8F6A857B858C859D8566
S113122029893A894B895C890E9484112A873B87E2
S11312304C875D87C501B40129893A894B895C894A
S11312400E94841129013A01C701B60129893A890A
S11312504B895C890E948411CA01B90138893F9382
S11312604F854F938E84AF88B88CC98CDA8CEA840E
S1131270FB840C851D85A30192010E94740C6F856B
S113128078898D899E890E94F2010F900F9081E0E8
S113129005C080E003C080E001C080E06A960FB61C
S11312A0F894DEBF0FBECDBFDF91CF911F910F9198
S11312B0FF90EF90DF90CF90BF90AF909F908F9072
S11312C07F906F905F904F903F902F9008950E9471
S11312D04F1140912F0764E377E085E397E00E9484
S11312E0F805809134070E948F0B0E94A10B08958A
S11312F00E94700D82E00E94770B0E9467098FE4C0
S113130093EC0197F1F700C00000F7CFCF93DF9380
S11313101F92CDB7DEB719820E94A3060E946D0DFD
S11313200E94940E0E9488000E941D0B0E942B0BA9
S113133078940E94950080932F07109230071092A2
S11313403107109232071092330785E397E00E9429
S11313504201809334070E948F0BCE0101960E94B4
S1131360EC0B811104C084E194E00E9478090E948E
S1131370FC0B811104C088E294E00E94780981E0AA
S11313800E94770B298140912F076091340785E3F0
S113139097E00E94810D6091340780912F070E948D
S11313A0C50A0E9443110F90DF91CF9108950F93C6
S11313B01F93CF93DF93CDB7DEB762970FB6F89440
S11313C0DEBF0FBECDBF0E944F110E94670947E6E2
S11313D059E0BE016F5F7F4F85E397E00E94760876
S11313E0811118C082E394E00E94BE0F609130071F
S11313F07091310780913207909133070E94371022
S11314008EEF96E00E94BE0F82E00E94770B0E944E
S1131410A9072FC081E00E94770B0E949B0740918F
S113142030075091310760913207709133078E0174
S11314300F5F1F4F2091340780912F070E94E50D05
S11314408091300790913107A0913207B091330712
S11314500196A11DB11D8093300790933107A0938D
S11314603207B09333079BB180E289278BB90E947E
S11314704F1162960FB6F894DEBF0FBECDBFDF9159
S1131480CF911F910F910895813029F0823031F46A
S113149086E091E0089580E091E008958CE091E089
S11314A00895CF93DF93D82FC62F83E594E00E944D
S11314B0BE0F8D2F90E00E94E00F82E694E00E9420
S11314C0BE0F8BE694E00E94BE0F89E794E00E9471
S11314D0BE0F81E090E00E94E00F81E894E00E945A
S11314E0BE0F8DE894E00E94BE0F8FE894E00E9446
S11314F0BE0F84E994E00E94BE0F85EA94E00E9446
S1131500BE0F8BEA94E00E94BE0F87EB94E00E942A
S1131510BE0F80EC94E00E94BE0F8BEC94E00E941E
S1131520BE0F8AE091E00E94E00F83ED94E00E94F8
S1131530BE0F8AE090E00E94E00F89ED94E00E94E3
S1131540BE0F81E090E00E94E00F86EE94E00E94DE
S1131550BE0F8C2F0E94440A0E94BE0F8CEE94E0B2
S11315600E94BE0F89EF94E00E94BE0F85E095E0D3
S11315700E94BE0F82E195E00E94BE0F8EEF96E0BE
S11315800E94BE0FDF91CF910895CF93DF93D82FA0
S1131590C62F8BE195E00E94BE0F8BE694E00E947B
S11315A0BE0F8BE295E00E94BE0F81E090E00E94A6
S11315B0E00F81E894E00E94BE0F8DE894E00E9461
S11315C0BE0F85EA94E00E94BE0F8BEA94E00E946D
S11315D0BE0F87EB94E00E94BE0F80EC94E00E9463
S11315E0BE0F86E395E00E94BE0F8D2F90E00E940F
S11315F0E00F86EE94E00E94BE0F8C2F0E94440AF6
S11316000E94BE0F80E495E00E94BE0F89EF94E033
S11316100E94BE0F85E095E00E94BE0F82E195E036
S11316200E94BE0F8EEF96E00E94BE0FDF91CF9115
S113163008958BB18F718BB908958AB1806E8AB980
S11316400E94190B1092700710926F0710926E0788
S113165010926D0708950E94190B8BB180628BB9AB
S11316608FE59AEE0197F1F700C000000E94190B74
S11316708FE295E70197F1F700C000008BB1806419
S11316808BB98FE59AEE0197F1F700C000000E9434
S1131690190B8FE295E70197F1F700C000008BB1B9
S11316A080688BB98FE59AEE0197F1F700C00000CE
S11316B00E94190B8FE295E70197F1F700C0000033
S11316C08BB1806E8BB99FE926E881E09150204070
S11316D08040E1F700C000000E94190B10927007CF
S11316E010926F0710926E0710926D0708959091F3
S11316F07007981799F08093700710926E07811104
S113170004C08BB18F7B8BB90895813021F48BB1E8
S113171080648BB908958BB18F7B8BB908959091B8
S11317206F07981769F080936F0710926D078130E7
S113173021F48BB180688BB908958BB18F778BB905
S1131740089580917007813021F48BB180648BB946
S113175013C0811104C08BB18F7B8BB90DC08091F4
S11317606E078F5F80936E07823030F010926E07A1
S11317709BB180E489278BB980916F07811104C0E4
S11317808BB18F778BB90895813021F48BB1806848
S11317908BB9089580916D078F5F80936D078530B5
S11317A028F010926D078BB180588BB9089590E0A2
S11317B0982F8827862B0895CF93462F682F85E38B
S11317C00E94A00EC82F811103C00E94B70701C058
S11317D0C1E08C2FCF910895CF93AC016DE085E3E8
S11317E00E94D40EC82F811103C00E94B70701C004
S11317F0C1E08C2FCF91089560E080E00E94DC0B63
S11318008823C1F060E081E00E94DC0B882391F022
S113181064E782E00E94DC0B882361F063E083E0EC
S11318200E94DC0B882331F061E087E00E94DC0B2E
S1131830811181E00895EF92FF921F93CF93DF937C
S1131840CDB7DEB729970FB6F894DEBF0FBECDBF74
S11318507C0140E06DE885E30E94A00E182F811101
S113186003C00E94B70733C081EE94E00197F1F7FB
S113187000C0000029E0AE014F5F5F4F60E185E3E7
S11318800E94170F182F811103C00E94B7071FC0B1
S11318906A8189810E94D70BF701918380836C81CF
S11318A08B810E94D70BF701938382836E818D8194
S11318B00E94D70BF7019583848368858F810E94EA
S11318C0D70BF701978386838985808711E0812F61
S11318D029960FB6F894DEBF0FBECDBFDF91CF912E
S11318E01F91FF90EF9008953F924F925F926F92F5
S11318F07F928F929F92AF92BF92CF92DF92EF929C
S1131900FF920F931F93CF93DF93CDB7DEB72901D7
S11319103A01382C8C889D889B01AC0124563444B0
S113192041095109A8EEB3E00E94B21129E532E061
S113193040E050E00E948411DA01C9018C53964FB3
S1131940AF4FBF4FF40180839183A283B383A8EE8A
S1131950B7E6A30192010E94B2112B013C01992325
S113196034F4FFEF4F0EFFE75F1E611C711CD301BF
S1131970C201072E7FE0B595A795979587957A952F
S1131980D1F7702DF40184839583A683B783A8EEE1
S1131990B7E6A80197010E94B2118B019C0199231B
S11319A024F4015010482F4F3F4FD901C801072E8E
S11319B07FE0B595A795979587957A95D1F7702D82
S11319C0F40180879187A287B387A8EEB7E6A601C2
S11319D095010E94B2118B019C01992324F40150BA
S11319E010482F4F3F4FD901C801072E7FE0B5950E
S11319F0A795979587957A95D1F7702DF4018487EB
S1131A009587A687B787308ADF91CF911F910F9171
S1131A10FF90EF90DF90CF90BF90AF909F908F900A
S1131A207F906F905F904F903F900895813029F0A0
S1131A30823031F486E091E0089580E091E00895E9
S1131A408CE091E008951F93CF93DF93EC01162F60
S1131A508EE495E00E94BE0F812F0E94160D0E9415
S1131A60BE0F8BE595E00E94BE0F8C819D810E9484
S1131A70E00F85E695E00E94BE0F68A979A98AA9BE
S1131A809BA90E9437108EEF96E00E94BE0F8FE64E
S1131A9095E00E94BE0F688579858A859B850E94A2
S1131AA098108DE795E00E94BE0F6C857D858E852C
S1131AB09F850E9498108CE895E00E94BE0F68896B
S1131AC079898A899B890E9498108EEF96E00E94FA
S1131AD0BE0FDF91CF911F9108950E94A30F089527
S1131AE0CF93DF93EC018BE995E00E94BE0FCE010A
S1131AF00E94BE0F8EEF96E00E94BE0FDF91CF9141
S1131B000895FF920F931F93CF93DF938C01F62ECA
S1131B10C42FD22F82EA95E00E94BE0F8BE694E098
S1131B200E94BE0F80EC95E00E94BE0F8BEE95E004
S1131B300E94BE0F8AE090E00E94E00F8CEF95E0D7
S1131B400E94BE0F84E690E00E94E00F81E196E0DF
S1131B500E94BE0F88EC94E00E94BE0F81E296E0E2
S1131B600E94BE0F8AE091E00E94E00F8EEF96E0A3
S1131B700E94BE0F6F2DC8010E94230D81E396E0E1
S1131B800E94BE0F8D2F0E94CB0F83E496E00E942B
S1131B90BE0F8C2F90E00E94E00F8DE596E00E942E
S1131BA0BE0F0E945F078CE696E00E94BE0F0E9463
S1131BB056070E94371089E796E00E94BE0FDF9116
S1131BC0CF911F910F91FF9008958F929F92AF92A2
S1131BD0BF92EF92FF920F931F93CF93DF93E82E60
S1131BE04A015B01F22EE80184E996E00E94BE0FEF
S1131BF08BE694E00E94BE0F84E993E00E94BE0F3E
S1131C008E2D90E00E94E00F8DE494E00E94BE0FC0
S1131C10C501B4010E94371083ED94E00E94BE0F09
S1131C20898990E00E94E00F86EE94E00E94BE0F46
S1131C308F2D0E94160D0E94BE0F80EA96E00E942E
S1131C40BE0F688179818A819B810E94981084EA01
S1131C5096E00E94BE0F6C817D818E819F810E94DF
S1131C60981089EA96E00E94BE0F688579858A8576
S1131C709B850E9498108EEA96E00E94BE0F6C85A8
S1131C807D858E859F850E94981083EB96E00E9447
S1131C90BE0F88890E94CB0F8EEF96E00E94BE0F84
S1131CA0DF91CF911F910F91FF90EF90BF90AF9074
S1131CB09F908F90089584EA8093DC008091DC00EB
S1131CC08823E4F78091D900887F883021F080311F
S1131CD021F481E0089581E0089580E0089584E985
S1131CE08093DC0008958093DB0084E88093DC001B
S1131CF08091DC008823E4F78091D900887F0895DF
S1131D0084EC8093DC008091DC008823E4F78091EC
S1131D10DB00089584E88093DC008091DC00882354
S1131D20E4F78091DB0008958EB183608EB9109240
S1131D30D90082E08093D80084E08093DC00089589
S1131D400F931F93CF93DF93D82F162F042F0E9446
S1131D505B0EC82F811103C00E946F0E1FC08D2F10
S1131D60880F0E94730E883121F00E946F0EC0E02C
S1131D7015C0812F0E94730E883221F00E946F0ECD
S1131D80C0E00CC0802F0E94730E883221F00E94A4
S1131D906F0EC0E003C00E946F0EC1E08C2FDF9174
S1131DA0CF911F910F910895EF92FF921F93CF93BC
S1131DB0DF93D82F162F7A010E945B0EC82F811152
S1131DC003C00E946F0E2CC0DD0F8D2F0E94730E76
S1131DD0883121F00E946F0EC0E022C0812F0E9442
S1131DE0730E883221F00E946F0EC0E019C00E9469
S1131DF05B0EC82F811103C00E946F0E11C08D2F7E
S1131E0081600E94730E803421F00E946F0EC0E046
S1131E1007C00E948A0EF70180830E946F0EC1E002
S1131E208C2FDF91CF911F91FF90EF900895EF9247
S1131E30FF920F931F93CF93DF93222309F448C09B
S1131E40C22F7A01062F182F0E945B0ED82F811102
S1131E5003C00E946F0E3DC0110F812F0E94730EAC
S1131E60883121F00E946F0ED0E033C0802F0E9491
S1131E70730E883221F00E946F0ED0E02AC00E94B7
S1131E805B0ED82F811103C00E946F0E22C0812FD8
S1131E9081600E94730E8034A1F00E946F0ED0E026
S1131EA018C087010D0F111D8FEF8C0FD81303C0BD
S1131EB00E948A0E02C00E94800EF8018083DF5FB8
S1131EC001C0D0E0DC1768F30E946F0ED1E001C0BE
S1131ED0D0E08D2FDF91CF911F910F91FF90EF9064
S1131EE008951F920F920FB60F9211242F938F9380
S1131EF09F93EF93FF938091C0009091C6008C71E3
S1131F0021F081E08093520814C0809154088F5FBF
S1131F108F7720915308821304C081E08093520884
S1131F2008C0E0915408F0E0EE52F84F908380939B
S1131F305408FF91EF919F918F912F910F900FBEB5
S1131F400F901F9018958AB18E7F8AB98BB18160EA
S1131F508BB91092C5008CE08093C4001092C0002D
S1131F6088E98093C10086E08093C200089590912F
S1131F70C00095FFFCCF8093C6000895CF93DF93F4
S1131F80EC0103C021960E94B70F88818111FACF1A
S1131F90DF91CF910895CF93C82FE82FE295EF708A
S1131FA0F0E0E254F94F80810E94B70FCF70EC2F1C
S1131FB0F0E0E254F94F80810E94B70FCF91089569
S1131FC01F93CF93DF9300D000D01F92CDB7DEB71D
S1131FD0AC01892B91F580E30E94B70F3FC09A01B1
S1131FE0ADECBCEC0E94A3119695879596958795C8
S1131FF0969587959C01220F331F880F991F880F90
S1132000991F880F991F820F931F9A01281B390B60
S1132010C901805DE1E0F0E0EC0FFD1FE10FF11D6F
S113202080839A010E94A311AC0156954795569559
S11320304795569547951F5F01C010E0411551051E
S113204071F60AC01150E1E0F0E0EC0FFD1FE10F62
S1132050F11D80810E94B70F1111F4CF0F900F90E2
S11320600F900F900F90DF91CF911F9108951F93C0
S1132070CF93DF93CDB7DEB72A970FB6F894DEBFC0
S11320800FBECDBF6115710581059105C1F480E3D3
S11320900E94B70F27C02AE030E040E050E00E94E1
S11320A06211605DE1E0F0E0EC0FFD1FE10FF11D56
S11320B06083622F732F842F952F1F5F01C010E060
S11320C0611571058105910531F70AC01150E1E0F0
S11320D0F0E0EC0FFD1FE10FF11D80810E94B70FAE
S11320E01111F4CF2A960FB6F894DEBF0FBECDBF00
S11320F0DF91CF911F910895CF92DF92EF92FF92DB
S11321006B017C0199235CF48DE20E94B70FF0947B
S1132110E094D094C094C11CD11CE11CF11CC701F3
S1132120B6010E943710FF90EF90DF90CF90089592
S1132130CF92DF92EF92FF92CF93DF936B017C01FA
S113214099235CF48DE20E94B70FF094E094D0944C
S1132150C094C11CD11CE11CF11CC701B60124E6CA
S113216030E040E050E00E948411D62FCA01B9014A
S11321700E9437108EE20E94B70FCDECDC9FC12D78
S11321801124C695C695C69580E38C0F0E94B70F9F
S1132190CC0F8C2F880F880FC80F8D2F8C1B805D60
S11321A00E94B70FDF91CF91FF90EF90DF90CF9017
S11321B00895DC015AC0E0915308F0E0EE52F84F64
S11321C08081909153089F5F9F77909353088D303F
S11321D011F08A3039F5E091D107EE2309F445C0B6
S11321E0F0E0EF58F84F108290E005C0FD01E20FD7
S11321F0F31F40839F5F292F30E0F9013196462F6A
S113220050E0E417F50730F4F901EF58F84F408136
S11322104111ECCFFD01E20FF31F10821092D107A0
S113222081E00895883011F08F3741F48091D1070F
S11322308823D9F081508093D10717C0E091D1074A
S11322402E2F30E02F5F3F4F2036310548F491E0C8
S11322509E0F9093D107F0E0EF58F84F808305C0AC
S11322601092D10781E08093520890915308809195
S113227054089813A0CF80E00895809152080895DF
S113228010925208089598E288E10FB6F894A89540
S1132290809360000FBE90936000A8950895A89560
S11322A008958FEC96E00E94BE0FF8949EE088E1BA
S11322B00FB6F894A895809360000FBE90936000C9
S11322C07894FFCFA1E21A2EAA1BBB1BFD010DC0FF
S11322D0AA1FBB1FEE1FFF1FA217B307E407F507D2
S11322E020F0A21BB30BE40BF50B661F771F881FAE
S11322F0991F1A9469F760957095809590959B0144
S1132300AC01BD01CF010895052E97FB1EF4009486
S11323100E949B1157FD07D00E94621107FC03D055
S11323204EF40C949B1150954095309521953F4F58
S11323304F4F5F4F089590958095709561957F4FAD
S11323408F4F9F4F0895A29FB001B39FC001A39FD9
S1132350700D811D1124911DB29F700D811D1124DA
S1132360911D08950E94A311A59F900DB49F900DF7
S1132370A49F800D911D11240895DF93CF931F9383
S11323800F939A9DF02D219FF00D8B9DF00D8A9D4A
S1132390E02DF10D039FF00D029FE00DF11D4E9D08
S11323A0E00DF11D5E9DF00D4F9DF00D7F936F9339
S11323B0BF92AF925F934F93D5010E94A3118B01FB
S11323C0AC01D7010E94A311EB01E80FF91FD6015C
S11323D00E940D122F913F91D6010E94A311C60FA6
S11323E0D71FE81FF91FAF91BF910E940D122F91C3
S11323F03F910E94A311C60FD71FE81FF91FD601F2
S11324000E94A311E60FF71F9801BE01CF0111240A
S11324100F911F91CF91DF9108950E94A311460F50
S1132420571FC81FD91F08F431960895689401C036
S1132430E894F92FF12B12F00C944A12A0E0B0E0CA
S1132440E4E2F2E10C94BC12092E059422F40E94F9
S1132450A612112392F4F0E80F26FFEFE094F09413
S113246000951095B094C094D094A194BF0ACF0A5B
S1132470DF0AEF0AFF0A0F0B1F0B0E94551207FC1D
S11324800E94A612CDB7DEB7ECE00C94D812689483
S113249001C0E8948F929F92CF93DF930E945512CC
S11324A0DF91CF919F908F90089588249924F4010F
S11324B0E401B0E49F93AA279A158B049C04ED05CC
S11324C0FE05CF05D007A10798F4AD2FDC2FCF2F41
S11324D0FE2FE92D982C892E982F872F762F652F84
S11324E0542F432F322F2227B85031F7BF9127C0E2
S11324F01B2EBF91BB27220F331F441F551F661F7E
S1132500771F881F991F881C991CEE1FFF1FCC1F63
S1132510DD1FAA1FBB1F8A149B04EC05FD05CE0515
S1132520DF05A007B10748F08A189B08EC09FD09EC
S1132530CE09DF09A00BB10B21601A94E1F62EF449
S11325409401AF01BE01CD01000C08956095709512
S11325508095909530954095509521953F4F4F4FDC
S11325605F4F6F4F7F4F8F4F9F4F08952F923F9232
S11325704F925F926F927F928F929F92AF92BF928F
S1132580CF92DF92EF92FF920F931F93CF93DF933B
S1132590CDB7DEB7CA1BDB0B0FB6F894DEBF0FBE98
S11325A0CDBF09942A88398848885F846E847D84E5
S11325B08C849B84AA84B984C884DF80EE80FD80E7
S11325C00C811B81AA81B981CE0FD11D0FB6F8945D
S11325D0DEBF0FBECDBFED0108950024A7FD00941A
S11325E02A173005400550056005700580059005E3
S11325F00895A0E0B0E0EFEFF2E10C94B7125C01B3
S11326006B017A016115710519F0FB0191838083D7
S1132610E114F10429F0C7010297839708F0E5C09B
S1132620E5012196F5011081812F90E00E940415A7
S1132630892B11F05E01F4CF1D3229F42196F501A6
S1132640118101E007C01B3221F4E5012296F50156
S1132650118100E0E114F10409F1F0E1EF16F10455
S113266029F43FC010E3E114F10421F128E0E2165B
S1132670F10401F154F4E2E0EE16F10421F5812CA9
S1132680912CA12CB0E4BB2E3EC0FAE0EF16F1046D
S113269039F020E1E216F104B1F430C0103319F13D
S11326A0FAE0EF2EF12CACEC8A2E982CA82CACE09E
S11326B0BA2E29C078E0E72EF12C812C912CA12C84
S11326C0E0E1BE2E20C060E070E080E090E8970179
S11326D00F2C000C440B550B0E94621149015A0146
S11326E012C0103359F488818F7D883509F0BACF30
S11326F019812296026080E1E82EF12C812C912C24
S1132700A12C68E0B62E40E060E070E0CB01270128
S11327100F2C000C66087708FE0150ED352E310EA3
S113272029E0231570F42FEB210F2A3118F439EC2A
S1132730332E06C02FE9210F2A3118F529EA322E4B
S1132740310E232D30E02E153F05DCF447FD16C075
S113275086169706A806B90670F0A30192010E9496
S11327609D15630D711D811D911D613071058105DC
S113277020E8920710F04FEF01C041E0219610814C
S1132780CBCF202F2170C114D10471F0442329F040
S11327902197F601D183C08307C001FF19C0229796
S11327A0F601D183C08314C047FF12C0222329F04D
S11327B060E070E080E090E804C06FEF7FEF8FEF9F
S11327C09FE722E230E0309356082093550809C071
S11327D0222381F090958095709561957F4F8F4F5E
S11327E09F4F462F372F282F12C040E030E020E0C3
S11327F090E00DC097FFF5CF82E290E090935608E9
S1132800809355086FEF7FEF8FEF9FE7EACF642F38
S1132810732F822FCDB7DEB7E1E10C94D312A0E081
S1132820B0E0E5E1F4E10C94B7125C016B017A01CC
S11328306115710519F0FB0191838083E114F104A2
S113284029F0C7010297839708F0C9C0E5012196D2
S1132850F5011081812F90E00E940415892B11F05D
S11328605E01F4CF1D3229F42196F501118101E0B6
S113287007C01B3221F4E5012296F501118100E025
S1132880E114F104B1F0F0E1EF16F10429F4B0C061
S113289010E3E114F10401F12AE0E216F104B1F1CC
S11328A080E1E816F10471F0E8E0EE16F104F1F4C9
S11328B013C0103341F588818F7D883549F719811C
S11328C022960260F0E1EF2EF12C88248A94982C51
S11328D0A82CAFE0BA2E20C078E0E72EF12C882493
S11328E08A94982CA82CEFE1BE2E16C06FEF7FEFD0
S11328F0CB0197010F2C000C440B550B0E94621165
S113290049015A0109C08AE0E82EF12C69E9862EB2
S1132910982CA82C69E1B62E40E060E070E0CB0171
S113292027010F2C000C66087708FE0150ED352EA8
S1132930310E29E0231570F42FEB210F2A3118F4FE
S113294039EC332E06C02FE9210F2A3130F529EA5C
S1132950322E310E232D30E02E153F05F4F44F3F77
S1132960C9F086169706A806B90688F0A301920155
S11329700E949D15232D30E040E050E0620F731F4C
S1132980841F951F621773078407950710F44FEF90
S113299001C041E021961081C8CFC114D10451F087
S11329A0442311F0219703C001FF04C02297F601CC
S11329B0D183C08300FF07C0909580957095619581
S11329C07F4F8F4F9F4F4F3F79F482E290E0909377
S11329D05608809355083FEF2FEF9FEF0DC040E05E
S11329E030E020E090E008C0462F372F282F04C0A5
S11329F0103309F067CF5FCF642F732F822FCDB7C9
S1132A00DEB7E1E10C94D31291110C945615803287
S1132A1019F089508550C8F7089542E057E00E94A4
S1132A202F150895FB01DC0104C08D9101908019DC
S1132A3021F441505040C8F7881B990B0895DC01DC
S1132A4001C06D9341505040E0F70895FB01DC0153
S1132A508D91019080190110D9F3990B0895FA0111
S1132A60A191B081009719F41097E1F0CD01DC0138
S1132A70CD010D90002011F4C00113C0FB01219180
S1132A80222319F02015D9F7F3CFFB01219120154A
S1132A9019F41E92119606C02223C1F70D9000204E
S1132AA0A1F7D001FA01A193B0830895992788274B
S1132AB00895DC01CB01FC01F999FECF06C0F2BDFB
S1132AC0E1BDF89A319600B40D9241505040B8F7E8
S1132AD00895A6E1B0E044E050E00C945B15DC01FD
S1132AE0A40FB51F4150504048F0CB01840F951FEF
S1132AF02E910E94801541505040D0F70895262F02
S1132B00F999FECF92BD81BDF89A019700B40216DF
S1132B1039F01FBA20BD0FB6F894FA9AF99A0FBE8D
S1132B2008950396272F0E9480150E947F15252F54
S1132B300E948015242F0C948015DB018F939F93A2
S1132B400E94B211BF91AF91A29F800D911DA39FCE
S1112B50900DB29F900D11240895F894FFCFBC
S1132B5E56414C4944004449525459004445464157
S1132B6E554C5400244E443238305253502C455256
S1132B7E524F522C524541534F4E3D00244E443237
S1132B8E38305253502C4F4B2C434D443D00244E61
S1132B9E4432383043414C2C53544154453D002C5F
S1132BAE434F554E543D002C4F583D002C4F593D2C
S1132BBE002C4F5A3D002C47583D002C47593D00E0
S1132BCE2C475A3D002C4E583D002C4E593D002C9E
S1132BDE4E5A3D002C5443414C3D00200048454C78
S1132BEE5000244E443238305253502C434F4D4DE6
S1132BFE414E44533D48454C507C494E464F7C49CA
S1132C0E44454E544954597C444941477C444941B6
S1132C1E472057445420544553547C43414C20522E
S1132C2E4541447C43414C204F46465345542078FD
S1132C3E2079207A7C43414C204741494E2078200C
S1132C4E79207A7C43414C204E4F495345207820BD
S1132C5E79207A7C43414C2054454D5020747C435A
S1132C6E414C20534156457C43414C2052455345DB
S1132C7E540D0A00494E464F004944454E5449549A
S1132C8E5900444941470057445400544553540095
S1132C9E4241445F444941475F5744545F434F4D5B
S1132CAE4D414E4400554E4B4E4F574E5F44494195
S1132CBE475F535542434F4D4D414E440043414CA3
S1132CCE00554E4B4E4F574E5F434F4D4D414E4464
S1132CDE004D495353494E475F43414C5F53554250
S1132CEE434F4D4D414E44004241445F4F4646537F
S1132CFE45545F415247554D454E54530043414C44
S1132D0E5F4F4646534554004241445F4741494E46
S1132D1E5F415247554D454E54530043414C5F4716
S1132D2E41494E004241445F4E4F4953455F415223
S1132D3E47554D454E54530043414C5F4E4F4953F6
S1132D4E45004241445F54454D505F415247554DF5
S1132D5E454E540043414C5F54454D500043414C45
S1132D6E5F5341564500454550524F4D5F564552AF
S1132D7E4946595F4641494C45440043414C5F52D4
S1132D8E4553455400554E4B4E4F574E5F43414CA1
S1132D9E5F535542434F4D4D414E4400554152549D
S1132DAE5F52585F4F564552464C4F5700504F573F
S1132DBE45525F4F4E0045585445524E414C0042C9
S1132DCE524F574E5F4F5554005741544348444F4A
S1132DDE4700554E4B4E4F574E00244E443238301A
S1132DEE444941472C49443D002C555054494D45C6
S1132DFE5F533D002C424F4F54533D002C4D4541E3
S1132E0E535F4F4B3D002C4D4541535F4641494C5A
S1132E1E3D002C5457495F4552523D002C554152AA
S1132E2E545F434D443D002C554152545F4F56461A
S1132E3E3D002C454550524F4D5F4552523D002C9E
S1132E4E5744545F5245534554533D002C524553F9
S1132E5E45543D002C52455345545F464C4147530F
S1132E6E3D307800544D41475F4445564943455FD4
S1132E7E49445F5245414400544D41475F494E49D0
S1132E8E54004552524F522C544D41475F4E4F5FA2
S1132E9E56414C49445F53414D504C45532C534578
S1132EAE513D00244E44323830494E464F2C49444D
S1132EBE3D002C4E4F44454F533D00302E352E329F
S1132ECE2D616C7068613161002C50524F544F3D2E
S1132EDE002C424F4152445F5245563D0041002C56
S1132EEE48573D00544D4147204465627567204262
S1132EFE6F617264002C4D43553D0041546D6567FE
S1132F0E613332385042002C53454E534F523D00DC
S1132F1E544D4147353237334132002C52414E47DE
S1132F2E453D002C4156473D002C454550524F4DD2
S1132F3E5F5645523D002C43414C3D002C425549B1
S1132F4E4C445F444154453D004A756C2031352054
S1132F5E32303236002C4255494C445F54494D456B
S1132F6E3D0031333A32323A3433004E4F44454FFA
S1132F7E535F56455253494F4E3D002C50524F54B9
S1132F8E4F434F4C3D002C4E4F44455F49443D004A
S1132F9E0D0A4255494C445F444154453D0043415A
S1132FAE4C4942524154494F4E3D002C56455253C2
S1132FBE494F4E3D002C434F554E5445523D004310
S1132FCE414C5F4F46465345545F583D002C434198
S1132FDE4C5F4F46465345545F593D002C43414C7C
S1132FEE5F4F46465345545F5A3D004552524F5229
S1132FFE2C000D0A4E44323830204D61676E6574D4
S113300E6963204669656C64204E6F6465207600A2
S113301E0D0A55415254303D343830302C52585FDD
S113302E434F4D4D414E44533D4F4E2C5457493111
S113303E3D5045302F5045310D0A00415645524101
S113304E47455F53414D504C45533D002C53414D24
S113305E504C455F494E54455256414C5F4D533D7D
S113306E000D0A544D41475F56415249414E543D5D
S113307E002C544D41475F52414E47455F4D543DE0
S113308E00544D41475F4445564943455F49443DCD
S113309E3078000D0A544D41475F494E49543D4F17
S11330AE4B0D0A424F4152445F49443D000D0A52B2
S11330BE455345545F43415553453D002C424F4FB4
S11330CE545F434F554E543D000D0A5459504520FC
S11330DE48454C5020464F5220434F4D4D414E448F
S11330EE530D0A00244E443238302C5645523D00BE
S11330FE2C543D002C42583D002C42593D002C428C
S113310E5A3D002C5354415455533D3078003031C0
S113311E3233343536373839414243444546002438
S113312E4E443238305253502C4F4B2C434D443D69
S113313E444941475F5744545F544553542C5245B8
S113314E5345545F494E5F4D533D313030300D0A77
S105315E00006B
S9030000FC
