S01700004763634170706C69636174696F6E312E737265635B
S11300000C945A000C9477000C9477000C947700AD
S11300100C9477000C9477000C9477000C94770080
S11300200C9477000C9477000C9477000C94770070
S11300300C9477000C9477000C9477000C94770060
S11300400C9477000C9477000C941B0C0C947700A0
S11300500C9477000C9477000C9477000C94770040
S11300600C9477000C9477000C9477000C94770030
S11300700C9477000C9477000C9477000C94770020
S11300800C9477000C9477000C9477000C94770010
S11300900C9477000C9477000C9477000C94770000
S11300A00C9477000C9477000C9477000C947700F0
S11300B00C94770011241FBECFEFD8E0DEBFCDBF74
S11300C014E0A0E0B1E0E4E3F4E202C005900D9294
S11300D0A03EB107D9F726E0A0EEB4E001C01D921E
S11300E0AA30B207E1F70E9432060C9418120C945D
S11300F0000087B1807F87B98AB18B7F8AB988B1C4
S1130100807F88B98BB18B7F8BB90895309902C0F9
S113011080E001C081E03199826032998460339932
S113012088604A99806180958F7108954F925F929B
S11301306F927F92AF92BF92CF92DF92EF92FF9233
S11301400F931F93DC01CB01821B930BA40BB50B04
S11301502C013D01770C4408542C3201B801A7014D
S1130160770F440B542FBA01AE2CBF2CC02ED12EC6
S1130170E42EF42E042F142F282F392F4A2F5B2F0F
S1130180642D742D842D942D0E943A0EA0E00E94BB
S11301906A0F4CF0205E3E45484F5F4F6F4F7F4FD4
S11301A08F4F9F4F08C02052314A4740510961097F
S11301B07109810991096894AA24A6F80F2EF2E422
S11301C0BF2EF02D0F2EFFE0CF2EF02DD12CE12CE1
S11301D0F12C00E010E00E94950E622F732F842F03
S11301E0952F1F910F91FF90EF90DF90CF90BF90CC
S11301F0AF907F906F905F904F90089566E370E0AA
S11302000E940D060895CF93DF93EC0188E3FE016D
S113021011928A95E9F788E392E3A4E4BEE4888323
S11302209983AA83BB8381E090E09D838C8388E3D8
S113023090E09F838E8380E492E4AFE0B0E08C8B07
S11302409D8BAE8BBF8B888F998FAA8FBB8F8C8F22
S11302509D8FAE8FBF8FCE010E94FE009FAB8EABF1
S1130260DF91CF9108950F931F93CF93DF93EC0108
S113027048E350E060E070E00E94D61188819981E3
S1130280AA81BB8188339243A444BE4481F48C8107
S11302909D81019761F48E819F81C89741F40EA9D5
S11302A01FA9CE010E94FE000817190729F0CE01EC
S11302B00E94030180E001C081E0DF91CF911F9192
S11302C00F910895CF93DF93CDB7DEB7C057D1090F
S11302D00FB6F894DEBF0FBECDBFFC0198E3DE017C
S11302E0119601900D929A95E1F788E392E3A4E4C4
S11302F0BEE489839A83AB83BC8381E090E09E83D0
S11303008D8388E390E098878F83CE0101960E94C5
S1130310FE0098AF8FAB48E350E060E070E0CE01A0
S113032001960E94E61148E350E060E070E0CE01DF
S1130330C9960E94D61148E350E0BE01675C7F4F26
S1130340CE0101960E948F1121E0892B09F020E053
S1130350822FC059DF4F0FB6F894DEBF0FBECDBF5A
S1130360DF91CF910895CF93DF93CDB7DEB7E897B0
S11303700FB6F894DEBF0FBECDBF48E350E06FEF79
S113038070E0CE0101960E949C1148E350E060E0C9
S113039070E0CE0101960E94E611E8960FB6F8943B
S11303A0DEBF0FBECDBFDF91CF910895CF92DF9214
S11303B0EF92FF920F931F93CF93DF936C01EB01A6
S11303C0FC01E488F58806891789208531854285F2
S11303D053856C817D818E819F810E9496006C8300
S11303E07D838E839F83F601E08CF18C028D138DC7
S11303F02485358546855785688579858A859B85D5
S11304000E949600688779878A879B87F601E48C27
S1130410F58C068D178D20893189428953896C8525
S11304207D858E859F850E9496006C877D878E874B
S11304309F87DF91CF911F910F91FF90EF90DF90F5
S1130440CF900895813029F0823031F486E091E034
S1130450089580E091E008958CE091E00895CF93B1
S1130460DF93EC0184E191E00E945A0CCE010E94DA
S11304705A0C85E194E00E945A0CDF91CF910895C3
S1130480CF93DF93EC018CE291E00E945A0CCE01F1
S11304900E945A0C85E194E00E945A0CDF91CF919E
S11304A00895EF92FF920F931F93CF93DF9300D0A1
S11304B0CDB7DEB78C017B011A8219824AE050E085
S11304C0BE016F5F7F4F0E948C10E981FA810E1785
S11304D01F0751F02081211109C0F7016083718346
S11304E08283938381E003C080E001C080E00F90A9
S11304F00F90DF91CF911F910F91FF90EF9008958E
S1130500CF92DF92EF92FF920F931F93CF93DF93DB
S11305100097D9F061157105D1F041155105C9F065
S11305206A01EB01B9010E9451028823A1F0B801CC
S1130530CE010E945102882381F0B701C6010E94B6
S11305405102882361F081E00BC080E009C080E0A3
S113055007C080E005C080E003C080E001C080E007
S1130560DF91CF911F910F91FF90EF90DF90CF908B
S11305700895EF92FF920F931F93CF93DF9300D0D0
S1130580CDB7DEB78C017B011A8219824AE050E0B4
S1130590BE016F5F7F4F0E94760FE981FA810E17CB
S11305A01F0751F02081211109C0F7016083718375
S11305B08283938381E003C080E001C080E00F90D8
S11305C00F90DF91CF911F910F91FF90EF900895BD
S11305D0CF92DF92EF92FF920F931F93CF93DF930B
S11305E00097D9F061157105D1F041155105C9F095
S11305F06A01EB01B9010E94B9028823A1F0B80194
S1130600CE010E94B902882381F0B701C6010E947D
S1130610B902882361F081E00BC080E009C080E06A
S113062007C080E005C080E003C080E001C080E036
S1130630DF91CF911F910F91FF90EF90DF90CF90BA
S113064008951F93CF93DF93EC01162F8EE391E06F
S11306500E945A0C812F0E9422020E945A0C8BEA9B
S113066094E00E945A0C8C819D810E947C0C8FE442
S113067091E00E945A0C68A979A98AA99BA90E94B1
S1130680D30C87E591E00E945A0C688579858A85A8
S11306909B850E94180D8CE591E00E945A0C6C8594
S11306A07D858E859F850E94180D81E691E00E94CC
S11306B05A0C688979898A899B890E94180D86E673
S11306C091E00E945A0C6C897D898E899F890E94D1
S11306D0180D8BE691E00E945A0C688D798D8A8DF5
S11306E09B8D0E94180D80E791E00E945A0C6C8D3E
S11306F07D8D8E8D9F8D0E94180D85E791E00E945F
S11307005A0C68A179A18AA19BA10E94D30C8AE703
S113071091E00E945A0C6CA17DA18EA19FA10E9420
S1130720D30C8FE791E00E945A0C68A579A58AA59D
S11307309BA50E94D30C84E891E00E945A0C6CA5FE
S11307407DA58EA59FA50E94180D85E194E00E94C9
S11307505A0CDF91CF911F9108956F927F928F92DF
S11307609F92AF92BF92CF92DF92EF92FF920F933C
S11307701F93CF93DF93CDB7DEB72C970FB6F894C2
S1130780DEBF0FBECDBF6B015A01F22E6BE871E0E4
S11307900E948A118C01009709F4EFC16DE871E0A1
S11307A00E94A311892B29F482E991E00E945A0C3A
S11307B0E4C168E072E0C8010E94A311892BB9F575
S11307C08DE092E00E945A0C8F2D90E00E947C0CE8
S11307D08CE192E00E945A0C81E292E00E945A0C51
S11307E08EE292E00E945A0C85E392E00E945A0C39
S11307F088E392E00E945A0C8AE091E00E947C0C0B
S113080080E492E00E945A0C8AE090E00E947C0C02
S113081086E492E00E945A0CF50180810E94220233
S11308200E945A0C85E194E00E945A0CA6C16CE423
S113083072E0C8010E94A311892B29F080E592E09F
S11308400E942F029AC16BE871E080E090E00E9460
S11308508A118C01009729F480E692E00E942F020D
S11308608CC16BE473E00E94A311892B31F4F50170
S11308706081C6010E94210380C160E972E0C80161
S11308800E94A311892B09F049C06BE871E080E054
S113089090E00E948A113C016BE871E080E090E0F6
S11308A00E948A114C016BE871E080E090E00E94A4
S11308B08A119E012F5F3F4F79018E010B5F1F4FFD
S11308C0285F3F4FA301B4010E94E802811105C0D3
S11308D087E792E00E942F0250C189859A85AB85F3
S11308E0BC85F60180879187A287B3878D819E811D
S11308F0AF81B88584879587A687B78789819A81D0
S1130900AB81BC81808B918BA28BB38B82E0F50190
S113091080838CE892E00E9440022FC16EEA72E06C
S1130920C8010E94A311892B09F058C06BE871E03B
S113093080E090E00E948A113C016BE871E080E065
S113094090E00E948A114C016BE871E080E090E035
S11309500E948A119E012F5F3F4F79018E010B5F28
S11309601F4F285F3F4FA301B4010E94E802882370
S1130970D9F089859A85AB85BC85181619061A069F
S11309801B0694F44D815E816F81788514161506DB
S1130990160617064CF409811A812B813C81101626
S11309A01106120613062CF087E992E00E942F022A
S11309B0E4C0F601848B958BA68BB78B408F518F47
S11309C0628F738F048F158F268F378F82E0F50126
S11309D080838AEA92E00E944002CFC06BEC72E00E
S11309E0C8010E94A311892B09F049C06BE871E08A
S11309F080E090E00E948A113C016BE871E080E0A5
S1130A0090E00E948A114C016BE871E080E090E074
S1130A100E948A119E012F5F3F4F79018E010B5F67
S1130A201F4F285F3F4FA301B4010E948002811130
S1130A3005C083EB92E00E942F029FC089859A85AE
S1130A40AB85BC85F60180A391A3A2A3B3A38D813A
S1130A509E81AF81B88584A395A3A6A3B7A38981FA
S1130A609A81AB81BC8180A791A7A2A7B3A782E09A
S1130A70F501808387EC92E00E9440027EC067EE1D
S1130A8072E0C8010E94A311892B29F56BE871E07B
S1130A9080E090E00E948A11009739F0BE016F5FF8
S1130AA07F4F0E94B902811105C081ED92E00E943E
S1130AB02F0263C089819A81AB81BC81F60184A72E
S1130AC095A7A6A7B7A782E0F501808383EE92E0FD
S1130AD00E94400252C060EF72E0C8010E94A3115C
S1130AE0892B79F5F60180A991A9A2A9B3A9019648
S1130AF0A11DB11D80AB91ABA2ABB3ABC6010E94EB
S1130B006201882369F081E0F50180838CEE92E034
S1130B100E944002F5016081C6010E9421032DC09C
S1130B20F60180A991A9A2A9B3A90197A109B109C4
S1130B3080AB91ABA2ABB3AB85EF92E00E942F02E6
S1130B401CC06EE073E0C8010E94A311892B89F4D4
S1130B500E94B301C6010E940301F50110828AE0DC
S1130B6093E00E944002F5016081C6010E942103C6
S1130B7004C084E193E00E942F022C960FB6F894EF
S1130B80DEBF0FBECDBFDF91CF911F910F91FF90BC
S1130B90EF90DF90CF90BF90AF909F908F907F9019
S1130BA06F900895DF92EF92FF920F931F93CF936C
S1130BB0DF93CDB7DEB7C056D1090FB6F894DEBFC8
S1130BC00FBECDBF8C017B01D42E0E94D90D88238A
S1130BD071F00E94DC0D8BE293E00E942F0207C0AB
S1130BE02D2DA701B801CE0101960E94AD0360E648
S1130BF0CE0101960E94750D8111F2CFC05ADF4FCC
S1130C000FB6F894DEBF0FBECDBFDF91CF911F9119
S1130C100F91FF90EF90DF900895DC0140E050E0E9
S1130C208FEF9FEF1BC0FD01E40FF51F208130E023
S1130C30322F22278227932720E00CC099233CF4EB
S1130C40880F991F31E2832730E1932702C0880F70
S1130C50991F2F5F283090F34F5F5F4F4617570758
S1130C6010F308950E9445070E948C07FDCF2F9230
S1130C703F924F925F926F927F928F929F92AF9228
S1130C80BF92CF92DF92EF92FF920F931F93CF9375
S1130C90DF93CDB7DEB76A970FB6F894DEBF0FBE09
S1130CA0CDBF009709F4B6C06115710509F4B4C04D
S1130CB01A01788B6F879E8B8D8B10E000E01E8667
S1130CC0412C512C32011A861B861C861D86812CD0
S1130CD0912C5401C12CD12C760145C0CE01019632
S1130CE00E94DE08882399F189819A81092E000CDB
S1130CF0AA0BBB0BC80ED91EEA1EFB1E8B819C815E
S1130D00092E000CAA0BBB0B880E991EAA1EBB1E33
S1130D108D819E81092E000CAA0BBB0B2A853B8575
S1130D204C855D85280F391F4A1F5B1F2A873B8727
S1130D304C875D878F819885092E000CAA0BBB0B0D
S1130D40480E591E6A1E7B1E39853E870F5F21148B
S1130D50310411F0F101099587EA91E60197F1F761
S1130D6000C000001F5F1A3008F4B8CFAF85B889FF
S1130D7051960C93002309F451C0202F30E040E039
S1130D8050E0298B3A8B4B8B5C8BC301B2010E94E0
S1130D90010E2F8B388F498F5A8F6A857B858C85FE
S1130DA09D8529893A894B895C890E94010E2A878D
S1130DB03B874C875D87C501B40129893A894B89F2
S1130DC05C890E94010E29013A01C701B6012989F3
S1130DD03A894B895C890E94010ECA01B90138899C
S1130DE03F934F854F938E84AF88B88CC98CDA8C2F
S1130DF0EA84FB840C851D85A30192010E942C09C1
S1130E006F8578898D899E890E94D6010F900F90F5
S1130E1081E005C080E003C080E001C080E06A9604
S1130E200FB6F894DEBF0FBECDBFDF91CF911F91F7
S1130E300F91FF90EF90DF90CF90BF90AF909F9075
S1130E408F907F906F905F904F903F902F90089578
S1130E504091E20467EE74E088EE94E00E94D205CB
S1130E608091E7040E9467080E94790808950E940F
S1130E70280A82E00E944F080E9428078FE493EC1E
S1130E800197F1F700C00000F7CFCF93DF931F92D3
S1130E90CDB7DEB719820E94250A0E943E0B0E943C
S1130EA079000E94F5070E94030878940E94860046
S1130EB08093E2041092E3041092E4041092E50497
S1130EC01092E60488EE94E00E9433018093E704D4
S1130ED00E946708CE0101960E94B408811104C0E3
S1130EE08CE393E00E9437070E94BA08811104C082
S1130EF080E593E00E94370781E00E944F08298132
S1130F004091E2046091E70488EE94E00E94390A7B
S1130F100F90DF91CF9108950F931F93CF93DF9399
S1130F20CDB7DEB762970FB6F894DEBF0FBECDBF64
S1130F300E94280748E257E0BE016F5F7F4F88EEAA
S1130F4094E00E943706811116C08AE593E00E945E
S1130F505A0C6091E3047091E4048091E50490914B
S1130F60E6040E94D30C85E194E00E945A0C82E0CE
S1130F700E944F082BC081E00E944F084091E30477
S1130F805091E4046091E5047091E6048E010F5FD2
S1130F901F4F2091E7048091E2040E948F0A809100
S1130FA0E3049091E404A091E504B091E604019671
S1130FB0A11DB11D8093E3049093E404A093E50480
S1130FC0B093E6049BB180E289278BB962960FB691
S1130FD0F894DEBF0FBECDBFDF91CF911F910F916B
S1130FE008958BB18F718BB908958AB1806E8AB9D7
S1130FF00E94F107109223051092220510922105F8
S11310001092200508950E94F1078BB180628BB97C
S11310108FE59AEE0197F1F700C000000E94F107F6
S11310208FE295E70197F1F700C000008BB180646F
S11310308BB98FE59AEE0197F1F700C000000E948A
S1131040F1078FE295E70197F1F700C000008BB13B
S113105080688BB98FE59AEE0197F1F700C0000024
S11310600E94F1078FE295E70197F1F700C00000B5
S11310708BB1806E8BB99FE926E881E091502040C6
S11310808040E1F700C000000E94F10710922305A0
S11310901092220510922105109220050895909136
S11310A02305981799F08093230510922105811147
S11310B004C08BB18F7B8BB90895813021F48BB13F
S11310C080648BB908958BB18F7B8BB9089590910F
S11310D02205981769F0809322051092200581302B
S11310E021F48BB180688BB908958BB18F778BB95C
S11310F0089580912305813021F48BB180648BB9EC
S113110013C0811104C08BB18F7B8BB90DC080914A
S113111021058F5F80932105823030F010922105E4
S11311209BB180E489278BB980912205811104C089
S11311308BB18F778BB90895813021F48BB180689E
S11311408BB90895809120058F5F809320058530A9
S113115028F0109220058BB180588BB9089590E047
S1131160982F8827862B0895AC016DE085E30E94B3
S11311707E0B089540E060E085E30E944A0B8823DB
S1131180E1F040E061E085E30E944A0B8823A9F086
S113119044E762E085E30E944A0B882371F043E050
S11311A063E085E30E944A0B882339F041E067E05D
S11311B085E30E944A0B811181E008950F931F93E8
S11311C0CF93DF93CDB7DEB729970FB6F894DEBF80
S11311D00FBECDBF8C0140E06DE885E30E944A0B51
S11311E0882379F181EE94E00197F1F700C00000C3
S11311F029E0AE014F5F5F4F60E185E30E94C10BC0
S11312008823F9F06A8189810E94AF08F8019183EB
S113121080836C818B810E94AF08F8019383828361
S11312206E818D810E94AF08F8019583848368855F
S11312308F810E94AF08F801978386838985808710
S113124081E029960FB6F894DEBF0FBECDBFDF91C3
S1131250CF911F910F9108953F924F925F926F9299
S11312607F928F929F92AF92BF92CF92DF92EF9232
S1131270FF920F931F93CF93DF93CDB7DEB729016E
S11312803A01382C8C889D889B01AC012456344447
S113129041095109A8EEB3E00E942F0E29E532E07E
S11312A040E050E00E94010EDA01C9018C53964FD0
S11312B0AF4FBF4FF40180839183A283B383A8EE21
S11312C0B7E6A30192010E942F0E2B013C01992342
S11312D034F4FFEF4F0EFFE75F1E611C711CD30156
S11312E0C201072E7FE0B595A795979587957A95C6
S11312F0D1F7702DF40184839583A683B783A8EE78
S1131300B7E6A80197010E942F0E8B019C01992337
S113131024F4015010482F4F3F4FD901C801072E24
S11313207FE0B595A795979587957A95D1F7702D18
S1131330F40180879187A287B387A8EEB7E6A60158
S113134095010E942F0E8B019C01992324F40150D6
S113135010482F4F3F4FD901C801072E7FE0B595A4
S1131360A795979587957A95D1F7702DF401848781
S11313709587A687B787308ADF91CF911F910F9108
S1131380FF90EF90DF90CF90BF90AF909F908F90A1
S11313907F906F905F904F903F900895813029F037
S11313A0823031F486E091E0089580E091E0089580
S11313B08CE091E008951F93CF93DF93EC01162FF7
S11313C08BE793E00E945A0C812F0E94CE090E9461
S11313D05A0C88E893E00E945A0C8C819D810E94EB
S11313E07C0C82E993E00E945A0C68A979A98AA925
S11313F09BA90E94D30C85E194E00E945A0C8CE9CD
S113140093E00E945A0C688579858A859B850E94A1
S1131410340D8AEA93E00E945A0C6C857D858E8592
S11314209F850E94340D89EB93E00E945A0C6889D1
S113143079898A899B890E94340D85E194E00E9410
S11314405A0CDF91CF911F9108950E94450C089585
S1131450CF93DF93EC0188EC93E00E945A0CCE0109
S11314600E945A0C85E194E00E945A0CDF91CF91BE
S11314700895FF920F931F93CF93DF938C01F62E61
S1131480C42FD22F8FEC93E00E945A0C81E292E099
S11314900E945A0C8DEE93E00E945A0C88E194E06D
S11314A00E945A0C8AE090E00E947C0C89E294E04D
S11314B00E945A0C84E690E00E947C0C8EE394E037
S11314C00E945A0C85E392E00E945A0C8EE494E048
S11314D00E945A0C8AE091E00E947C0C85E194E021
S11314E00E945A0C6F2DC8010E94DB098EE594E01E
S11314F00E945A0C8D2F0E94670C80E794E00E9492
S11315005A0C8C2F90E00E947C0C8AE894E00E9494
S11315105A0CDF91CF911F910F91FF9008958F92F4
S11315209F92AF92BF92EF92FF920F931F93CF932C
S1131530DF93E82E4A015B01F22EE80185EA94E08C
S11315400E945A0C81E292E00E945A0C87E192E0D8
S11315500E945A0C8E2D90E00E947C0C85E793E04B
S11315600E945A0CC501B4010E94D30C80E492E09D
S11315700E945A0C898990E00E947C0C86E492E0D7
S11315800E945A0C8F2D0E94CE090E945A0C81EBA6
S113159094E00E945A0C688179818A819B810E941F
S11315A0340D85EB94E00E945A0C6C817D818E8110
S11315B09F810E94340D8AEB94E00E945A0C688546
S11315C079858A859B850E94340D8FEB94E00E9477
S11315D05A0C6C857D858E859F850E94340D84EC24
S11315E094E00E945A0C88890E94670C85E194E07B
S11315F00E945A0CDF91CF911F910F91FF90EF90B1
S1131600BF90AF909F908F90089584EA8093DC0000
S11316108091DC008823E4F78091D900887F8830AA
S113162021F0803121F481E0089581E0089580E083
S1131630089584E98093DC0008958093DB0084E8B6
S11316408093DC008091DC008823E4F78091D9004A
S1131650887F089584EC8093DC008091DC008823EB
S1131660E4F78091DB00089584E88093DC008091A6
S1131670DC008823E4F78091DB0008958EB1836059
S11316808EB91092D90082E08093D80084E08093D0
S1131690DC0008950F931F93CF93DF93D82F162F59
S11316A0042F0E94050BC82F811103C00E94190B3F
S11316B01FC08D2F880F0E941D0B883121F00E94BE
S11316C0190BC0E015C0812F0E941D0B883221F038
S11316D00E94190BC0E00CC0802F0E941D0B8832A1
S11316E021F00E94190BC0E003C00E94190BC1E055
S11316F08C2FDF91CF911F910F910895EF92FF925C
S11317001F93CF93DF93D82F162F7A010E94050BD6
S1131710C82F811103C00E94190B2CC0DD0F8D2F1F
S11317200E941D0B883121F00E94190BC0E022C0D9
S1131730812F0E941D0B883221F00E94190BC0E0FA
S113174019C00E94050BC82F811103C00E94190BF8
S113175011C08D2F81600E941D0B803421F00E94E6
S1131760190BC0E007C00E94340BF70180830E946C
S1131770190BC1E08C2FDF91CF911F91FF90EF9057
S11317800895EF92FF920F931F93CF93DF93222339
S113179009F448C0C22F7A01062F182F0E94050BA6
S11317A0D82F811103C00E94190B3DC0110F812F46
S11317B00E941D0B883121F00E94190BD0E033C028
S11317C0802F0E941D0B883221F00E94190BD0E05B
S11317D02AC00E94050BD82F811103C00E94190B47
S11317E022C0812F81600E941D0B8034A1F00E94D1
S11317F0190BD0E018C087010D0F111D8FEF8C0F4E
S1131800D81303C00E94340B02C00E942A0BF801B3
S11318108083DF5F01C0D0E0DC1768F30E94190BFE
S1131820D1E001C0D0E08D2FDF91CF911F910F91B6
S1131830FF90EF9008951F920F920FB60F9211240C
S11318402F938F939F93EF93FF932091C6008091E2
S113185007068F5F8F7790910606891304C081E095
S11318608093050608C0E0910706F0E0EB57FA4FB5
S1131870208380930706FF91EF919F918F912F9181
S11318800F900FBE0F901F9018951092C5008CE01A
S11318908093C4001092C00088E98093C10086E060
S11318A08093C20008959091C00095FFFCCF80936F
S11318B0C6000895CF93DF93EC0103C021960E94E4
S11318C0530C88818111FACFDF91CF910895CF9382
S11318D0C82FE82FE295EF70F0E0E153FB4F8081D1
S11318E00E94530CCF70EC2FF0E0E153FB4F80814A
S11318F00E94530CCF9108951F93CF93DF9300D090
S113190000D01F92CDB7DEB7AC01892B91F580E3EF
S11319100E94530C3FC09A01ADECBCEC0E94200E17
S11319209695879596958795969587959C01220F10
S1131930331F880F991F880F991F880F991F820FD3
S1131940931F9A01281B390BC901805DE1E0F0E087
S1131950EC0FFD1FE10FF11D80839A010E94200E00
S1131960AC015695479556954795569547951F5FF3
S113197001C010E04115510571F60AC01150E1E0B3
S1131980F0E0EC0FFD1FE10FF11D80810E94530C6C
S11319901111F4CF0F900F900F900F900F90DF91D3
S11319A0CF911F9108951F93CF93DF93CDB7DEB7E7
S11319B02A970FB6F894DEBF0FBECDBF611571052F
S11319C081059105C1F480E30E94530C27C02AE0ED
S11319D030E040E050E00E94DF0D605DE1E0F0E0C7
S11319E0EC0FFD1FE10FF11D6083622F732F842F15
S11319F0952F1F5F01C010E06115710581059105E8
S1131A0031F70AC01150E1E0F0E0EC0FFD1FE10FE7
S1131A10F11D80810E94530C1111F4CF2A960FB648
S1131A20F894DEBF0FBECDBFDF91CF911F91089513
S1131A30CF92DF92EF92FF926B017C0199235CF4C9
S1131A408DE20E94530CF094E094D094C094C11C95
S1131A50D11CE11CF11CC701B6010E94D30CFF90FC
S1131A60EF90DF90CF900895CF92DF92EF92FF92A4
S1131A70CF93DF936B017C0199235CF48DE20E9488
S1131A80530CF094E094D094C094C11CD11CE11C7C
S1131A90F11CC701B60124E630E040E050E00E94AA
S1131AA0010ED62FCA01B9010E94D30C8EE20E9406
S1131AB0530CCDECDC9FC12D1124C695C695C6955B
S1131AC080E38C0F0E94530CCC0F8C2F880F880F4F
S1131AD0C80F8D2F8C1B805D0E94530CDF91CF911A
S1131AE0FF90EF90DF90CF900895DC015AC0E09111
S1131AF00606F0E0EB57FA4F8081909106069F5F4F
S1131B009F77909306068D3011F08A3039F5E09175
S1131B108405EE2309F445C0F0E0EC5DFA4F108231
S1131B2090E005C0FD01E20FF31F40839F5F292F62
S1131B3030E0F9013196462F50E0E417F50730F410
S1131B40F901EC5DFA4F40814111ECCFFD01E20F48
S1131B50F31F10821092840581E00895883011F0FB
S1131B608F3741F4809184058823D9F08150809384
S1131B70840517C0E09184052E2F30E02F5F3F4F7E
S1131B802036310548F491E09E0F90938405F0E0EF
S1131B90EC5DFA4F808305C01092840581E0809348
S1131BA0050690910606809107069813A0CF80E061
S1131BB00895809105060895109205060895A1E2FE
S1131BC01A2EAA1BBB1BFD010DC0AA1FBB1FEE1FB3
S1131BD0FF1FA217B307E407F50720F0A21BB30BFE
S1131BE0E40BF50B661F771F881F991F1A9469F77A
S1131BF060957095809590959B01AC01BD01CF01D6
S1131C000895052E97FB1EF400940E94180E57FDAC
S1131C1007D00E94DF0D07FC03D04EF40C94180E7D
S1131C2050954095309521953F4F4F4F5F4F089504
S1131C3090958095709561957F4F8F4F9F4F089534
S1131C40A29FB001B39FC001A39F700D811D1124F9
S1131C50911DB29F700D811D1124911D08950E9444
S1131C60200EA59F900DB49F900DA49F800D911DF3
S1131C7011240895DF93CF931F930F939A9DF02D12
S1131C80219FF00D8B9DF00D8A9DE02DF10D039F9A
S1131C90F00D029FE00DF11D4E9DE00DF11D5E9DC6
S1131CA0F00D4F9DF00D7F936F93BF92AF925F93B2
S1131CB04F93D5010E94200E8B01AC01D7010E94E5
S1131CC0200EEB01E80FF91FD6010E948A0E2F9116
S1131CD03F91D6010E94200EC60FD71FE81FF91F9F
S1131CE0AF91BF910E948A0E2F913F910E94200EC6
S1131CF0C60FD71FE81FF91FD6010E94200EE60F5A
S1131D00F71F9801BE01CF0111240F911F91CF91AC
S1131D10DF9108950E94200E460F571FC81FD91F38
S1131D2008F431960895689401C0E894F92FF12BD2
S1131D3012F00C94C70EA0E0B0E0E1EAFEE00C94CF
S1131D40390F092E059422F40E94230F112392F4D3
S1131D50F0E80F26FFEFE094F09400951095B0940E
S1131D60C094D094A194BF0ACF0ADF0AEF0AFF0AF5
S1131D700F0B1F0B0E94D20E07FC0E94230FCDB73E
S1131D80DEB7ECE00C94550F689401C0E8948F9290
S1131D909F92CF93DF930E94D20EDF91CF919F90B9
S1131DA08F90089588249924F401E401B0E49F936A
S1131DB0AA279A158B049C04ED05FE05CF05D007D0
S1131DC0A10798F4AD2FDC2FCF2FFE2FE92D982CEF
S1131DD0892E982F872F762F652F542F432F322F3C
S1131DE02227B85031F7BF9127C01B2EBF91BB27C4
S1131DF0220F331F441F551F661F771F881F991F0B
S1131E00881C991CEE1FFF1FCC1FDD1FAA1FBB1FC0
S1131E108A149B04EC05FD05CE05DF05A007B10778
S1131E2048F08A189B08EC09FD09CE09DF09A00BCC
S1131E30B10B21601A94E1F62EF49401AF01BE01B6
S1131E40CD01000C0895609570958095909530951E
S1131E504095509521953F4F4F4F5F4F6F4F7F4FA8
S1131E608F4F9F4F08952F923F924F925F926F92A0
S1131E707F928F929F92AF92BF92CF92DF92EF9216
S1131E80FF920F931F93CF93DF93CDB7DEB7CA1B97
S1131E90DB0B0FB6F894DEBF0FBECDBF09942A88C2
S1131EA0398848885F846E847D848C849B84AA846A
S1131EB0B984C884DF80EE80FD800C811B81AA81F7
S1131EC0B981CE0FD11D0FB6F894DEBF0FBECDBFC2
S1131ED0ED0108950024A7FD00942A17300540055C
S1131EE0500560057005800590050895A0E0B0E0F8
S1131EF0ECE7FFE00C94340F5C016B017A0161158F
S1131F00710519F0FB0191838083E114F10429F038
S1131F10C7010297839708F0E5C0E5012196F50112
S1131F201081812F90E00E948111892B11F05E01B4
S1131F30F4CF1D3229F42196F501118101E007C087
S1131F401B3221F4E5012296F501118100E0E11430
S1131F50F10409F1F0E1EF16F10429F43FC010E3B4
S1131F60E114F10421F128E0E216F10401F154F442
S1131F70E2E0EE16F10421F5812C912CA12CB0E4C1
S1131F80BB2E3EC0FAE0EF16F10439F020E1E21670
S1131F90F104B1F430C0103319F1FAE0EF2EF12C52
S1131FA0ACEC8A2E982CA82CACE0BA2E29C078E090
S1131FB0E72EF12C812C912CA12CE0E1BE2E20C027
S1131FC060E070E080E090E897010F2C000C440B77
S1131FD0550B0E94DF0D49015A0112C0103359F408
S1131FE088818F7D883509F0BACF198122960260E5
S1131FF080E1E82EF12C812C912CA12C68E0B62EE6
S113200040E060E070E0CB0127010F2C000C660873
S11320107708FE0150ED352E310E29E0231570F4BA
S11320202FEB210F2A3118F439EC332E06C02FE997
S1132030210F2A3118F529EA322E310E232D30E0F2
S11320402E153F05DCF447FD16C086169706A80634
S1132050B90670F0A30192010E940812630D711D6C
S1132060811D911D61307105810520E8920710F0F2
S11320704FEF01C041E021961081CBCF202F21707A
S1132080C114D10471F0442329F02197F601D183BE
S1132090C08307C001FF19C02297F601D183C08312
S11320A014C047FF12C0222329F060E070E080E0F2
S11320B090E804C06FEF7FEF8FEF9FE722E230E0FC
S11320C0309309062093080609C0222381F09095D5
S11320D08095709561957F4F8F4F9F4F462F372F77
S11320E0282F12C040E030E020E090E00DC097FFC0
S11320F0F5CF82E290E090930906809308066FEF93
S11321007FEF8FEF9FE7EACF642F732F822FCDB736
S1132110DEB7E1E10C94500FA0E0B0E0E2E9F0E1B9
S11321200C94340F5C016B017A016115710519F08F
S1132130FB0191838083E114F10429F0C701029724
S1132140839708F0C9C0E5012196F5011081812F1C
S113215090E00E948111892B11F05E01F4CF1D32B1
S113216029F42196F501118101E007C01B3221F405
S1132170E5012296F501118100E0E114F104B1F0CA
S1132180F0E1EF16F10429F4B0C010E3E114F10416
S113219001F12AE0E216F104B1F180E1E816F1045C
S11321A071F0E8E0EE16F104F1F413C0103341F5D8
S11321B088818F7D883549F7198122960260F0E184
S11321C0EF2EF12C88248A94982CA82CAFE0BA2EF8
S11321D020C078E0E72EF12C88248A94982CA82C2F
S11321E0EFE1BE2E16C06FEF7FEFCB0197010F2CEE
S11321F0000C440B550B0E94DF0D49015A0109C024
S11322008AE0E82EF12C69E9862E982CA82C69E145
S1132210B62E40E060E070E0CB0127010F2C000CEB
S113222066087708FE0150ED352E310E29E023159E
S113223070F42FEB210F2A3118F439EC332E06C039
S11322402FE9210F2A3130F529EA322E310E232DC0
S113225030E02E153F05F4F44F3FC9F0861697067B
S1132260A806B90688F0A30192010E940812232D42
S113227030E040E050E0620F731F841F951F621727
S113228073078407950710F44FEF01C041E02196CE
S11322901081C8CFC114D10451F0442311F0219707
S11322A003C001FF04C02297F601D183C08300FF5D
S11322B007C090958095709561957F4F8F4F9F4F84
S11322C04F3F79F482E290E09093090680930806E8
S11322D03FEF2FEF9FEF0DC040E030E020E090E0B3
S11322E008C0462F372F282F04C0103309F067CFBA
S11322F05FCF642F732F822FCDB7DEB7E1E10C944B
S1132300500F91110C94D311803219F089508550DB
S1132310C8F7089540EE54E00E94AC110895FB0103
S1132320DC0104C08D910190801921F4415050408A
S1132330C8F7881B990B0895DC0101C06D934150C7
S11323405040E0F70895FB01DC018D910190801964
S11323500110D9F3990B0895FA01A191B081009766
S113236019F41097E1F0CD01DC01CD010D900020AE
S113237011F4C00113C0FB012191222319F020158F
S1132380D9F7F3CFFB012191201519F41E92119670
S113239006C02223C1F70D900020A1F7D001FA0155
S11323A0A193B0830895992788270895DC01CB0170
S11323B0FC01F999FECF06C0F2BDE1BDF89A319651
S11323C000B40D9241505040B8F70895DC01A40FB9
S11323D0B51F4150504048F0CB01840F951F2E91FA
S11323E00E94F71141505040D0F70895262FF999D3
S11323F0FECF92BD81BDF89A019700B4021639F060
S11324001FBA20BD0FB6F894FA9AF99A0FBE089530
S1132410DB018F939F930E942F0EBF91AF91A29FD8
S1132420800D911DA39F900DB29F900D11240895CE
S1072430F894FFCF4A
S113243456414C4944004449525459004445464188
S1132444554C5400244E443238305253502C455287
S1132454524F522C524541534F4E3D00244E443268
S113246438305253502C4F4B2C434D443D00244E92
S11324744432383043414C2C53544154453D002C90
S1132484434F554E543D002C4F583D002C4F593D5D
S1132494002C4F5A3D002C47583D002C47593D0011
S11324A42C475A3D002C4E583D002C4E593D002CCF
S11324B44E5A3D002C5443414C3D00200048454CA9
S11324C45000244E443238305253502C434F4D4D17
S11324D4414E44533D48454C507C494E464F7C4301
S11324E4414C20524541447C43414C204F46465381
S11324F4455420782079207A7C43414C2047414933
S11325044E20782079207A7C43414C204E4F495305
S11325144520782079207A7C43414C2054454D5001
S113252420747C43414C20534156457C43414C2008
S113253452455345540D0A00494E464F00244E4417
S1132544323830494E464F2C49443D002C46573DC1
S113255400302E342E302D616C70686134002C549C
S11325644D41473D004132002C52414E47453D0008
S11325742C4156473D002C43414C3D0043414C0003
S1132584554E4B4E4F574E5F434F4D4D414E4400B5
S11325944D495353494E475F43414C5F535542435E
S11325A44F4D4D414E44004241445F4F46465345CE
S11325B4545F415247554D454E54530043414C5F7B
S11325C44F4646534554004241445F4741494E5F98
S11325D4415247554D454E54530043414C5F474186
S11325E4494E004241445F4E4F4953455F4152476F
S11325F4554D454E54530043414C5F4E4F4953454A
S1132604004241445F54454D505F415247554D4546
S11326144E540043414C5F54454D500043414C5F7C
S11326245341564500454550524F4D5F5645524916
S113263446595F4641494C45440043414C5F524529
S113264453455400554E4B4E4F574E5F43414C5FD8
S1132654535542434F4D4D414E4400554152545FEE
S113266452585F4F564552464C4F5700544D4147BC
S11326745F4445564943455F49445F5245414400DC
S1132684544D41475F494E4954004552524F522CD0
S1132694544D41475F4E4F5F56414C49445F53414B
S11326A44D504C45532C5345513D0043414C4942F4
S11326B4524154494F4E3D002C56455253494F4EB6
S11326C43D002C434F554E5445523D0043414C5F0D
S11326D44F46465345545F583D002C43414C5F4F8D
S11326E446465345545F593D002C43414C5F4F4685
S11326F4465345545F5A3D004552524F522C000DE7
S11327040A4E44323830204D61676E657469632023
S11327144669656C64204E6F64652076000D0A5525
S1132724415254303D343830302C52585F434F4D6D
S11327344D414E44533D4F4E2C545749313D504521
S1132744302F5045310D0A00415645524147455FEB
S113275453414D504C45533D002C53414D504C4531
S11327645F494E54455256414C5F4D533D000D0A4A
S1132774544D41475F56415249414E543D002C54F7
S11327844D41475F52414E47455F4D543D00544DC2
S113279441475F4445564943455F49443D307800C9
S11327A40D0A544D41475F494E49543D4F4B0D0A60
S11327B4424F4152445F49443D000D0A5459504527
S11327C42048454C5020464F5220434F4D4D414ED6
S11327D444530D0A00244E443238302C5645523D9D
S11327E4002C543D002C42583D002C42593D002CF1
S11327F4425A3D002C5354415455533D30780030D3
S1132804313233343536373839414243444546004E
S9030000FC
