:100000000C945A000C9477000C9477000C947700B1
:100010000C9477000C9477000C9477000C94770084
:100020000C9477000C9477000C9477000C94770074
:100030000C9477000C9477000C9477000C94770064
:100040000C9477000C9477000C9477000C94770054
:100050000C9477000C9477000C9477000C94770044
:100060000C9477000C9477000C9477000C94770034
:100070000C9477000C9477000C9477000C94770024
:100080000C9477000C9477000C9477000C94770014
:100090000C9477000C9477000C9477000C94770004
:1000A0000C9477000C9477000C9477000C947700F4
:1000B0000C94770011241FBECFEFD8E0DEBFCDBF78
:1000C00012E0A0E0B1E0E4E5F2E102C005900D929B
:1000D000A03AB107D9F722E0A0EAB2E001C01D9230
:1000E000A93DB207E1F70E9490030C9428090C94F3
:1000F000000087B1807F87B98AB18B7F8AB988B1C8
:10010000807F88B98BB18B7F8BB90895309902C0FD
:1001100080E001C081E03199826032998460339936
:1001200088604A99806180958F7108954F925F929F
:100130006F927F92AF92BF92CF92DF92EF92FF9237
:100140000F931F93DC01CB01821B930BA40BB50B08
:100150002C013D01770C4408542C3201B801A70151
:10016000770F440B542FBA01AE2CBF2CC02ED12ECA
:10017000E42EF42E042F142F282F392F4A2F5B2F13
:10018000642D742D842D942D0E94DC07A0E00E9424
:100190000C094CF0205E3E45484F5F4F6F4F7F4F3C
:1001A0008F4F9F4F08C02052314A47405109610983
:1001B0007109810991096894AA24A6F80F2EF2E426
:1001C000BF2EF02D0F2EFFE0CF2EF02DD12CE12CE5
:1001D000F12C00E010E00E943708622F732F842F6B
:1001E000952F1F910F91FF90EF90DF90CF90BF90D0
:1001F000AF907F906F905F904F90089566E370E0AE
:100200000E94AE010895CF93DF93EC0188E3FE01D5
:1002100011928A95E9F788E392E3A4E4BEE4888327
:100220009983AA83BB8381E090E09D838C8388E3DC
:1002300090E09F838E8380E492E4AFE0B0E08C8B0B
:100240009D8BAE8BBF8B888F998FAA8FBB8F8C8F26
:100250009D8FAE8FBF8FCE010E94FE009FAB8EABF5
:10026000DF91CF9108950F931F93CF93DF93EC010C
:1002700048E350E060E070E00E94180988819981AD
:10028000AA81BB8188339243A444BE4481F48C810B
:100290009D81019761F48E819F81C89741F40EA9D9
:1002A0001FA9CE010E94FE000817190729F0CE01F0
:1002B0000E94030180E001C081E0DF91CF911F9196
:1002C0000F910895CF92DF92EF92FF920F931F93B9
:1002D000CF93DF936C01EB01FC01E488F58806897C
:1002E000178920853185428553856C817D818E817A
:1002F0009F810E9496006C837D838E839F83F6018D
:10030000E08CF18C028D138D2485358546855785CB
:10031000688579858A859B850E949600688779879C
:100320008A879B87F601E48CF58C068D178D2089D2
:100330003189428953896C857D858E859F850E9490
:1003400096006C877D878E879F87DF91CF911F9165
:100350000F91FF90EF90DF90CF900895DC0140E087
:1003600050E08FEF9FEF1BC0FD01E40FF51F2081D0
:1003700030E0322F22278227932720E00CC09923D8
:100380003CF4880F991F31E2832730E1932702C0A4
:10039000880F991F2F5F283090F34F5F5F4F4617EC
:1003A000570710F30895CF93DF938EE091E00E94FA
:1003B00082068091A002813019F480E091E002C0B1
:1003C00086E091E00E9482068BE191E00E94820625
:1003D000C1EAD2E08C819D810E94A40685E291E071
:1003E0000E94820668A979A98AA99BA90E94FB0696
:1003F0008AED91E00E9482068FE291E00E948206DF
:10040000688579858A859B850E9440078DE391E008
:100410000E9482066C857D858E859F850E9440079F
:100420008CE491E00E948206688979898A899B8997
:100430000E9440078AED91E00E948206DF91CF91F1
:1004400008958F929F92AF92BF92EF92FF920F9377
:100450001F93CF93DF93E82E4A015B01F22EE80150
:100460008BE591E00E94820687E691E00E94820679
:100470008DE691E00E9482068E2D90E00E94A406F7
:1004800089E892E00E948206C501B4010E94FB0641
:1004900082E791E00E9482068F2D90E00E94A406E0
:1004A00088E791E00E9482068091A002813019F4D1
:1004B00080E091E002C086E091E00E9482068EE733
:1004C00091E00E948206688179818A819B810E94E5
:1004D000400782E891E00E9482066C817D818E81D6
:1004E0009F810E94400787E891E00E94820668850C
:1004F00079858A859B850E9440078CE891E00E945F
:1005000082066C857D858E859F850E94400781E9E6
:1005100091E00E94820688890E948F068AED91E010
:100520000E948206DF91CF911F910F91FF90EF9073
:10053000BF90AF909F908F900895EC018CE991E06F
:100540000E948206CE010E9482068AED91E00E94FE
:1005500082068BB180588BB98FE493EC0197F1F749
:1005600000C00000F6CF2F923F924F925F926F92A1
:100570007F928F929F92AF92BF92CF92DF92EF9233
:10058000FF920F931F93CF93DF93CDB7DEB76A9798
:100590000FB6F894DEBF0FBECDBF8A8B292E7F87A2
:1005A0006E8710E000E0312C812C912C5401412CFD
:1005B000512C3201C12CD12C76011A861B861C8647
:1005C0001D863FC0CE0101960E946704882391F1E9
:1005D00089819A81092E000CAA0BBB0B2A853B85C9
:1005E0004C855D85280F391F4A1F5B1F2A873B8773
:1005F0004C875D878B819C81092E000CAA0BBB0B5D
:10060000C80ED91EEA1EFB1E8D819E81092E000C8C
:10061000AA0BBB0B480E591E6A1E7B1E8F81988544
:10062000092E000CAA0BBB0B880E991EAA1EBB1E1E
:1006300039840F5F87EA91E60197F1F700C0000067
:100640001F5F1A3008F4BECFAE85BF850C93002320
:1006500009F44CC0202F30E040E050E02E873F8767
:10066000488B598BC501B4010E94A3072B8B3C8B8F
:100670004D8B5E8BC301B2012E853F854889598918
:100680000E94A3072F8B388F498F5A8FC701B6015D
:100690002E853F85488959890E94A30729013A017F
:1006A0006A857B858C859D852E853F8548895989FE
:1006B0000E94A307CA01B9012F923A893F93832C64
:1006C000AB88BC88CD88DE88EF88F88C098D1A8DC0
:1006D000A30192010E94B5046A89722D81EA92E019
:1006E0000E9462010F900F9081E001C080E06A9645
:1006F0000FB6F894DEBF0FBECDBFDF91CF911F9133
:100700000F91FF90EF90DF90CF90BF90AF909F90B0
:100710008F907F906F905F904F903F902F900895B3
:10072000CF93DF93CDB7DEB763970FB6F894DEBFF4
:100730000FBECDBF0E946D060E9490050E947900F9
:100740008AB1806E8AB981EA92E00E943301809377
:10075000A00283EA91E00E94820687E691E00E946F
:10076000820681EC91E00E9482068DED91E00E946C
:1007700082068AE090E00E94A4068EEE91E00E943C
:10078000820684E690E00E94A40683E092E00E9444
:10079000820683E192E00E94820686E192E00E9456
:1007A00082068AE091E00E94A4068AED91E00E9410
:1007B00082060E94D3011982CE0101960E943D0457
:1007C000811104C086E292E00E949D028AE392E0D9
:1007D0000E94820689810E948F068AED91E00E9424
:1007E00082060E944304811104C08CE492E00E94BE
:1007F0009D0286E592E00E9482060E94860090E0BB
:100800000E94A4068AED91E00E948206C12CD12CA0
:1008100076011B8ABE016D5E7F4FCE0102960E945B
:10082000B302811110C08EE692E00E948206C701D9
:10083000B6010E94FB068AED91E00E9482068BB110
:1008400080588BB9E6CFBB880E9486008E010E5F70
:100850001F4F2B2DB701A6010E9421028FEFC81A4E
:10086000D80AE80AF80A9BB180E289278BB9D1CF70
:1008700090E0982F8827862B0895AC016DE085E3E2
:100880000E94D005089540E060E085E30E949C0549
:100890008823E1F040E061E085E30E949C05882325
:1008A000A9F044E762E085E30E949C05882371F08B
:1008B00043E063E085E30E949C05882339F041E032
:1008C00067E085E30E949C05811181E008950F9304
:1008D0001F93CF93DF93CDB7DEB729970FB6F89468
:1008E000DEBF0FBECDBF8C0140E06DE885E30E9406
:1008F0009C05882379F181EE94E00197F1F700C01F
:10090000000029E0AE014F5F5F4F60E185E30E9488
:1009100013068823F9F06A8189810E943804F8015E
:10092000918380836C818B810E943804F8019383CA
:1009300082836E818D810E943804F80195838483BF
:1009400068858F810E943804F801978386838985A2
:10095000808781E029960FB6F894DEBF0FBECDBF29
:10096000DF91CF911F910F9108953F924F925F9227
:100970006F927F928F929F92AF92BF92CF92DF92AF
:10098000EF92FF920F931F93CF93DF93CDB7DEB714
:1009900029013A01382C8C889D889B01AC01245692
:1009A000344441095109A8EEB3E00E94D10729E57A
:1009B00032E040E050E00E94A307DA01C9018C5305
:1009C000964FAF4FBF4FF40180839183A283B383CF
:1009D000A8EEB7E6A30192010E94D1072B013C01CA
:1009E000992334F4FFEF4F0EFFE75F1E611C711C6B
:1009F000D301C201072E7FE0B595A79597958795FE
:100A00007A95D1F7702DF40184839583A683B783FB
:100A1000A8EEB7E6A80197010E94D1078B019C01BF
:100A2000992324F4015010482F4F3F4FD901C8019A
:100A3000072E7FE0B595A795979587957A95D1F77D
:100A4000702DF40180879187A287B387A8EEB7E65F
:100A5000A60195010E94D1078B019C01992324F4E2
:100A6000015010482F4F3F4FD901C801072E7FE09A
:100A7000B595A795979587957A95D1F7702DF4013F
:100A800084879587A687B787308ADF91CF911F919A
:100A90000F91FF90EF90DF90CF90BF90AF909F901D
:100AA0008F907F906F905F904F903F90089584EA71
:100AB0008093DC008091DC008823E4F78091D900EA
:100AC000887F883021F0803121F481E0089581E031
:100AD000089580E0089584E98093DC000895809370
:100AE000DB0084E88093DC008091DC008823E4F75D
:100AF0008091D900887F089584EC8093DC008091F8
:100B0000DC008823E4F78091DB00089584E880937B
:100B1000DC008091DC008823E4F78091DB000895FD
:100B20008EB183608EB91092D90082E08093D80094
:100B300084E08093DC0008950F931F93CF93DF939D
:100B4000D82F162F042F0E945705C82F811103C0DC
:100B50000E946B051FC08D2F880F0E946F05883182
:100B600021F00E946B05C0E015C0812F0E946F0527
:100B7000883221F00E946B05C0E00CC0802F0E94DB
:100B80006F05883221F00E946B05C0E003C00E940F
:100B90006B05C1E08C2FDF91CF911F910F910895CC
:100BA000EF92FF921F93CF93DF93D82F162F7A01E6
:100BB0000E945705C82F811103C00E946B052CC0ED
:100BC000DD0F8D2F0E946F05883121F00E946B058B
:100BD000C0E022C0812F0E946F05883221F00E9460
:100BE0006B05C0E019C00E945705C82F811103C0D2
:100BF0000E946B0511C08D2F81600E946F058034AB
:100C000021F00E946B05C0E007C00E948605F70135
:100C100080830E946B05C1E08C2FDF91CF911F91E3
:100C2000FF90EF900895EF92FF920F931F93CF9351
:100C3000DF93222309F448C0C22F7A01062F182F10
:100C40000E945705D82F811103C00E946B053DC03B
:100C5000110F812F0E946F05883121F00E946B05D2
:100C6000D0E033C0802F0E946F05883221F00E94AF
:100C70006B05D0E02AC00E945705D82F811103C010
:100C80000E946B0522C0812F81600E946F05803415
:100C9000A1F00E946B05D0E018C087010D0F111D57
:100CA0008FEF8C0FD81303C00E94860502C00E94EC
:100CB0007C05F8018083DF5F01C0D0E0DC1768F3BA
:100CC0000E946B05D1E001C0D0E08D2FDF91CF9164
:100CD0001F910F91FF90EF9008951092C5008CE046
:100CE0008093C4001092C00088E08093C10086E029
:100CF0008093C20008959091C00095FFFCCF80932F
:100D0000C6000895CF93DF93EC0103C021960E94A3
:100D10007B0688818111FACFDF91CF910895CF931F
:100D2000C82FE82FE295EF70F0E0E157FD4F80818A
:100D30000E947B06CF70EC2FF0E0E157FD4F8081E1
:100D40000E947B06CF9108951F93CF93DF9300D02D
:100D500000D01F92CDB7DEB7AC01892B91F580E3AF
:100D60000E947B063FC09A01ADECBCEC0E94C2071A
:100D70009695879596958795969587959C01220FD0
:100D8000331F880F991F880F991F880F991F820F93
:100D9000931F9A01281B390BC901805DE1E0F0E047
:100DA000EC0FFD1FE10FF11D80839A010E94C20725
:100DB000AC015695479556954795569547951F5FB3
:100DC00001C010E04115510571F60AC01150E1E073
:100DD000F0E0EC0FFD1FE10FF11D80810E947B060A
:100DE0001111F4CF0F900F900F900F900F90DF9193
:100DF000CF911F9108951F93CF93DF93CDB7DEB7A7
:100E00002A970FB6F894DEBF0FBECDBF61157105EE
:100E100081059105C1F480E30E947B0627C02AE08A
:100E200030E040E050E00E948107605DE1E0F0E0EA
:100E3000EC0FFD1FE10FF11D6083622F732F842FD4
:100E4000952F1F5F01C010E06115710581059105A7
:100E500031F70AC01150E1E0F0E0EC0FFD1FE10FA7
:100E6000F11D80810E947B061111F4CF2A960FB6E6
:100E7000F894DEBF0FBECDBFDF91CF911F910895D3
:100E8000CF92DF92EF92FF92CF93DF936B017C01C1
:100E900099235CF48DE20E947B06F094E094D09458
:100EA000C094C11CD11CE11CF11CC701B60124E691
:100EB00030E040E050E00E94A307D62FCA01B901FC
:100EC0000E94FB068EE20E947B06CDECDC9FC12DCA
:100ED0001124C695C695C69580E38C0F0E947B06AB
:100EE000CC0F8C2F880F880FC80F8D2F8C1B805D27
:100EF0000E947B06DF91CF91FF90EF90DF90CF9023
:100F00000895A1E21A2EAA1BBB1BFD010DC0AA1F4A
:100F1000BB1FEE1FFF1FA217B307E407F50720F062
:100F2000A21BB30BE40BF50B661F771F881F991FDD
:100F30001A9469F760957095809590959B01AC0126
:100F4000BD01CF010895052E97FB1EF400940E9469
:100F5000BA0757FD07D00E94810707FC03D04EF463
:100F60000C94BA0750954095309521953F4F4F4FBF
:100F70005F4F089590958095709561957F4F8F4F45
:100F80009F4F0895A29FB001B39FC001A39F700D12
:100F9000811D1124911DB29F700D811D1124911D81
:100FA00008950E94C207A59F900DB49F900DA49F25
:100FB000800D911D11240895DF93CF931F930F93FC
:100FC0009A9DF02D219FF00D8B9DF00D8A9DE02DB7
:100FD000F10D039FF00D029FE00DF11D4E9DE00D00
:100FE000F11D5E9DF00D4F9DF00D7F936F93BF92AD
:100FF000AF925F934F93D5010E94C2078B01AC0162
:10100000D7010E94C207EB01E80FF91FD6010E9429
:101010002C082F913F91D6010E94C207C60FD71FFF
:10102000E81FF91FAF91BF910E942C082F913F91AB
:101030000E94C207C60FD71FE81FF91FD6010E94E2
:10104000C207E60FF71F9801BE01CF0111240F91CF
:101050001F91CF91DF9108950E94C207460F571F3D
:10106000C81FD91F08F431960895689401C0E89408
:10107000F92FF12B12F00C946908A0E0B0E0E3E442
:10108000F8E00C94DB08092E059422F40E94C508B0
:10109000112392F4F0E80F26FFEFE094F09400950E
:1010A0001095B094C094D094A194BF0ACF0ADF0ADF
:1010B000EF0AFF0A0F0B1F0B0E94740807FC0E9427
:1010C000C508CDB7DEB7ECE00C94F708689401C012
:1010D000E8948F929F92CF93DF930E947408DF91E0
:1010E000CF919F908F90089588249924F401E40172
:1010F000B0E49F93AA279A158B049C04ED05FE0586
:10110000CF05D007A10798F4AD2FDC2FCF2FFE2FEE
:10111000E92D982C892E982F872F762F652F542F05
:10112000432F322F2227B85031F7BF9127C01B2EF3
:10113000BF91BB27220F331F441F551F661F771F08
:10114000881F991F881C991CEE1FFF1FCC1FDD1FD5
:10115000AA1FBB1F8A149B04EC05FD05CE05DF0505
:10116000A007B10748F08A189B08EC09FD09CE09D1
:10117000DF09A00BB10B21601A94E1F62EF4940163
:10118000AF01BE01CD01000C08956095709580956A
:10119000909530954095509521953F4F4F4F5F4F1B
:1011A0006F4F7F4F8F4F9F4F08952F923F924F92D7
:1011B0005F926F927F928F929F92AF92BF92CF92E7
:1011C000DF92EF92FF920F931F93CF93DF93CDB7F0
:1011D000DEB7CA1BDB0B0FB6F894DEBF0FBECDBF68
:1011E00009942A88398848885F846E847D848C8439
:1011F0009B84AA84B984C884DF80EE80FD800C8142
:101200001B81AA81B981CE0FD11D0FB6F894DEBF24
:101210000FBECDBFED0108950024A7FD00942A174D
:10122000300540055005600570058005900508955E
:10123000DC01CB01FC01F999FECF06C0F2BDE1BD96
:10124000F89A319600B40D9241505040B8F7089585
:04125000F894FFCF40
:1012540056414C49440044454641554C5400434191
:101264004C4942524154494F4E3D002C564552532D
:10127400494F4E3D002C434F554E5445523D00437B
:10128400414C5F4F46465345545F583D002C434103
:101294004C5F4F46465345545F593D002C43414CE7
:1012A4005F4F46465345545F5A3D00244E443238FE
:1012B400302C5645523D00302E332E30002C4944FC
:1012C4003D002C4156473D002C43414C3D002C54DD
:1012D4003D002C42583D002C42593D002C425A3DC1
:1012E400002C5354415455533D3078004552524FCD
:1012F400522C000D0A4E44323830204D61676E6521
:10130400746963204669656C64204E6F6465207659
:10131400000D0A55415254303D343830302C545766
:1013240049313D5045302F5045310D0A0041564555
:10133400524147455F53414D504C45533D002C535A
:10134400414D504C455F494E54455256414C5F4DBA
:10135400533D000D0A544D41475F56415249414E99
:10136400543D004132002C544D41475F52414E4799
:10137400455F4D543D00544D41475F4445564943F4
:10138400455F49445F5245414400544D41475F44E1
:1013940045564943455F49443D307800544D4147E3
:1013A4005F494E495400544D41475F494E49543DAD
:1013B4004F4B0D0A424F4152445F49443D00455250
:1013C400524F522C544D41475F4E4F5F56414C494A
:1013D400445F53414D504C45532C5345513D0030CF
:1013E4003132333435363738394142434445460087
:00000001FF
