S01700004763634170706C69636174696F6E312E737265635B
S11300000C945A000C9486000C9486000C94860080
S11300100C9486000C9486000C9486000C94860044
S11300200C9486000C9486000C9486000C94860034
S11300300C9486000C9486000C943F060C94860065
S11300400C9486000C9486000C94E90E0C948600A3
S11300500C9486000C9486000C9486000C94860004
S11300600C9486000C9486000C9486000C948600F4
S11300700C9486000C9486000C9486000C948600E4
S11300800C9486000C9486000C9486000C948600D4
S11300900C9486000C9486000C9486000C948600C4
S11300A00C9486000C9486000C9486000C948600B4
S11300B00C94860011241FBECFEFD8E0DEBFCDBF65
S11300C084B78093CB0714BE0FB6F894A89580919B
S11300D06000886180936000109260000FBE16E09B
S11300E0A0E0B1E0E4EFF9E202C005900D92AE3772
S11300F0B107D9F727E0AEE7B6E001C01D92AB3CEB
S1130100B207E1F70E94F1070C94F8140C94000074
S113011087B1807F87B98AB18B7F8AB988B1807FA4
S113012088B98BB18B7F8BB90895309902C080E078
S113013001C081E03199826032998460339988608A
S11301404A99806180958F7108954F925F926F9262
S11301507F92AF92BF92CF92DF92EF92FF920F9372
S11301601F93DC01CB01821B930BA40BB50B2C0159
S11301703D01770C4408542C3201B801A701770FD4
S1130180440B542FBA01AE2CBF2CC02ED12EE42E1A
S1130190F42E042F142F282F392F4A2F5B2F642D70
S11301A0742D842D942D0E940811A0E00E94381211
S11301B04CF0205E3E45484F5F4F6F4F7F4F8F4F4F
S11301C09F4F08C02052314A4740510961097109C3
S11301D0810991096894AA24A6F80F2EF2E4BF2E8F
S11301E0F02D0F2EFFE0CF2EF02DD12CE12CF12C91
S11301F000E010E00E946311622F732F842F952F6B
S11302001F910F91FF90EF90DF90CF90BF90AF9030
S11302107F906F905F904F90089566E370E00E9426
S11302200E060895CF93DF93EC0188E3FE0111924B
S11302308A95E9F788E392E3A4E4BEE4888399838A
S1130240AA83BB8381E090E09D838C8388E390E064
S11302509F838E8380E492E4AFE0B0E08C8B9D8B2F
S1130260AE8BBF8B888F998FAA8FBB8F8C8F9D8FFE
S1130270AE8FBF8FCE010E940D019FAB8EABDF917D
S1130280CF9108950F931F93CF93DF93EC0148E32D
S113029050E060E070E00E94A41488819981AA81F2
S11302A0BB8188339243A444BE4481F48C819D81F4
S11302B0019761F48E819F81C89741F40EA91FA90B
S11302C0CE010E940D010817190781F088819981D8
S11302D0AA81BB818F3F9F4FAF4FBF4F11F00E9448
S11302E06F07CE010E94120180E001C081E0DF911E
S11302F0CF911F910F910895CF93DF93CDB7DEB7C0
S1130300C057D1090FB6F894DEBF0FBECDBFFC01B4
S113031098E3DE01119601900D929A95E1F788E336
S113032092E3A4E4BEE489839A83AB83BC8381E033
S113033090E09E838D8388E390E098878F83CE013D
S113034001960E940D0198AF8FAB48E350E060E046
S113035070E0CE0101960E94BA1448E350E060E0D8
S113036070E0CE01C9960E94A41448E350E0BE0197
S1130370675C7F4FCE0101960E945D14892B21F0AA
S11303800E946F0780E001C081E0C059DF4F0FB6C3
S1130390F894DEBF0FBECDBFDF91CF910895CF9308
S11303A0DF93CDB7DEB7E8970FB6F894DEBF0FBE84
S11303B0CDBF48E350E06FEF70E0CE0101960E949C
S11303C06A1448E350E060E070E0CE0101960E94B8
S11303D0BA14E8960FB6F894DEBF0FBECDBFDF9116
S11303E0CF910895CF92DF92EF92FF920F931F93D4
S11303F0CF93DF936C01EB01FC01E488F588068957
S1130400178920853185428553856C817D818E8154
S11304109F810E94A5006C837D838E839F83F60158
S1130420E08CF18C028D138D2485358546855785A6
S1130430688579858A859B850E94A5006887798768
S11304408A879B87F601E48CF58C068D178D2089AD
S11304503189428953896C857D858E859F850E946B
S1130460A5006C877D878E879F87DF91CF911F9131
S11304700F91FF90EF90DF90CF900895813029F095
S1130480823031F486E091E0089580E091E00895AF
S11304908CE091E00895CF93DF93EC0184E191E047
S11304A00E94280FCE010E94280F87E995E00E9440
S11304B0280FDF91CF910895CF93DF93EC018CE265
S11304C091E00E94280FCE010E94280F87E995E051
S11304D00E94280FDF91CF910895EF92FF920F931E
S11304E01F93CF93DF9300D0CDB7DEB78C017B0190
S11304F01A8219824AE050E0BE016F5F7F4F0E946A
S11305005A13E981FA810E171F0751F02081211136
S113051009C0F701608371838283938381E003C000
S113052080E001C080E00F900F90DF91CF911F9188
S11305300F91FF90EF900895CF92DF92EF92FF9288
S11305400F931F93CF93DF930097D9F06115710533
S1130550D1F041155105C9F06A01EB01B9010E94BE
S11305606D028823A1F0B801CE010E946D02882398
S113057081F0B701C6010E946D02882361F081E019
S11305800BC080E009C080E007C080E005C080E0C7
S113059003C080E001C080E0DF91CF911F910F91F3
S11305A0FF90EF90DF90CF900895EF92FF920F931A
S11305B01F93CF93DF9300D0CDB7DEB78C017B01BF
S11305C01A8219824AE050E0BE016F5F7F4F0E9499
S11305D04412E981FA810E171F0751F0208121117D
S11305E009C0F701608371838283938381E003C030
S11305F080E001C080E00F900F90DF91CF911F91B8
S11306000F91FF90EF900895CF92DF92EF92FF92B7
S11306100F931F93CF93DF930097D9F06115710562
S1130620D1F041155105C9F06A01EB01B9010E94ED
S1130630D5028823A1F0B801CE010E94D5028823F7
S113064081F0B701C6010E94D502882361F081E0E0
S11306500BC080E009C080E007C080E005C080E0F6
S113066003C080E001C080E0DF91CF911F910F9122
S1130670FF90EF90DF90CF9008951F93CF93DF9377
S1130680EC01162F8EE391E00E94280F812F0E9427
S11306903E020E94280F89E496E00E94280F8C8174
S11306A09D810E944A0F8FE491E00E94280F68A95F
S11306B079A98AA99BA90E94A10F87E591E00E94CC
S11306C0280F688579858A859B850E94E60F8CE5CD
S11306D091E00E94280F6C857D858E859F850E9400
S11306E0E60F81E691E00E94280F688979898A895A
S11306F09B890E94E60F86E691E00E94280F6C8990
S11307007D898E899F890E94E60F8BE691E00E9485
S1130710280F688D798D8A8D9B8D0E94E60F80E766
S113072091E00E94280F6C8D7D8D8E8D9F8D0E948F
S1130730E60F85E791E00E94280F68A179A18AA1BC
S11307409BA10E94A10F8AE791E00E94280F6CA14F
S11307507DA18EA19FA10E94A10F8FE791E00E942D
S1130760280F68A579A58AA59BA50E94A10F84E8F6
S113077091E00E94280F6CA57DA58EA59FA50E94DF
S1130780E60F87E995E00E94280FDF91CF911F9132
S113079008956F927F928F929F92AF92BF92CF9261
S11307A0DF92EF92FF920F931F93CF93DF93CDB716
S11307B0DEB72C970FB6F894DEBF0FBECDBF5B013A
S11307C06A01F22E6BE871E00E9458148C010097C4
S11307D009F4D0C16DE871E00E947114892B29F4E9
S11307E082E991E00E94280FC5C166E172E0C80168
S11307F00E947114892B39F06BE172E0C8010E94E8
S11308007114892B31F4F60160818F2D0E94C9097E
S1130810B1C164E272E0C8010E947114892B21F411
S11308208F2D0E947D07A6C169E272E0C8010E9473
S11308307114892B29F08DE292E00E944B029AC137
S11308406BE871E080E090E00E9458148C010097FE
S113085029F48DE392E00E944B028CC162ED73E0B7
S11308600E947114892B31F4F6016081C5010E9444
S11308703D0380C16DE672E0C8010E947114892BAA
S113088009F049C06BE871E080E090E00E945814E0
S11308903C016BE871E080E090E00E9458144C0148
S11308A06BE871E080E090E00E9458149E012F5F95
S11308B03F4F79018E010B5F1F4F285F3F4FA3010C
S11308C0B4010E940403811105C084E592E00E94F2
S11308D04B0250C189859A85AB85BC85F50180871B
S11308E09187A287B3878D819E81AF81B8858487E4
S11308F09587A687B78789819A81AB81BC81808BD4
S1130900918BA28BB38B82E0F601808389E692E01F
S11309100E945C022FC16BE872E0C8010E9471144E
S1130920892B09F058C06BE871E080E090E00E94E8
S113093058143C016BE871E080E090E00E94581488
S11309404C016BE871E080E090E00E9458149E0135
S11309502F5F3F4F79018E010B5F1F4F285F3F4F81
S1130960A301B4010E9404038823D9F089859A85E0
S1130970AB85BC85181619061A061B0694F44D811E
S11309805E816F81788514161506160617064CF4D9
S113099009811A812B813C81101611061206130657
S11309A02CF084E792E00E944B02E4C0F501848BB2
S11309B0958BA68BB78B408F518F628F738F048F6B
S11309C0158F268F378F82E0F601808387E892E0C7
S11309D00E945C02CFC068EA72E0C8010E947114F0
S11309E0892B09F049C06BE871E080E090E00E9437
S11309F058143C016BE871E080E090E00E945814C8
S1130A004C016BE871E080E090E00E9458149E0174
S1130A102F5F3F4F79018E010B5F1F4F285F3F4FC0
S1130A20A301B4010E949C02811105C080E992E0F7
S1130A300E944B029FC089859A85AB85BC85F501D0
S1130A4080A391A3A2A3B3A38D819E81AF81B88516
S1130A5084A395A3A6A3B7A389819A81AB81BC8102
S1130A6080A791A7A2A7B3A782E0F601808384EAB6
S1130A7092E00E945C027EC064EC72E0C8010E94B5
S1130A807114892B29F56BE871E080E090E00E94F5
S1130A905814009739F0BE016F5F7F4F0E94D50252
S1130AA0811105C08EEA92E00E944B0263C08981E5
S1130AB09A81AB81BC81F50184A795A7A6A7B7A7A6
S1130AC082E0F601808380EC92E00E945C0252C0D6
S1130AD06DEC72E0C8010E947114892B79F5F5015F
S1130AE080A991A9A2A9B3A90196A11DB11D80ABAA
S1130AF091ABA2ABB3ABC5010E947C01882369F022
S1130B0081E0F601808389EC92E00E945C02F601A8
S1130B106081C5010E943D032DC0F50180A991A902
S1130B20A2A9B3A90197A109B10980AB91ABA2AB6A
S1130B30B3AB82ED92E00E944B021CC06BEE72E0FC
S1130B40C8010E947114892B89F40E94CF01C50148
S1130B500E941201F601108287EE92E00E945C026C
S1130B60F6016081C5010E943D0304C081EF92E05B
S1130B700E944B022C960FB6F894DEBF0FBECDBF79
S1130B80DF91CF911F910F91FF90EF90DF90CF9065
S1130B90BF90AF909F908F907F906F900895DF9259
S1130BA0EF92FF920F931F93CF93DF93CDB7DEB7EE
S1130BB0C056D1090FB6F894DEBF0FBECDBF8C016D
S1130BC07B01D42E0E94A710882391F00E94AA10C2
S1130BD00E94610788E093E00E944B0209C00E94D2
S1130BE053072D2DA701B801CE0101960E94C90318
S1130BF060E6CE0101960E9443108111F0CFC05AE5
S1130C00DF4F0FB6F894DEBF0FBECDBFDF91CF919B
S1130C101F910F91FF90EF90DF900895DC0140E069
S1130C2050E08FEF9FEF1BC0FD01E40FF51F208103
S1130C3030E0322F22278227932720E00CC099230B
S1130C403CF4880F991F31E2832730E1932702C0D7
S1130C50880F991F2F5F283090F34F5F5F4F46171F
S1130C60570710F3089582E084BD85BD8CE787BDE6
S1130C7016BCEEE6F0E080818260808308951F92C6
S1130C800F920FB60F9211242F938F939F93AF93CC
S1130C90BF938091A1069091A20601969093A2061B
S1130CA08093A1068091A1069091A206883E93406C
S1130CB0B8F01092A2061092A10680919D06909120
S1130CC09E06A0919F06B091A0060196A11DB11D9C
S1130CD080939D0690939E06A0939F06B093A006D2
S1130CE0BF91AF919F918F912F910F900FBE0F9055
S1130CF01F9018958091CB0780939806E0E8F6E062
S1130D001082118212821382148215821682178233
S1130D101086118612861386148615861686178603
S1130D20108A118A128A138A148A158A168A178AD3
S1130D301092A2061092A10610929D0610929E0691
S1130D4010929F061092A00688E390E00E94B414CB
S1130D506093990670939A0680939B0690939C06E1
S1130D606F3F7F4F8F4F9F4F41F41092990610921F
S1130D709A0610929B0610929C06409199065091F7
S1130D809A0660919B0670919C064F5F5F4F6F4F70
S1130D907F4F4093990650939A0660939B067093F5
S1130DA09C0688E390E00E94DC140E9433060895B8
S1130DB02FB7F89460919D0670919E0680919F06CE
S1130DC09091A0062FBF08956091990670919A069C
S1130DD080919B0690919C0608958091980680FFCF
S1130DE006C089E193E00E94280F81E001C080E001
S1130DF09091980691FF0AC0882319F08CE70E940D
S1130E00210F82E293E00E94280F81E090919806DE
S1130E1092FF0AC0882319F08CE70E94210F8BE20D
S1130E2093E00E94280F81E09091980693FF0AC0F6
S1130E30882319F08CE70E94210F85E393E00E9438
S1130E40280F81E0811104C08EE393E00E94280FF3
S1130E500895E0E8F6E080819181A281B381019652
S1130E60A11DB11D80839183A283B3830895E0E81B
S1130E70F6E084819581A681B7810196A11DB11DFB
S1130E8084839583A683B7830895E0E8F6E080859C
S1130E909185A285B3850196A11DB11D8087918797
S1130EA0A287B3870895E0E8F6E084859585A68552
S1130EB0B7850196A11DB11D84879587A687B7873D
S1130EC00895E0E8F6E080899189A289B3890196C2
S1130ED0A11DB11D808B918BA28BB38B0895E0E88B
S1130EE0F6E084899589A689B7890196A11DB11D6B
S1130EF0848B958BA68BB78B0895CF93DF93C82FE4
S1130F0086E493E00E94280F8C2F90E00E944A0F01
S1130F1085E593E00E94280F0E94D8060E94A10F45
S1130F2080E693E00E94280F6091990670919A06DA
S1130F3080919B0690919C060E94A10F88E693E005
S1130F400E94280FC0E8D6E0688179818A819B815C
S1130F500E94A10F82E793E00E94280F6C817D819B
S1130F608E819F810E94A10F8EE793E00E94280F3B
S1130F70688579858A859B850E94A10F88E893E01E
S1130F800E94280F6C857D858E859F850E94A10F08
S1130F9083E993E00E94280F688979898A899B896B
S1130FA00E94A10F8EE993E00E94280F6C897D892D
S1130FB08E899F890E94A10F8BEA93E00E94280FDB
S1130FC00E94ED0683EB93E00E94280F809198061F
S1130FD00E94350F87E995E00E94280FDF91CF9199
S1130FE008950E9404090E945309FDCF2F923F9255
S1130FF04F925F926F927F928F929F92AF92BF9225
S1131000CF92DF92EF92FF920F931F93CF93DF93D0
S1131010CDB7DEB76A970FB6F894DEBF0FBECDBF6B
S1131020009709F4B6C06115710509F4B4C01A013A
S1131030788B6F879E8B8D8B10E000E01E86412C91
S1131040512C32011A861B861C861D86812C912CFC
S11310505401C12CD12C760145C0CE0101960E94C9
S1131060930B882399F189819A81092E000CAA0B8C
S1131070BB0BC80ED91EEA1EFB1E8B819C81092E58
S1131080000CAA0BBB0B880E991EAA1EBB1E8D81D9
S11310909E81092E000CAA0BBB0B2A853B854C852F
S11310A05D85280F391F4A1F5B1F2A873B874C87A2
S11310B05D878F819885092E000CAA0BBB0B480E07
S11310C0591E6A1E7B1E39853E870F5F2114310429
S11310D011F0F101099587EA91E60197F1F700C053
S11310E000001F5F1A3008F4B8CFAF85B889519655
S11310F00C93002309F451C0202F30E040E050E06D
S1131100298B3A8B4B8B5C8BC301B2010E94CF10AD
S11311102F8B388F498F5A8F6A857B858C859D8567
S113112029893A894B895C890E94CF102A873B8799
S11311304C875D87C501B40129893A894B895C894B
S11311400E94CF1029013A01C701B60129893A89C1
S11311504B895C890E94CF10CA01B90138893F9339
S11311604F854F938E84AF88B88CC98CDA8CEA840F
S1131170FB840C851D85A30192010E94EC0B6F85F5
S113118078898D899E890E94F2010F900F9081E0E9
S113119005C080E003C080E001C080E06A960FB61D
S11311A0F894DEBF0FBECDBFDF91CF911F910F9199
S11311B0FF90EF90DF90CF90BF90AF909F908F9073
S11311C07F906F905F904F903F902F900895409143
S11311D0A30668EA76E089EA96E00E94CF0580914A
S11311E0A8060E94070B0E94190B08950E94E80CA0
S11311F082E00E94EF0A0E94E7088FE493EC0197D3
S1131200F1F700C00000F7CFCF93DF931F92CDB763
S1131210DEB719820E947A060E94E50C0E940C0E29
S11312200E9488000E94950A0E94A30A78940E9452
S113123095008093A3061092A4061092A50610921E
S1131240A6061092A70689EA96E00E9442018093BE
S1131250A8060E94070BCE0101960E94640B81111F
S113126004C083EC93E00E94F6080E94740B811181
S113127004C087ED93E00E94F60881E00E94EF0A23
S113128029814091A3066091A80689EA96E00E940C
S1131290F90C6091A8068091A3060E943D0A0F9064
S11312A0DF91CF9108950F931F93CF93DF93CDB721
S11312B0DEB762970FB6F894DEBF0FBECDBF0E94B3
S11312C0E70847EE58E0BE016F5F7F4F89EA96E07A
S11312D00E94F607811118C081EE93E00E94280F46
S11312E06091A4067091A5068091A6069091A70628
S11312F00E94A10F87E995E00E94280F82E00E94D6
S1131300EF0A0E9437072DC081E00E94EF0A0E9475
S113131029074091A4065091A5066091A6067091F4
S1131320A7068E010F5F1F4F2091A8068091A30688
S11313300E945D0D8091A4069091A506A091A60639
S1131340B091A7060196A11DB11D8093A4069093A8
S1131350A506A093A606B093A7069BB180E28927B1
S11313608BB962960FB6F894DEBF0FBECDBFDF9186
S1131370CF911F910F910895813029F0823031F47B
S113138086E091E0089580E091E008958CE091E09A
S11313900895CF93DF93D82FC62F82E094E00E9464
S11313A0280F8D2F90E00E944A0F81E194E00E9463
S11313B0280F8AE194E00E94280F88E294E00E94BA
S11313C0280F81E090E00E944A0F80E394E00E949D
S11313D0280F8CE394E00E94280F8EE394E00E948F
S11313E0280F83E494E00E94280F84E594E00E948F
S11313F0280F8AE594E00E94280F86E694E00E9474
S1131400280F8FE694E00E94280F8AE794E00E9458
S1131410280F8AE091E00E944A0F82E894E00E943B
S1131420280F8AE090E00E944A0F88E894E00E9426
S1131430280F81E090E00E944A0F85E994E00E9421
S1131440280F8C2F0E94BC090E94280F8BE994E07E
S11314500E94280F88EA94E00E94280F84EB94E00D
S11314600E94280F81EC94E00E94280F87E995E000
S11314700E94280FDF91CF910895CF93DF93D82F47
S1131480C62F8AEC94E00E94280F8AE194E00E941F
S1131490280F8AED94E00E94280F81E090E00E94DA
S11314A04A0F80E394E00E94280F8CE394E00E94AA
S11314B0280F84E594E00E94280F8AE594E00E94B6
S11314C0280F86E694E00E94280F8FE694E00E949D
S11314D0280F85EE94E00E94280F8D2F90E00E9443
S11314E04A0F85E994E00E94280F8C2F0E94BC09C2
S11314F00E94280F8FEE94E00E94280F88EA94E05F
S11315000E94280F84EB94E00E94280F81EC94E061
S11315100E94280F87E995E00E94280FDF91CF9160
S113152008958BB18F718BB908958AB1806E8AB991
S11315300E94910A1092E4061092E3061092E206C9
S11315401092E10608950E94910A8BB180628BB9D2
S11315508FE59AEE0197F1F700C000000E94910A0E
S11315608FE295E70197F1F700C000008BB180642A
S11315708BB98FE59AEE0197F1F700C000000E9445
S1131580910A8FE295E70197F1F700C000008BB153
S113159080688BB98FE59AEE0197F1F700C00000DF
S11315A00E94910A8FE295E70197F1F700C00000CD
S11315B08BB1806E8BB99FE926E881E09150204081
S11315C08040E1F700C000000E94910A1092E406F6
S11315D01092E3061092E2061092E10608959091AB
S11315E0E406981799F08093E4061092E2068111BC
S11315F004C08BB18F7B8BB90895813021F48BB1FA
S113160080648BB908958BB18F7B8BB908959091C9
S1131610E306981769F08093E3061092E10681309F
S113162021F48BB180688BB908958BB18F778BB916
S113163008958091E406813021F48BB180648BB9E4
S113164013C0811104C08BB18F7B8BB90DC0809105
S1131650E2068F5F8093E206823030F01092E20659
S11316609BB180E489278BB98091E306811104C082
S11316708BB18F778BB90895813021F48BB1806859
S11316808BB908958091E1068F5F8093E1068530E0
S113169028F01092E1068BB180588BB9089590E040
S11316A0982F8827862B0895CF93462F682F85E39C
S11316B00E94180EC82F811103C00E94450701C063
S11316C0C1E08C2FCF910895CF93AC016DE085E3F9
S11316D00E944C0EC82F811103C00E94450701C00F
S11316E0C1E08C2FCF91089560E080E00E94540BFC
S11316F08823C1F060E081E00E94540B882391F0BC
S113170064E782E00E94540B882361F063E083E085
S11317100E94540B882331F061E087E00E94540B4F
S1131720811181E00895EF92FF921F93CF93DF938D
S1131730CDB7DEB729970FB6F894DEBF0FBECDBF85
S11317407C0140E06DE885E30E94180E182F81119A
S113175003C00E94450733C081EE94E00197F1F77E
S113176000C0000029E0AE014F5F5F4F60E185E3F8
S11317700E948F0E182F811103C00E9445071FC0BD
S11317806A8189810E944F0BF701918380836C8168
S11317908B810E944F0BF701938382836E818D812D
S11317A00E944F0BF7019583848368858F810E9483
S11317B04F0BF701978386838985808711E0812FFA
S11317C029960FB6F894DEBF0FBECDBFDF91CF913F
S11317D01F91FF90EF9008953F924F925F926F9206
S11317E07F928F929F92AF92BF92CF92DF92EF92AD
S11317F0FF920F931F93CF93DF93CDB7DEB72901E9
S11318003A01382C8C889D889B01AC0124563444C1
S113181041095109A8EEB3E00E94FD1029E532E028
S113182040E050E00E94CF10DA01C9018C53964F7A
S1131830AF4FBF4FF40180839183A283B383A8EE9B
S1131840B7E6A30192010E94FD102B013C019923EC
S113185034F4FFEF4F0EFFE75F1E611C711CD301D0
S1131860C201072E7FE0B595A795979587957A9540
S1131870D1F7702DF40184839583A683B783A8EEF2
S1131880B7E6A80197010E94FD108B019C019923E2
S113189024F4015010482F4F3F4FD901C801072E9F
S11318A07FE0B595A795979587957A95D1F7702D93
S11318B0F40180879187A287B387A8EEB7E6A601D3
S11318C095010E94FD108B019C01992324F4015081
S11318D010482F4F3F4FD901C801072E7FE0B5951F
S11318E0A795979587957A95D1F7702DF4018487FC
S11318F09587A687B787308ADF91CF911F910F9183
S1131900FF90EF90DF90CF90BF90AF909F908F901B
S11319107F906F905F904F903F900895813029F0B1
S1131920823031F486E091E0089580E091E00895FA
S11319308CE091E008951F93CF93DF93EC01162F71
S11319408DEF94E00E94280F812F0E948E0C0E943C
S1131950280F8AE095E00E94280F8C819D810E94C7
S11319604A0F84E195E00E94280F68A979A98AA901
S11319709BA90E94A10F87E995E00E94280F8EE1A0
S113198095E00E94280F688579858A859B850E9449
S113199002108CE295E00E94280F6C857D858E856F
S11319A09F850E9402108BE395E00E94280F6889AE
S11319B079898A899B890E94021087E995E00E94AF
S11319C0280FDF91CF911F9108950E94130F08955E
S11319D0CF93DF93EC018AE495E00E94280FCE01B7
S11319E00E94280F87E995E00E94280FDF91CF918C
S11319F00895FF920F931F93CF93DF938C01F62EDC
S1131A00C42FD22F81E595E00E94280F8AE194E04B
S1131A100E94280F8FE695E00E94280F8AE995E03E
S1131A200E94280F8AE090E00E944A0F8BEA95E01A
S1131A300E94280F84E690E00E944A0F80EC95E013
S1131A400E94280F87E794E00E94280F80ED95E01C
S1131A500E94280F8AE091E00E944A0F87E995E0EE
S1131A600E94280F6F2DC8010E949B0C80EE95E008
S1131A700E94280F8D2F0E94350F82EF95E00E945F
S1131A80280F8C2F90E00E944A0F8CE096E00E9471
S1131A90280F0E94ED068BE196E00E94280F0E9419
S1131AA0E4060E94A10F88E296E00E94280FDF91CD
S1131AB0CF911F910F91FF9008958F929F92AF92B3
S1131AC0BF92EF92FF920F931F93CF93DF93E82E71
S1131AD04A015B01F22EE80183E496E00E94280F9C
S1131AE08AE194E00E94280F80E593E00E94280F89
S1131AF08E2D90E00E944A0F8CEF93E00E94280FF5
S1131B00C501B4010E94A10F82E894E00E94280F4D
S1131B10898990E00E944A0F85E994E00E94280F89
S1131B208F2D0E948E0C0E94280F8FE496E00E9455
S1131B30280F688179818A819B810E94021083E544
S1131B4096E00E94280F6C817D818E819F810E9486
S1131B50021088E596E00E94280F688579858A85B9
S1131B609B850E9402108DE596E00E94280F6C85EB
S1131B707D858E859F850E94021082E696E00E94F4
S1131B80280F88890E94350F87E995E00E94280F65
S1131B90DF91CF911F910F91FF90EF90BF90AF9085
S1131BA09F908F90089584EA8093DC008091DC00FC
S1131BB08823E4F78091D900887F883021F0803130
S1131BC021F481E0089581E0089580E0089584E996
S1131BD08093DC0008958093DB0084E88093DC002C
S1131BE08091DC008823E4F78091D900887F0895F0
S1131BF084EC8093DC008091DC008823E4F78091FE
S1131C00DB00089584E88093DC008091DC00882365
S1131C10E4F78091DB0008958EB183608EB9109251
S1131C20D90082E08093D80084E08093DC0008959A
S1131C300F931F93CF93DF93D82F162F042F0E9457
S1131C40D30DC82F811103C00E94E70D1FC08D2F33
S1131C50880F0E94EB0D883121F00E94E70DC0E04F
S1131C6015C0812F0E94EB0D883221F00E94E70DF0
S1131C70C0E00CC0802F0E94EB0D883221F00E943E
S1131C80E70DC0E003C00E94E70DC1E08C2FDF9197
S1131C90CF911F910F910895EF92FF921F93CF93CD
S1131CA0DF93D82F162F7A010E94D30DC82F8111EC
S1131CB003C00E94E70D2CC0DD0F8D2F0E94EB0D99
S1131CC0883121F00E94E70DC0E022C0812F0E94DC
S1131CD0EB0D883221F00E94E70DC0E019C00E948C
S1131CE0D30DC82F811103C00E94E70D11C08D2FA1
S1131CF081600E94EB0D803421F00E94E70DC0E06A
S1131D0007C00E94020EF70180830E94E70DC1E024
S1131D108C2FDF91CF911F91FF90EF900895EF9258
S1131D20FF920F931F93CF93DF93222309F448C0AC
S1131D30C22F7A01062F182F0E94D30DD82F81119C
S1131D4003C00E94E70D3DC0110F812F0E94EB0DCF
S1131D50883121F00E94E70DD0E033C0802F0E942B
S1131D60EB0D883221F00E94E70DD0E02AC00E94DA
S1131D70D30DD82F811103C00E94E70D22C0812FFB
S1131D8081600E94EB0D8034A1F00E94E70DD0E049
S1131D9018C087010D0F111D8FEF8C0FD81303C0CE
S1131DA00E94020E02C00E94F80DF8018083DF5FDA
S1131DB001C0D0E0DC1768F30E94E70DD1E001C058
S1131DC0D0E08D2FDF91CF911F910F91FF90EF9075
S1131DD008951F920F920FB60F9211242F938F9391
S1131DE09F93EF93FF932091C6008091C8078F5F64
S1131DF08F779091C707891304C081E08093C60749
S1131E0008C0E091C807F0E0EA5BF84F20838093B4
S1131E10C807FF91EF919F918F912F910F900FBE63
S1131E200F901F9018951092C5008CE08093C40009
S1131E301092C00088E98093C10086E08093C200BC
S1131E4008959091C00095FFFCCF8093C60008953B
S1131E50CF93DF93EC0103C021960E94210F888168
S1131E608111FACFDF91CF910895CF93C82FE82F36
S1131E70E295EF70F0E0E359F94F80810E94210F61
S1131E80CF70EC2FF0E0E359F94F80810E94210FCD
S1131E90CF9108951F93CF93DF9300D000D01F926A
S1131EA0CDB7DEB7AC01892B91F580E30E94210FF9
S1131EB03FC09A01ADECBCEC0E94EE10969587955C
S1131EC096958795969587959C01220F331F880FC9
S1131ED0991F880F991F880F991F820F931F9A01CA
S1131EE0281B390BC901805DE1E0F0E0EC0FFD1F18
S1131EF0E10FF11D80839A010E94EE10AC0156950A
S1131F00479556954795569547951F5F01C010E034
S1131F104115510571F60AC01150E1E0F0E0EC0FF3
S1131F20FD1FE10FF11D80810E94210F1111F4CFDB
S1131F300F900F900F900F900F90DF91CF911F9102
S1131F4008951F93CF93DF93CDB7DEB72A970FB6CB
S1131F50F894DEBF0FBECDBF6115710581059105F3
S1131F60C1F480E30E94210F27C02AE030E040E062
S1131F7050E00E94AD10605DE1E0F0E0EC0FFD1F69
S1131F80E10FF11D6083622F732F842F952F1F5F44
S1131F9001C010E0611571058105910531F70AC092
S1131FA01150E1E0F0E0EC0FFD1FE10FF11D808125
S1131FB00E94210F1111F4CF2A960FB6F894DEBFB8
S1131FC00FBECDBFDF91CF911F910895CF92DF92C5
S1131FD0EF92FF926B017C0199235CF48DE20E94E5
S1131FE0210FF094E094D094C094C11CD11CE11C46
S1131FF0F11CC701B6010E94A10FFF90EF90DF9082
S1132000CF900895CF92DF92EF92FF92CF93DF9318
S11320106B017C0199235CF48DE20E94210FF09402
S1132020E094D094C094C11CD11CE11CF11CC701E4
S1132030B60124E630E040E050E00E94CF10D62FF5
S1132040CA01B9010E94A10F8EE20E94210FCDECBA
S1132050DC9FC12D1124C695C695C69580E38C0FCF
S11320600E94210FCC0F8C2F880F880FC80F8D2F43
S11320708C1B805D0E94210FDF91CF91FF90EF9028
S1132080DF90CF900895DC015AC0E091C707F0E0DB
S1132090EA5BF84F80819091C7079F5F9F77909389
S11320A0C7078D3011F08A3039F5E0914507EE23EA
S11320B009F445C0F0E0EB51F94F108290E005C0FF
S11320C0FD01E20FF31F40839F5F292F30E0F901E8
S11320D03196462F50E0E417F50730F4F901EB513F
S11320E0F94F40814111ECCFFD01E20FF31F108243
S11320F01092450781E00895883011F08F3741F43C
S1132100809145078823D9F081508093450717C0F3
S1132110E09145072E2F30E02F5F3F4F20363105E9
S113212048F491E09E0F90934507F0E0EB51F94F8E
S1132130808305C01092450781E08093C607909183
S1132140C7078091C8079813A0CF80E008958091B5
S1132150C60708951092C6070895A1E21A2EAA1B75
S1132160BB1BFD010DC0AA1FBB1FEE1FFF1FA21743
S1132170B307E407F50720F0A21BB30BE40BF50B40
S1132180661F771F881F991F1A9469F760957095C9
S1132190809590959B01AC01BD01CF010895052E5A
S11321A097FB1EF400940E94E61057FD07D00E948E
S11321B0AD1007FC03D04EF40C94E61050954095F6
S11321C0309521953F4F4F4F5F4F089590958095DF
S11321D0709561957F4F8F4F9F4F0895A29FB001D7
S11321E0B39FC001A39F700D811D1124911DB29F47
S11321F0700D811D1124911D08950E94EE10A59F5C
S1132200900DB49F900DA49F800D911D11240895ED
S1132210DF93CF931F930F939A9DF02D219FF00D81
S11322208B9DF00D8A9DE02DF10D039FF00D029F13
S1132230E00DF11D4E9DE00DF11D5E9DF00D4F9DD5
S1132240F00D7F936F93BF92AF925F934F93D5013D
S11322500E94EE108B01AC01D7010E94EE10EB013D
S1132260E80FF91FD6010E9458112F913F91D60112
S11322700E94EE10C60FD71FE81FF91FAF91BF9140
S11322800E9458112F913F910E94EE10C60FD71F44
S1132290E81FF91FD6010E94EE10E60FF71F980100
S11322A0BE01CF0111240F911F91CF91DF910895A9
S11322B00E94EE10460F571FC81FD91F08F431960D
S11322C00895689401C0E894F92FF12B12F00C944E
S11322D09511A0E0B0E0EFE6F1E10C940712092EAD
S11322E0059422F40E94F111112392F4F0E80F26D0
S11322F0FFEFE094F09400951095B094C094D094BE
S1132300A194BF0ACF0ADF0AEF0AFF0A0F0B1F0BC3
S11323100E94A01107FC0E94F111CDB7DEB7ECE0DA
S11323200C942312689401C0E8948F929F92CF93E7
S1132330DF930E94A011DF91CF919F908F90089519
S113234088249924F401E401B0E49F93AA279A1500
S11323508B049C04ED05FE05CF05D007A10798F476
S1132360AD2FDC2FCF2FFE2FE92D982C892E982FFF
S1132370872F762F652F542F432F322F2227B850C3
S113238031F7BF9127C01B2EBF91BB27220F331FEC
S1132390441F551F661F771F881F991F881C991C8F
S11323A0EE1FFF1FCC1FDD1FAA1FBB1F8A149B0437
S11323B0EC05FD05CE05DF05A007B10748F08A1836
S11323C09B08EC09FD09CE09DF09A00BB10B2160C4
S11323D01A94E1F62EF49401AF01BE01CD01000C74
S11323E00895609570958095909530954095509599
S11323F021953F4F4F4F5F4F6F4F7F4F8F4F9F4FF1
S113240008952F923F924F925F926F927F928F9294
S11324109F92AF92BF92CF92DF92EF92FF920F936F
S11324201F93CF93DF93CDB7DEB7CA1BDB0B0FB679
S1132430F894DEBF0FBECDBF09942A883988488836
S11324405F846E847D848C849B84AA84B984C884CC
S1132450DF80EE80FD800C811B81AA81B981CE0FC3
S1132460D11D0FB6F894DEBF0FBECDBFED010895A8
S11324700024A7FD00942A17300540055005600587
S11324807005800590050895A0E0B0E0EAE4F2E16B
S11324900C9402125C016B017A016115710519F04B
S11324A0FB0191838083E114F10429F0C7010297B1
S11324B0839708F0E5C0E5012196F5011081812F8D
S11324C090E00E944F14892B11F05E01F4CF1D326D
S11324D029F42196F501118101E007C01B3221F492
S11324E0E5012296F501118100E0E114F10409F1FE
S11324F0F0E1EF16F10429F43FC010E3E114F10414
S113250021F128E0E216F10401F154F4E2E0EE16C0
S1132510F10421F5812C912CA12CB0E4BB2E3EC0FA
S1132520FAE0EF16F10439F020E1E216F104B1F417
S113253030C0103319F1FAE0EF2EF12CACEC8A2EF6
S1132540982CA82CACE0BA2E29C078E0E72EF12C08
S1132550812C912CA12CE0E1BE2E20C060E070E023
S113256080E090E897010F2C000C440B550B0E945F
S1132570AD1049015A0112C0103359F488818F7D7E
S1132580883509F0BACF19812296026080E1E82EDD
S1132590F12C812C912CA12C68E0B62E40E060E057
S11325A070E0CB0127010F2C000C66087708FE01B0
S11325B050ED352E310E29E0231570F42FEB210F49
S11325C02A3118F439EC332E06C02FE9210F2A31B1
S11325D018F529EA322E310E232D30E02E153F0551
S11325E0DCF447FD16C086169706A806B90670F0F7
S11325F0A30192010E94E814630D711D811D911DB8
S113260061307105810520E8920710F04FEF01C099
S113261041E021961081CBCF202F2170C114D10429
S113262071F0442329F02197F601D183C08307C0B8
S113263001FF19C02297F601D183C08314C047FF5C
S113264012C0222329F060E070E080E090E804C02A
S11326506FEF7FEF8FEF9FE722E230E03093CA07FE
S11326602093C90709C0222381F090958095709525
S113267061957F4F8F4F9F4F462F372F282F12C0C2
S113268040E030E020E090E00DC097FFF5CF82E21B
S113269090E09093CA078093C9076FEF7FEF8FEFA5
S11326A09FE7EACF642F732F822FCDB7DEB7E1E126
S11326B00C941E12A0E0B0E0E0E6F3E10C940212E8
S11326C05C016B017A016115710519F0FB019183BD
S11326D08083E114F10429F0C7010297839708F07D
S11326E0C9C0E5012196F5011081812F90E00E9477
S11326F04F14892B11F05E01F4CF1D3229F4219679
S1132700F501118101E007C01B3221F4E501229695
S1132710F501118100E0E114F104B1F0F0E1EF16EC
S1132720F10429F4B0C010E3E114F10401F12AE04A
S1132730E216F104B1F180E1E816F10471F0E8E089
S1132740EE16F104F1F413C0103341F588818F7D46
S1132750883549F7198122960260F0E1EF2EF12CB9
S113276088248A94982CA82CAFE0BA2E20C078E054
S1132770E72EF12C88248A94982CA82CEFE1BE2E05
S113278016C06FEF7FEFCB0197010F2C000C440BA9
S1132790550B0E94AD1049015A0109C08AE0E82E88
S11327A0F12C69E9862E982CA82C69E1B62E40E01C
S11327B060E070E0CB0127010F2C000C660877085D
S11327C0FE0150ED352E310E29E0231570F42FEB68
S11327D0210F2A3118F439EC332E06C02FE9210FCA
S11327E02A3130F529EA322E310E232D30E02E1510
S11327F03F05F4F44F3FC9F086169706A806B906BC
S113280088F0A30192010E94E814232D30E040E0F7
S113281050E0620F731F841F951F621773078407AC
S1132820950710F44FEF01C041E021961081C8CF05
S1132830C114D10451F0442311F0219703C001FFC6
S113284004C02297F601D183C08300FF07C090958E
S11328508095709561957F4F8F4F9F4F4F3F79F4CF
S113286082E290E09093CA078093C9073FEF2FEF6D
S11328709FEF0DC040E030E020E090E008C0462F1C
S1132880372F282F04C0103309F067CF5FCF642F90
S1132890732F822FCDB7DEB7E1E10C941E12911194
S11328A00C94A114803219F089508550C8F708950A
S11328B04EE756E00E947A140895FB01DC0104C03F
S11328C08D910190801921F441505040C8F7881B24
S11328D0990B0895DC0101C06D9341505040E0F71D
S11328E00895FB01DC018D91019080190110D9F349
S11328F0990B0895FA01A191B081009719F41097EA
S1132900E1F0CD01DC01CD010D90002011F4C001F6
S113291013C0FB012191222319F02015D9F7F3CF1D
S1132920FB012191201519F41E92119606C0222351
S1132930C1F70D900020A1F7D001FA01A193B08353
S11329400895992788270895DC01CB01FC01F999A2
S1132950FECF06C0F2BDE1BDF89A319600B40D92E7
S113296041505040B8F70895A6E1B0E044E050E08B
S11329700C94A614DC01A40FB51F4150504048F03C
S1132980CB01840F951F2E910E94CB1441505040CF
S1132990D0F70895262FF999FECF92BD81BDF89AFC
S11329A0019700B4021639F01FBA20BD0FB6F8948F
S11329B0FA9AF99A0FBE08950396272F0E94CB1412
S11329C00E94CA14252F0E94CB14242F0C94CB14DC
S11329D0DB018F939F930E94FD10BF91AF91A29F43
S11329E0800D911DA39F900DB29F900D1124089509
S10729F0F894FFCF85
S11329F456414C49440044495254590044454641C3
S1132A04554C5400244E443238305253502C4552C1
S1132A14524F522C524541534F4E3D00244E4432A2
S1132A2438305253502C4F4B2C434D443D00244ECC
S1132A344432383043414C2C53544154453D002CCA
S1132A44434F554E543D002C4F583D002C4F593D97
S1132A54002C4F5A3D002C47583D002C47593D004B
S1132A642C475A3D002C4E583D002C4E593D002C09
S1132A744E5A3D002C5443414C3D00200048454CE3
S1132A845000244E443238305253502C434F4D4D51
S1132A94414E44533D48454C507C494E464F7C4935
S1132AA444454E544954597C444941477C43414C20
S1132AB420524541447C43414C204F46465345549F
S1132AC420782079207A7C43414C204741494E2088
S1132AD4782079207A7C43414C204E4F4953452039
S1132AE4782079207A7C43414C2054454D502074FD
S1132AF47C43414C20534156457C43414C20524530
S1132B045345540D0A00494E464F004944454E541A
S1132B1449545900444941470043414C00554E4BE4
S1132B244E4F574E5F434F4D4D414E44004D495314
S1132B3453494E475F43414C5F535542434F4D4DB8
S1132B44414E44004241445F4F46465345545F411D
S1132B545247554D454E54530043414C5F4F4646EE
S1132B64534554004241445F4741494E5F415247F3
S1132B74554D454E54530043414C5F4741494E0023
S1132B844241445F4E4F4953455F415247554D4579
S1132B944E54530043414C5F4E4F49534500424108
S1132BA4445F54454D505F415247554D454E540082
S1132BB443414C5F54454D500043414C5F5341568F
S1132BC44500454550524F4D5F5645524946595F5D
S1132BD44641494C45440043414C5F524553455496
S1132BE400554E4B4E4F574E5F43414C5F53554235
S1132BF4434F4D4D414E4400554152545F52585F2A
S1132C044F564552464C4F5700504F5745525F4F0D
S1132C144E0045585445524E414C0042524F574E73
S1132C245F4F5554005741544348444F4700554E51
S1132C344B4E4F574E00244E44323830444941479A
S1132C442C49443D002C555054494D455F533D0097
S1132C542C424F4F54533D002C4D4541535F4F4B31
S1132C643D002C4D4541535F4641494C3D002C5495
S1132C7457495F4552523D002C554152545F434DD0
S1132C84443D002C554152545F4F56463D002C455B
S1132C944550524F4D5F4552523D002C52455345C9
S1132CA4543D002C52455345545F464C4147533DD3
S1132CB4307800544D41475F4445564943455F4984
S1132CC4445F5245414400544D41475F494E495481
S1132CD4004552524F522C544D41475F4E4F5F565C
S1132CE4414C49445F53414D504C45532C53455139
S1132CF43D00244E44323830494E464F2C49443D1D
S1132D04002C4E4F44454F533D00302E352E312D6B
S1132D14616C7068613262002C50524F544F3D0014
S1132D242C424F4152445F5245563D0041002C48C9
S1132D34573D00544D414720446562756720426FF6
S1132D44617264002C4D43553D0041546D656761C7
S1132D543332385042002C53454E534F523D0054A5
S1132D644D4147353237334132002C52414E4745A9
S1132D743D002C4156473D002C454550524F4D5F74
S1132D845645523D002C43414C3D002C4255494C80
S1132D94445F444154453D004A756C20313520322A
S1132DA4303236002C4255494C445F54494D453D1C
S1132DB40030393A32323A3038004E4F44454F539A
S1132DC45F56455253494F4E3D002C50524F544F79
S1132DD4434F4C3D002C4E4F44455F49443D000D48
S1132DE40A4255494C445F444154453D0043414CD7
S1132DF44942524154494F4E3D002C564552534981
S1132E044F4E3D002C434F554E5445523D004341D3
S1132E144C5F4F46465345545F583D002C43414C48
S1132E245F4F46465345545F593D002C43414C5F24
S1132E344F46465345545F5A3D004552524F522C17
S1132E44000D0A4E44323830204D61676E65746952
S1132E5463204669656C64204E6F64652076000DBA
S1132E640A55415254303D343830302C52585F4363
S1132E744F4D4D414E44533D4F4E2C545749313DD3
S1132E845045302F5045310D0A00415645524147B3
S1132E94455F53414D504C45533D002C53414D50D7
S1132EA44C455F494E54455256414C5F4D533D0089
S1132EB40D0A544D41475F56415249414E543D0019
S1132EC42C544D41475F52414E47455F4D543D009C
S1132ED4544D41475F4445564943455F49443D3059
S1132EE478000D0A544D41475F494E49543D4F4BB8
S1132EF40D0A424F4152445F49443D000D0A524574
S1132F045345545F43415553453D002C424F4F5460
S1132F145F434F554E543D000D0A545950452048C3
S1132F24454C5020464F5220434F4D4D414E44533F
S1132F340D0A00244E443238302C5645523D002CA0
S1132F44543D002C42583D002C42593D002C425A19
S1132F543D002C5354415455533D307800303132A4
S1112F6433343536373839414243444546004C
S9030000FC
