:100000000C945A000C9477000C9477000C947700B1
:100010000C9477000C9477000C9477000C94770084
:100020000C9477000C9477000C9477000C94770074
:100030000C9477000C9477000C9477000C94770064
:100040000C9477000C9477000C94CC0C0C947700F3
:100050000C9477000C9477000C9477000C94770044
:100060000C9477000C9477000C9477000C94770034
:100070000C9477000C9477000C9477000C94770024
:100080000C9477000C9477000C9477000C94770014
:100090000C9477000C9477000C9477000C94770004
:1000A0000C9477000C9477000C9477000C947700F4
:1000B0000C94770011241FBECFEFD8E0DEBFCDBF78
:1000C00015E0A0E0B1E0E6E9F5E202C005900D928E
:1000D000AE3AB107D9F726E0AEEAB5E001C01D920D
:1000E000A83DB207E1F70E9408060C94C9120C94CF
:1000F000000087B1807F87B98AB18B7F8AB988B1C8
:10010000807F88B98BB18B7F8BB90895309902C0FD
:1001100080E001C081E03199826032998460339936
:1001200088604A99806180958F7108954F925F929F
:100130006F927F92AF92BF92CF92DF92EF92FF9237
:100140000F931F93DC01CB01821B930BA40BB50B08
:100150002C013D01770C4408542C3201B801A70151
:10016000770F440B542FBA01AE2CBF2CC02ED12ECA
:10017000E42EF42E042F142F282F392F4A2F5B2F13
:10018000642D742D842D942D0E94EB0EA0E00E940E
:100190001B104CF0205E3E45484F5F4F6F4F7F4F26
:1001A0008F4F9F4F08C02052314A47405109610983
:1001B0007109810991096894AA24A6F80F2EF2E426
:1001C000BF2EF02D0F2EFFE0CF2EF02DD12CE12CE5
:1001D000F12C00E010E00E94460F622F732F842F55
:1001E000952F1F910F91FF90EF90DF90CF90BF90D0
:1001F000AF907F906F905F904F90089566E370E0AE
:100200000E94E3050895CF93DF93EC0188E3FE019C
:1002100011928A95E9F788E392E3A4E4BEE4888327
:100220009983AA83BB8381E090E09D838C8388E3DC
:1002300090E09F838E8380E492E4AFE0B0E08C8B0B
:100240009D8BAE8BBF8B888F998FAA8FBB8F8C8F26
:100250009D8FAE8FBF8FCE010E94FE009FAB8EABF5
:10026000DF91CF9108950F931F93CF93DF93EC010C
:1002700048E350E060E070E00E9487128881998135
:10028000AA81BB8188339243A444BE4481F48C810B
:100290009D81019761F48E819F81C89741F40EA9D9
:1002A0001FA9CE010E94FE000817190729F0CE01F0
:1002B0000E94030180E001C081E0DF91CF911F9196
:1002C0000F910895CF93DF93CDB7DEB7C057D10913
:1002D0000FB6F894DEBF0FBECDBFFC0198E3DE0180
:1002E000119601900D929A95E1F788E392E3A4E4C8
:1002F000BEE489839A83AB83BC8381E090E09E83D4
:100300008D8388E390E098878F83CE0101960E94C9
:10031000FE0098AF8FAB48E350E060E070E0CE01A4
:1003200001960E94971248E350E060E070E0CE0131
:10033000C9960E94871248E350E0BE01675C7F4F78
:10034000CE0101960E94401221E0892B09F020E0A5
:10035000822FC059DF4F0FB6F894DEBF0FBECDBF5E
:10036000DF91CF910895CF93DF93CDB7DEB7E897B4
:100370000FB6F894DEBF0FBECDBF48E350E06FEF7D
:1003800070E0CE0101960E944D1248E350E060E01B
:1003900070E0CE0101960E949712E8960FB6F8948D
:1003A000DEBF0FBECDBFDF91CF910895CF92DF9218
:1003B000EF92FF920F931F93CF93DF936C01EB01AA
:1003C000FC01E488F58806891789208531854285F6
:1003D00053856C817D818E819F810E9496006C8304
:1003E0007D838E839F83F601E08CF18C028D138DCB
:1003F0002485358546855785688579858A859B85D9
:100400000E949600688779878A879B87F601E48C2B
:10041000F58C068D178D20893189428953896C8529
:100420007D858E859F850E9496006C877D878E874F
:100430009F87DF91CF911F910F91FF90EF90DF90F9
:10044000CF900895813029F0823031F486E091E038
:10045000089580E091E008958CE091E00895CF93B5
:10046000DF93EC0184E191E00E940B0DCE010E942C
:100470000B0D82EE94E00E940B0DDF91CF91089559
:10048000CF93DF93EC018CE291E00E940B0DCE0143
:100490000E940B0D82EE94E00E940B0DDF91CF9134
:1004A0000895EF92FF920F931F93CF93DF9300D0A5
:1004B000CDB7DEB78C017B011A8219824AE050E089
:1004C000BE016F5F7F4F0E943D11E981FA810E17D7
:1004D0001F0751F02081211109C0F701608371834A
:1004E0008283938381E003C080E001C080E00F90AD
:1004F0000F90DF91CF911F910F91FF90EF90089592
:10050000CF92DF92EF92FF920F931F93CF93DF93DF
:100510000097D9F061157105D1F041155105C9F069
:100520006A01EB01B9010E9451028823A1F0B801D0
:10053000CE010E945102882381F0B701C6010E94BA
:100540005102882361F081E00BC080E009C080E0A7
:1005500007C080E005C080E003C080E001C080E00B
:10056000DF91CF911F910F91FF90EF90DF90CF908F
:100570000895EF92FF920F931F93CF93DF9300D0D4
:10058000CDB7DEB78C017B011A8219824AE050E0B8
:10059000BE016F5F7F4F0E942710E981FA810E171D
:1005A0001F0751F02081211109C0F7016083718379
:1005B0008283938381E003C080E001C080E00F90DC
:1005C0000F90DF91CF911F910F91FF90EF900895C1
:1005D000CF92DF92EF92FF920F931F93CF93DF930F
:1005E0000097D9F061157105D1F041155105C9F099
:1005F0006A01EB01B9010E94B9028823A1F0B80198
:10060000CE010E94B902882381F0B701C6010E9481
:10061000B902882361F081E00BC080E009C080E06E
:1006200007C080E005C080E003C080E001C080E03A
:10063000DF91CF911F910F91FF90EF90DF90CF90BE
:1006400008951F93CF93DF93EC01162F8EE391E073
:100650000E940B0D812F0E9422020E940B0D88E741
:1006600095E00E940B0D8C819D810E942D0D8FE4E1
:1006700091E00E940B0D68A979A98AA99BA90E9403
:10068000840D87E591E00E940B0D688579858A8548
:100690009B850E94C90D8CE591E00E940B0D6C8535
:1006A0007D858E859F850E94C90D81E691E00E941F
:1006B0000B0D688979898A899B890E94C90D86E614
:1006C00091E00E940B0D6C897D898E899F890E9423
:1006D000C90D8BE691E00E940B0D688D798D8A8D96
:1006E0009B8D0E94C90D80E791E00E940B0D6C8DDF
:1006F0007D8D8E8D9F8D0E94C90D85E791E00E94B2
:100700000B0D68A179A18AA19BA10E94840D8AE7A3
:1007100091E00E940B0D6CA17DA18EA19FA10E9472
:10072000840D8FE791E00E940B0D68A579A58AA53D
:100730009BA50E94840D84E891E00E940B0D6CA59E
:100740007DA58EA59FA50E94C90D82EE94E00E9412
:100750000B0DDF91CF911F9108956F927F928F9231
:100760009F92AF92BF92CF92DF92EF92FF920F9340
:100770001F93CF93DF93CDB7DEB72C970FB6F894C6
:10078000DEBF0FBECDBF5B016A01F22E6BE871E0E8
:100790000E943B128C01009709F4C5C16DE871E01D
:1007A0000E945412892B29F482E991E00E940B0DDA
:1007B000BAC161E172E0C8010E945412892B39F07C
:1007C00066E172E0C8010E945412892B31F4F601EF
:1007D00060818F2D0E94DA07A6C16FE172E0C80127
:1007E0000E945412892B29F083E292E00E942F028A
:1007F0009AC16BE871E080E090E00E943B128C01AE
:10080000009729F483E392E00E942F028CC16EE1ED
:1008100073E00E945412892B31F4F6016081C50106
:100820000E94210380C163E672E0C8010E94541255
:10083000892B09F049C06BE871E080E090E00E94EC
:100840003B123C016BE871E080E090E00E943B12BB
:100850004C016BE871E080E090E00E943B129E0149
:100860002F5F3F4F79018E010B5F1F4F285F3F4F76
:10087000A301B4010E94E802811105C08AE492E05C
:100880000E942F0250C189859A85AB85BC85F501F0
:1008900080879187A287B3878D819E81AF81B8853C
:1008A00084879587A687B78789819A81AB81BC8128
:1008B000808B918BA28BB38B82E0F60180838FE5D6
:1008C00092E00E9440022FC161E872E0C8010E94DC
:1008D0005412892B09F058C06BE871E080E090E079
:1008E0000E943B123C016BE871E080E090E00E94C6
:1008F0003B124C016BE871E080E090E00E943B12FB
:100900009E012F5F3F4F79018E010B5F1F4F285FC4
:100910003F4FA301B4010E94E8028823D9F08985E2
:100920009A85AB85BC85181619061A061B0694F421
:100930004D815E816F81788514161506160617069F
:100940004CF409811A812B813C8110161106120684
:1009500013062CF08AE692E00E942F02E4C0F50113
:10096000848B958BA68BB78B408F518F628F738F43
:10097000048F158F268F378F82E0F60180838DE7F5
:1009800092E00E944002CFC06EE972E0C8010E946E
:100990005412892B09F049C06BE871E080E090E0C7
:1009A0000E943B123C016BE871E080E090E00E9405
:1009B0003B124C016BE871E080E090E00E943B123A
:1009C0009E012F5F3F4F79018E010B5F1F4F285F04
:1009D0003F4FA301B4010E948002811105C086E847
:1009E00092E00E942F029FC089859A85AB85BC85C5
:1009F000F50180A391A3A2A3B3A38D819E81AF81B2
:100A0000B88584A395A3A6A3B7A389819A81AB8156
:100A1000BC8180A791A7A2A7B3A782E0F60180833B
:100A20008AE992E00E9440027EC06AEB72E0C8014F
:100A30000E945412892B29F56BE871E080E090E068
:100A40000E943B12009739F0BE016F5F7F4F0E94FA
:100A5000B902811105C084EA92E00E942F0263C0AE
:100A600089819A81AB81BC81F50184A795A7A6A74E
:100A7000B7A782E0F601808386EB92E00E944002F5
:100A800052C063EC72E0C8010E945412892B79F5C0
:100A9000F50180A991A9A2A9B3A90196A11DB11D33
:100AA00080AB91ABA2ABB3ABC5010E9462018823BE
:100AB00069F081E0F60180838FEB92E00E944002B2
:100AC000F6016081C5010E9421032DC0F50180A9B6
:100AD00091A9A2A9B3A90197A109B10980AB91ABD2
:100AE000A2ABB3AB88EC92E00E942F021CC061EE77
:100AF00072E0C8010E945412892B89F40E94B3014C
:100B0000C5010E940301F60110828DED92E00E9462
:100B10004002F6016081C5010E94210304C087EEF6
:100B200092E00E942F022C960FB6F894DEBF0FBE03
:100B3000CDBFDF91CF911F910F91FF90EF90DF908C
:100B4000CF90BF90AF909F908F907F906F900895BF
:100B5000DF92EF92FF920F931F93CF93DF93CDB766
:100B6000DEB7C056D1090FB6F894DEBF0FBECDBFB9
:100B70008C017B01D42E0E948A0E882371F00E9482
:100B80008D0E8EEF92E00E942F0207C02D2DA7013F
:100B9000B801CE0101960E94AD0360E6CE01019638
:100BA0000E94260E8111F2CFC05ADF4F0FB6F89483
:100BB000DEBF0FBECDBFDF91CF911F910F91FF9090
:100BC000EF90DF900895DC0140E050E08FEF9FEF61
:100BD0001BC0FD01E40FF51F208130E0322F2227DA
:100BE0008227932720E00CC099233CF4880F991F9B
:100BF00031E2832730E1932702C0880F991F2F5FCE
:100C0000283090F34F5F5F4F4617570710F3089552
:100C10000E941B070E946807FDCF2F923F924F92C0
:100C20005F926F927F928F929F92AF92BF92CF927C
:100C3000DF92EF92FF920F931F93CF93DF93CDB785
:100C4000DEB76A970FB6F894DEBF0FBECDBF009730
:100C500009F4B6C06115710509F4B4C01A01788BA6
:100C60006F879E8B8D8B10E000E01E86412C512CEF
:100C700032011A861B861C861D86812C912C5401FC
:100C8000C12CD12C760145C0CE0101960E948F095E
:100C9000882399F189819A81092E000CAA0BBB0B3C
:100CA000C80ED91EEA1EFB1E8B819C81092E000CEA
:100CB000AA0BBB0B880E991EAA1EBB1E8D819E819E
:100CC000092E000CAA0BBB0B2A853B854C855D8544
:100CD000280F391F4A1F5B1F2A873B874C875D8778
:100CE0008F819885092E000CAA0BBB0B480E591E4C
:100CF0006A1E7B1E39853E870F5F2114310411F077
:100D0000F101099587EA91E60197F1F700C000002B
:100D10001F5F1A3008F4B8CFAF85B88951960C938D
:100D2000002309F451C0202F30E040E050E0298B2F
:100D30003A8B4B8B5C8BC301B2010E94B20E2F8B9E
:100D4000388F498F5A8F6A857B858C859D85298947
:100D50003A894B895C890E94B20E2A873B874C876F
:100D60005D87C501B40129893A894B895C890E9454
:100D7000B20E29013A01C701B60129893A894B8986
:100D80005C890E94B20ECA01B90138893F934F8530
:100D90004F938E84AF88B88CC98CDA8CEA84FB843C
:100DA0000C851D85A30192010E94DD096F8578895C
:100DB0008D899E890E94D6010F900F9081E005C019
:100DC00080E003C080E001C080E06A960FB6F8942E
:100DD000DEBF0FBECDBFDF91CF911F910F91FF906E
:100DE000EF90DF90CF90BF90AF909F908F907F90CB
:100DF0006F905F904F903F902F9008954091B00575
:100E000065EB75E086EB95E00E94A8058091B5053D
:100E10000E9418090E942A0908950E94D90A82E0B6
:100E20000E9400090E94FE068FE493EC0197F1F7FF
:100E300000C00000F7CFCF93DF931F92CDB7DEB78E
:100E400019820E94D60A0E94EF0B0E9479000E942C
:100E5000A6080E94B40878940E9486008093B0058A
:100E60001092B1051092B2051092B3051092B4051C
:100E700086EB95E00E9433018093B5050E94180926
:100E8000CE0101960E946509811104C08FE093E0B4
:100E90000E940D070E946B09811104C083E293E058
:100EA0000E940D0781E00E94000929814091B00550
:100EB0006091B50586EB95E00E94EA0A6091B50560
:100EC0008091B0050E944E080F90DF91CF91089558
:100ED0000F931F93CF93DF93CDB7DEB762970FB613
:100EE000F894DEBF0FBECDBF0E94FE064EEF56E067
:100EF000BE016F5F7F4F86EB95E00E940D0681116A
:100F000016C08DE293E00E940B0D6091B1057091C7
:100F1000B2058091B3059091B4050E94840D82EED4
:100F200094E00E940B0D82E00E9400092BC081E03A
:100F30000E9400094091B1055091B2056091B3053E
:100F40007091B4058E010F5F1F4F2091B505809100
:100F5000B0050E94400B8091B1059091B205A0911F
:100F6000B305B091B4050196A11DB11D8093B105E3
:100F70009093B205A093B305B093B4059BB180E202
:100F800089278BB962960FB6F894DEBF0FBECDBF2E
:100F9000DF91CF911F910F910895813029F0823018
:100FA00031F486E091E0089580E091E008958CE0CE
:100FB00091E00895CF93DF93D82FC62F8EE493E06E
:100FC0000E940B0D8D2F90E00E942D0D8DE593E07A
:100FD0000E940B0D86E693E00E940B0D83E793E0E1
:100FE0000E940B0D81E090E00E942D0D8BE793E0B5
:100FF0000E940B0D87E893E00E940B0D89E893E0B7
:101000000E940B0D8EE893E00E940B0D8FE993E098
:101010000E940B0D85EA93E00E940B0D81EB93E09B
:101020000E940B0D8AEB93E00E940B0D85EC93E080
:101030000E940B0D8AE091E00E942D0D8DEC93E053
:101040000E940B0D8AE090E00E942D0D83ED93E04D
:101050000E940B0D81E090E00E942D0D80EE93E048
:101060000E940B0D8C2F0E94CD070E940B0D86EE67
:1010700093E00E940B0D83EF93E00E940B0D8FEF26
:1010800093E00E940B0D8CE094E00E940B0D82EE29
:1010900094E00E940B0DDF91CF910895CF93DF93E1
:1010A000D82FC62F85E194E00E940B0D86E693E0D1
:1010B0000E940B0D85E294E00E940B0D81E090E010
:1010C0000E942D0D8BE793E00E940B0D87E893E0C3
:1010D0000E940B0D8FE993E00E940B0D85EA93E0CF
:1010E0000E940B0D81EB93E00E940B0D8AEB93E0C5
:1010F0000E940B0D80E394E00E940B0D8D2F90E079
:101100000E942D0D80EE93E00E940B0D8C2F0E940B
:10111000CD070E940B0D8AE394E00E940B0D83EF34
:1011200093E00E940B0D8FEF93E00E940B0D8CE07B
:1011300094E00E940B0D82EE94E00E940B0DDF9173
:10114000CF9108958BB18F718BB908958AB1806E5C
:101150008AB90E94A2081092F1051092F00510922F
:10116000EF051092EE0508950E94A2088BB18062EF
:101170008BB98FE59AEE0197F1F700C000000E944D
:10118000A2088FE295E70197F1F700C000008BB14C
:1011900080648BB98FE59AEE0197F1F700C00000EB
:1011A0000E94A2088FE295E70197F1F700C00000C6
:1011B0008BB180688BB98FE59AEE0197F1F700C08B
:1011C00000000E94A2088FE295E70197F1F700C0A6
:1011D00000008BB1806E8BB99FE926E881E09150C9
:1011E00020408040E1F700C000000E94A208109259
:1011F000F1051092F0051092EF051092EE0508959A
:101200009091F105981799F08093F1051092EF05F0
:10121000811104C08BB18F7B8BB90895813021F48B
:101220008BB180648BB908958BB18F7B8BB9089596
:101230009091F005981769F08093F0051092EE05F3
:10124000813021F48BB180688BB908958BB18F7791
:101250008BB908958091F105813021F48BB18064C0
:101260008BB913C0811104C08BB18F7B8BB90DC0BA
:101270008091EF058F5F8093EF05823030F0109200
:10128000EF059BB180E489278BB98091F00581112E
:1012900004C08BB18F778BB90895813021F48BB165
:1012A00080688BB908958091EE058F5F8093EE057D
:1012B000853028F01092EE058BB180588BB90895D7
:1012C00090E0982F8827862B0895AC016DE085E388
:1012D0000E942F0C089540E060E085E30E94FB0B24
:1012E0008823E1F040E061E085E30E94FB0B882366
:1012F000A9F044E762E085E30E94FB0B882371F0CC
:1013000043E063E085E30E94FB0B882339F041E072
:1013100067E085E30E94FB0B811181E008950F9344
:101320001F93CF93DF93CDB7DEB729970FB6F8940D
:10133000DEBF0FBECDBF8C0140E06DE885E30E94AB
:10134000FB0B882379F181EE94E00197F1F700C05F
:10135000000029E0AE014F5F5F4F60E185E30E942E
:10136000720C8823F9F06A8189810E946009F80172
:10137000918380836C818B810E946009F801938343
:1013800082836E818D810E946009F8019583848338
:1013900068858F810E946009F8019783868389851B
:1013A000808781E029960FB6F894DEBF0FBECDBFCF
:1013B000DF91CF911F910F9108953F924F925F92CD
:1013C0006F927F928F929F92AF92BF92CF92DF9255
:1013D000EF92FF920F931F93CF93DF93CDB7DEB7BA
:1013E00029013A01382C8C889D889B01AC01245638
:1013F000344441095109A8EEB3E00E94E00E29E50A
:1014000032E040E050E00E94B20EDA01C9018C5394
:10141000964FAF4FBF4FF40180839183A283B38374
:10142000A8EEB7E6A30192010E94E00E2B013C0159
:10143000992334F4FFEF4F0EFFE75F1E611C711C10
:10144000D301C201072E7FE0B595A79597958795A3
:101450007A95D1F7702DF40184839583A683B783A1
:10146000A8EEB7E6A80197010E94E00E8B019C014F
:10147000992324F4015010482F4F3F4FD901C80140
:10148000072E7FE0B595A795979587957A95D1F723
:10149000702DF40180879187A287B387A8EEB7E605
:1014A000A60195010E94E00E8B019C01992324F472
:1014B000015010482F4F3F4FD901C801072E7FE040
:1014C000B595A795979587957A95D1F7702DF401E5
:1014D00084879587A687B787308ADF91CF911F9140
:1014E0000F91FF90EF90DF90CF90BF90AF909F90C3
:1014F0008F907F906F905F904F903F9008958130D4
:1015000029F0823031F486E091E0089580E091E0A6
:1015100008958CE091E008951F93CF93DF93EC0141
:10152000162F88E494E00E940B0D812F0E947F0A01
:101530000E940B0D85E594E00E940B0D8C819D812E
:101540000E942D0D8FE594E00E940B0D68A979A9EA
:101550008AA99BA90E94840D82EE94E00E940B0D43
:1015600089E694E00E940B0D688579858A859B85C4
:101570000E94E50D87E794E00E940B0D6C857D8548
:101580008E859F850E94E50D86E894E00E940B0DF4
:10159000688979898A899B890E94E50D82EE94E0A9
:1015A0000E940B0DDF91CF911F9108950E94F60CC0
:1015B0000895CF93DF93EC0185E994E00E940B0D31
:1015C000CE010E940B0D82EE94E00E940B0DDF9184
:1015D000CF910895FF920F931F93CF93DF938C01C8
:1015E000F62EC42FD22F8CE994E00E940B0D86E6D4
:1015F00093E00E940B0D8AEB94E00E940B0D85EEA8
:1016000094E00E940B0D8AE090E00E942D0D86EF81
:1016100094E00E940B0D84E690E00E942D0D8BE07B
:1016200095E00E940B0D82EC93E00E940B0D8BE184
:1016300095E00E940B0D8AE091E00E942D0D82EE54
:1016400094E00E940B0D6F2DC8010E948C0A8BE262
:1016500095E00E940B0D8D2F0E94180D8DE395E0F3
:101660000E940B0D8C2F90E00E942D0D87E595E0D8
:101670000E940B0DDF91CF911F910F91FF90089564
:101680008F929F92AF92BF92EF92FF920F931F9310
:10169000CF93DF93E82E4A015B01F22EE80182E747
:1016A00095E00E940B0D86E693E00E940B0D88E505
:1016B00093E00E940B0D8E2D90E00E942D0D88E48A
:1016C00093E00E940B0DC501B4010E94840D8DECC6
:1016D00093E00E940B0D898990E00E942D0D80EE11
:1016E00093E00E940B0D8F2D0E947F0A0E940B0D2C
:1016F0008EE795E00E940B0D688179818A819B813C
:101700000E94E50D82E895E00E940B0D6C817D81C1
:101710008E819F810E94E50D87E895E00E940B0D68
:10172000688579858A859B850E94E50D8CE895E022
:101730000E940B0D6C857D858E859F850E94E50D31
:1017400081E995E00E940B0D88890E94180D82EEB8
:1017500094E00E940B0DDF91CF911F910F91FF90AC
:10176000EF90BF90AF909F908F90089584EA809300
:10177000DC008091DC008823E4F78091D900887F29
:10178000883021F0803121F481E0089581E00895CE
:1017900080E0089584E98093DC0008958093DB0065
:1017A00084E88093DC008091DC008823E4F780915A
:1017B000D900887F089584EC8093DC008091DC0060
:1017C0008823E4F78091DB00089584E88093DC00AF
:1017D0008091DC008823E4F78091DB0008958EB1CE
:1017E00083608EB91092D90082E08093D80084E0A3
:1017F0008093DC0008950F931F93CF93DF93D82F2E
:10180000162F042F0E94B60BC82F811103C00E940F
:10181000CA0B1FC08D2F880F0E94CE0B883121F07C
:101820000E94CA0BC0E015C0812F0E94CE0B8832E7
:1018300021F00E94CA0BC0E00CC0802F0E94CE0B8A
:10184000883221F00E94CA0BC0E003C00E94CA0B7C
:10185000C1E08C2FDF91CF911F910F910895EF92EE
:10186000FF921F93CF93DF93D82F162F7A010E94F8
:10187000B60BC82F811103C00E94CA0B2CC0DD0F0C
:101880008D2F0E94CE0B883121F00E94CA0BC0E040
:1018900022C0812F0E94CE0B883221F00E94CA0BF9
:1018A000C0E019C00E94B60BC82F811103C00E946E
:1018B000CA0B11C08D2F81600E94CE0B803421F0A5
:1018C0000E94CA0BC0E007C00E94E50BF7018083AD
:1018D0000E94CA0BC1E08C2FDF91CF911F91FF9026
:1018E000EF900895EF92FF920F931F93CF93DF93A2
:1018F000222309F448C0C22F7A01062F182F0E9414
:10190000B60BD82F811103C00E94CA0B3DC0110F26
:10191000812F0E94CE0B883121F00E94CA0BD0E0AB
:1019200033C0802F0E94CE0B883221F00E94CA0B58
:10193000D0E02AC00E94B60BD82F811103C00E94AC
:10194000CA0B22C0812F81600E94CE0B8034A1F08F
:101950000E94CA0BD0E018C087010D0F111D8FEF38
:101960008C0FD81303C00E94E50B02C00E94DB0B52
:10197000F8018083DF5F01C0D0E0DC1768F30E94CC
:10198000CA0BD1E001C0D0E08D2FDF91CF911F9124
:101990000F91FF90EF9008951F920F920FB60F9244
:1019A00011242F938F939F93EF93FF932091C60061
:1019B0008091D5068F5F8F779091D406891304C0EC
:1019C00081E08093D30608C0E091D506F0E0ED5A9F
:1019D000F94F20838093D506FF91EF919F918F91CE
:1019E0002F910F900FBE0F901F9018951092C50069
:1019F0008CE08093C4001092C00088E98093C100FD
:101A000086E08093C20008959091C00095FFFCCFBE
:101A10008093C6000895CF93DF93EC0103C0219615
:101A20000E94040D88818111FACFDF91CF91089532
:101A3000CF93C82FE82FE295EF70F0E0E456FA4F0D
:101A400080810E94040DCF70EC2FF0E0E456FA4F35
:101A500080810E94040DCF9108951F93CF93DF934F
:101A600000D000D01F92CDB7DEB7AC01892B91F525
:101A700080E30E94040D3FC09A01ADECBCEC0E94D3
:101A8000D10E9695879596958795969587959C0105
:101A9000220F331F880F991F880F991F880F991FD6
:101AA000820F931F9A01281B390BC901805DE1E069
:101AB000F0E0EC0FFD1FE10FF11D80839A010E9401
:101AC000D10EAC0156954795569547955695479535
:101AD0001F5F01C010E04115510571F60AC0115099
:101AE000E1E0F0E0EC0FFD1FE10FF11D80810E94AD
:101AF000040D1111F4CF0F900F900F900F900F90D5
:101B0000DF91CF911F9108951F93CF93DF93CDB7AE
:101B1000DEB72A970FB6F894DEBF0FBECDBF6115B2
:101B2000710581059105C1F480E30E94040D27C071
:101B30002AE030E040E050E00E94900E605DE1E07D
:101B4000F0E0EC0FFD1FE10FF11D6083622F732F9A
:101B5000842F952F1F5F01C010E06115710581056D
:101B6000910531F70AC01150E1E0F0E0EC0FFD1FE4
:101B7000E10FF11D80810E94040D1111F4CF2A960E
:101B80000FB6F894DEBF0FBECDBFDF91CF911F918E
:101B90000895CF92DF92EF92FF926B017C0199231F
:101BA0005CF48DE20E94040DF094E094D094C09413
:101BB000C11CD11CE11CF11CC701B6010E94840D9F
:101BC000FF90EF90DF90CF900895CF92DF92EF9249
:101BD000FF92CF93DF936B017C0199235CF48DE23C
:101BE0000E94040DF094E094D094C094C11CD11CC8
:101BF000E11CF11CC701B60124E630E040E050E0F2
:101C00000E94B20ED62FCA01B9010E94840D8EE245
:101C10000E94040DCDECDC9FC12D1124C695C69504
:101C2000C69580E38C0F0E94040DCC0F8C2F880F7B
:101C3000880FC80F8D2F8C1B805D0E94040DDF91D3
:101C4000CF91FF90EF90DF90CF900895DC015AC0C4
:101C5000E091D406F0E0ED5AF94F80819091D406DE
:101C60009F5F9F779093D4068D3011F08A3039F5BD
:101C7000E0915206EE2309F445C0F0E0EE50FA4F31
:101C8000108290E005C0FD01E20FF31F40839F5FCB
:101C9000292F30E0F9013196462F50E0E417F5077F
:101CA00030F4F901EE50FA4F40814111ECCFFD01C3
:101CB000E20FF31F10821092520681E008958830DF
:101CC00011F08F3741F4809152068823D9F081506A
:101CD0008093520617C0E09152062E2F30E02F5FFE
:101CE0003F4F2036310548F491E09E0F9093520605
:101CF000F0E0EE50FA4F808305C01092520681E06A
:101D00008093D3069091D4068091D5069813A0CFE6
:101D100080E008958091D30608951092D306089527
:101D2000A1E21A2EAA1BBB1BFD010DC0AA1FBB1FDF
:101D3000EE1FFF1FA217B307E407F50720F0A21B51
:101D4000B30BE40BF50B661F771F881F991F1A94BE
:101D500069F760957095809590959B01AC01BD01E8
:101D6000CF010895052E97FB1EF400940E94C90E22
:101D700057FD07D00E94900E07FC03D04EF40C9440
:101D8000C90E50954095309521953F4F4F4F5F4F6D
:101D9000089590958095709561957F4F8F4F9F4FD7
:101DA0000895A29FB001B39FC001A39F700D811D34
:101DB0001124911DB29F700D811D1124911D089554
:101DC0000E94D10EA59F900DB49F900DA49F800DF1
:101DD000911D11240895DF93CF931F930F939A9D24
:101DE000F02D219FF00D8B9DF00D8A9DE02DF10DC2
:101DF000039FF00D029FE00DF11D4E9DE00DF11DC2
:101E00005E9DF00D4F9DF00D7F936F93BF92AF924B
:101E10005F934F93D5010E94D10E8B01AC01D70186
:101E20000E94D10EEB01E80FF91FD6010E943B0F73
:101E30002F913F91D6010E94D10EC60FD71FE81FE8
:101E4000F91FAF91BF910E943B0F2F913F910E94CC
:101E5000D10EC60FD71FE81FF91FD6010E94D10E61
:101E6000E60FF71F9801BE01CF0111240F911F91BA
:101E7000CF91DF9108950E94D10E460F571FC81FC2
:101E8000D91F08F431960895689401C0E894F92F99
:101E9000F12B12F00C94780FA0E0B0E0E2E5FFE047
:101EA0000C94EA0F092E059422F40E94D40F1123FA
:101EB00092F4F0E80F26FFEFE094F094009510956F
:101EC000B094C094D094A194BF0ACF0ADF0AEF0A5D
:101ED000FF0A0F0B1F0B0E94830F07FC0E94D40FF9
:101EE000CDB7DEB7ECE00C940610689401C0E8941E
:101EF0008F929F92CF93DF930E94830FDF91CF91B8
:101F00009F908F90089588249924F401E401B0E40F
:101F10009F93AA279A158B049C04ED05FE05CF0517
:101F2000D007A10798F4AD2FDC2FCF2FFE2FE92D7E
:101F3000982C892E982F872F762F652F542F432F7B
:101F4000322F2227B85031F7BF9127C01B2EBF91E7
:101F5000BB27220F331F441F551F661F771F881F83
:101F6000991F881C991CEE1FFF1FCC1FDD1FAA1F85
:101F7000BB1F8A149B04EC05FD05CE05DF05A007F9
:101F8000B10748F08A189B08EC09FD09CE09DF0962
:101F9000A00BB10B21601A94E1F62EF49401AF016D
:101FA000BE01CD01000C08956095709580959095C7
:101FB00030954095509521953F4F4F4F5F4F6F4F54
:101FC0007F4F8F4F9F4F08952F923F924F925F9276
:101FD0006F927F928F929F92AF92BF92CF92DF9239
:101FE000EF92FF920F931F93CF93DF93CDB7DEB79E
:101FF000CA1BDB0B0FB6F894DEBF0FBECDBF099432
:102000002A88398848885F846E847D848C849B8488
:10201000AA84B984C884DF80EE80FD800C811B8196
:10202000AA81B981CE0FD11D0FB6F894DEBF0FBEC5
:10203000CDBFED0108950024A7FD00942A173005B7
:102040004005500560057005800590050895A0E0E5
:10205000B0E0EDE2F0E10C94E50F5C016B017A0178
:102060006115710519F0FB0191838083E114F1047E
:1020700029F0C7010297839708F0E5C0E501219692
:10208000F5011081812F90E00E943212892B11F00E
:102090005E01F4CF1D3229F42196F501118101E092
:1020A00007C01B3221F4E5012296F501118100E001
:1020B000E114F10409F1F0E1EF16F10429F43FC055
:1020C00010E3E114F10421F128E0E216F10401F13A
:1020D00054F4E2E0EE16F10421F5812C912CA12CB0
:1020E000B0E4BB2E3EC0FAE0EF16F10439F020E177
:1020F000E216F104B1F430C0103319F1FAE0EF2E1A
:10210000F12CACEC8A2E982CA82CACE0BA2E29C06D
:1021100078E0E72EF12C812C912CA12CE0E1BE2E51
:1021200020C060E070E080E090E897010F2C000C88
:10213000440B550B0E94900E49015A0112C01033F6
:1021400059F488818F7D883509F0BACF198122969C
:10215000026080E1E82EF12C812C912CA12C68E00A
:10216000B62E40E060E070E0CB0127010F2C000CA0
:1021700066087708FE0150ED352E310E29E0231553
:1021800070F42FEB210F2A3118F439EC332E06C0EE
:102190002FE9210F2A3118F529EA322E310E232D8D
:1021A00030E02E153F05DCF447FD16C08616970675
:1021B000A806B90670F0A30192010E94B912630D3E
:1021C000711D811D911D61307105810520E8920707
:1021D00010F04FEF01C041E021961081CBCF202FAE
:1021E0002170C114D10471F0442329F02197F60124
:1021F000D183C08307C001FF19C02297F601D183A4
:10220000C08314C047FF12C0222329F060E070E0B1
:1022100080E090E804C06FEF7FEF8FEF9FE722E24E
:1022200030E03093D7062093D60609C0222381F0F0
:1022300090958095709561957F4F8F4F9F4F462F5A
:10224000372F282F12C040E030E020E090E00DC092
:1022500097FFF5CF82E290E09093D7068093D60661
:102260006FEF7FEF8FEF9FE7EACF642F732F822FFF
:10227000CDB7DEB7E1E10C940110A0E0B0E0E3E4FB
:10228000F1E10C94E50F5C016B017A0161157105B8
:1022900019F0FB0191838083E114F10429F0C70157
:1022A0000297839708F0C9C0E5012196F5011081D6
:1022B000812F90E00E943212892B11F05E01F4CF41
:1022C0001D3229F42196F501118101E007C01B326E
:1022D00021F4E5012296F501118100E0E114F104F9
:1022E000B1F0F0E1EF16F10429F4B0C010E3E1140D
:1022F000F10401F12AE0E216F104B1F180E1E816FF
:10230000F10471F0E8E0EE16F104F1F413C01033BB
:1023100041F588818F7D883549F7198122960260C1
:10232000F0E1EF2EF12C88248A94982CA82CAFE0B1
:10233000BA2E20C078E0E72EF12C88248A94982CBD
:10234000A82CEFE1BE2E16C06FEF7FEFCB019701F7
:102350000F2C000C440B550B0E94900E49015A01A2
:1023600009C08AE0E82EF12C69E9862E982CA82C69
:1023700069E1B62E40E060E070E0CB0127010F2C50
:10238000000C66087708FE0150ED352E310E29E06D
:10239000231570F42FEB210F2A3118F439EC332E6A
:1023A00006C02FE9210F2A3130F529EA322E310EED
:1023B000232D30E02E153F05F4F44F3FC9F086166B
:1023C0009706A806B90688F0A30192010E94B912E7
:1023D000232D30E040E050E0620F731F841F951FF3
:1023E000621773078407950710F44FEF01C041E0AF
:1023F00021961081C8CFC114D10451F0442311F0AB
:10240000219703C001FF04C02297F601D183C08346
:1024100000FF07C090958095709561957F4F8F4F15
:102420009F4F4F3F79F482E290E09093D7068093DC
:10243000D6063FEF2FEF9FEF0DC040E030E020E0E9
:1024400090E008C0462F372F282F04C0103309F022
:1024500067CF5FCF642F732F822FCDB7DEB7E1E157
:102460000C94011091110C948412803219F089504F
:102470008550C8F708954EEA55E00E945D12089510
:10248000FB01DC0104C08D910190801921F44150C1
:102490005040C8F7881B990B0895DC0101C06D936B
:1024A00041505040E0F70895FB01DC018D9101900F
:1024B00080190110D9F3990B0895FA01A191B08107
:1024C000009719F41097E1F0CD01DC01CD010D90DA
:1024D000002011F4C00113C0FB012191222319F047
:1024E0002015D9F7F3CFFB012191201519F41E9285
:1024F000119606C02223C1F70D900020A1F7D0014C
:10250000FA01A193B0830895992788270895DC01E3
:10251000CB01FC01F999FECF06C0F2BDE1BDF89AEE
:10252000319600B40D9241505040B8F70895DC0147
:10253000A40FB51F4150504048F0CB01840F951FA8
:102540002E910E94A81241505040D0F70895262F96
:10255000F999FECF92BD81BDF89A019700B4021699
:1025600039F01FBA20BD0FB6F894FA9AF99A0FBE47
:102570000895DB018F939F930E94E00EBF91AF916E
:10258000A29F800D911DA39F900DB29F900D1124CD
:062590000895F894FFCF4E
:1025960056414C4944004449525459004445464129
:1025A600554C5400244E443238305253502C455228
:1025B600524F522C524541534F4E3D00244E443209
:1025C60038305253502C4F4B2C434D443D00244E33
:1025D6004432383043414C2C53544154453D002C31
:1025E600434F554E543D002C4F583D002C4F593DFE
:1025F600002C4F5A3D002C47583D002C47593D00B2
:102606002C475A3D002C4E583D002C4E593D002C6F
:102616004E5A3D002C5443414C3D00200048454C49
:102626005000244E443238305253502C434F4D4DB7
:10263600414E44533D48454C507C494E464F7C499B
:1026460044454E544954597C43414C2052454144DB
:102656007C43414C204F46465345542078207920F0
:102666007A7C43414C204741494E20782079207A94
:102676007C43414C204E4F49534520782079207A9F
:102686007C43414C2054454D5020747C43414C20A2
:10269600534156457C43414C2052455345540D0AFF
:1026A60000494E464F004944454E5449545900434B
:1026B600414C00554E4B4E4F574E5F434F4D4D418B
:1026C6004E44004D495353494E475F43414C5F5377
:1026D6005542434F4D4D414E44004241445F4F46A3
:1026E600465345545F415247554D454E545300435A
:1026F600414C5F4F4646534554004241445F474173
:10270600494E5F415247554D454E54530043414C47
:102716005F4741494E004241445F4E4F4953455F32
:10272600415247554D454E54530043414C5F4E4F21
:10273600495345004241445F54454D505F4152471D
:10274600554D454E540043414C5F54454D50004352
:10275600414C5F5341564500454550524F4D5F56DB
:1027660045524946595F4641494C45440043414C10
:102776005F524553455400554E4B4E4F574E5F439F
:10278600414C5F535542434F4D4D414E44005541D8
:1027960052545F52585F4F564552464C4F5700545D
:1027A6004D41475F4445564943455F49445F52455D
:1027B600414400544D41475F494E495400455252E9
:1027C6004F522C544D41475F4E4F5F56414C494442
:1027D6005F53414D504C45532C5345513D00244EBB
:1027E60044323830494E464F2C49443D002C4E4F1A
:1027F60044454F533D00302E352E302D616C7068A8
:102806006131002C50524F544F3D002C424F4152E3
:10281600445F5245563D0041002C48573D00544DFB
:10282600414720446562756720426F617264002CDF
:102836004D43553D0041546D656761333238504212
:10284600002C53454E534F523D00544D41473532AF
:1028560037334132002C52414E47453D002C4156FC
:10286600473D002C454550524F4D5F5645523D0061
:102876002C43414C3D002C4255494C445F44415445
:10288600453D004A756C2031342032303236002CFA
:102896004255494C445F54494D453D0031383A3123
:1028A600373A3130004E4F44454F535F56455253E9
:1028B600494F4E3D002C50524F544F434F4C3D0014
:1028C6002C4E4F44455F49443D000D0A4255494C44
:1028D600445F444154453D0043414C4942524154B2
:1028E600494F4E3D002C56455253494F4E3D002C04
:1028F600434F554E5445523D0043414C5F4F46466B
:102906005345545F583D002C43414C5F4F46465358
:1029160045545F593D002C43414C5F4F4646534555
:10292600545F5A3D004552524F522C000D0A4E44F8
:10293600323830204D61676E65746963204669657B
:102946006C64204E6F64652076000D0A5541525422
:10295600303D343830302C52585F434F4D4D414E48
:1029660044533D4F4E2C545749313D5045302F501E
:1029760045310D0A00415645524147455F53414D89
:10298600504C45533D002C53414D504C455F494EEC
:1029960054455256414C5F4D533D000D0A544D412E
:1029A600475F56415249414E543D002C544D4147D4
:1029B6005F52414E47455F4D543D00544D41475F80
:1029C6004445564943455F49443D3078000D0A5415
:1029D6004D41475F494E49543D4F4B0D0A424F41C9
:1029E60052445F49443D000D0A545950452048451C
:1029F6004C5020464F5220434F4D4D414E44530DAF
:102A06000A00244E443238302C5645523D002C5490
:102A16003D002C42583D002C42593D002C425A3D67
:102A2600002C5354415455533D30780030313233E5
:0E2A36003435363738394142434445460000B6
:00000001FF
