S01700004763634170706C69636174696F6E312E737265635B
S11300000C945A000C9486000C9486000C94860080
S11300100C9486000C9486000C9486000C94860044
S11300200C9486000C9486000C9486000C94860034
S11300300C9486000C9486000C9425070C9486007E
S11300400C9486000C9486000C942E100C9486005C
S11300500C9486000C9486000C9486000C94860004
S11300600C9486000C9486000C9486000C948600F4
S11300700C9486000C9486000C9486000C948600E4
S11300800C9486000C9486000C9486000C948600D4
S11300900C9486000C9486000C9486000C948600C4
S11300A00C9486000C9486000C9486000C948600B4
S11300B00C94860011241FBECFEFD8E0DEBFCDBF65
S11300C084B78093A10714BE0FB6F894A8958091C5
S11300D06000886180936000109260000FBE16E09B
S11300E0A0E0B1E0EEEFFBE202C005900D92AC3F60
S11300F0B107D9F727E0ACEFB6E001C01D92A13AF1
S1130100B207E1F70E942E090C94FD150C9400002F
S113011087B1807F87B98AB18B7F8AB988B1807FA4
S113012088B98BB18B7F8BB90895309902C080E078
S113013001C081E03199826032998460339988608A
S11301404A99806180958F7108954F925F926F9262
S11301507F92AF92BF92CF92DF92EF92FF920F9372
S11301601F93DC01CB01821B930BA40BB50B2C0159
S11301703D01770C4408542C3201B801A701770FD4
S1130180440B542FBA01AE2CBF2CC02ED12EE42E1A
S1130190F42E042F142F282F392F4A2F5B2F642D70
S11301A0742D842D942D0E940D12A0E00E943D1305
S11301B04CF0205E3E45484F5F4F6F4F7F4F8F4F4F
S11301C09F4F08C02052314A4740510961097109C3
S11301D0810991096894AA24A6F80F2EF2E4BF2E8F
S11301E0F02D0F2EFFE0CF2EF02DD12CE12CF12C91
S11301F000E010E00E946812622F732F842F952F65
S11302001F910F91FF90EF90DF90CF90BF90AF9030
S11302107F906F905F904F90089566E370E00E9426
S1130220F4060895CF93DF93EC0188E3FE01119265
S11302308A95E9F788E392E3A4E4BEE4888399838A
S1130240AA83BB8381E090E09D838C8388E390E064
S11302509F838E8380E492E4AFE0B0E08C8B9D8B2F
S1130260AE8BBF8B888F998FAA8FBB8F8C8F9D8FFE
S1130270AE8FBF8FCE010E940D019FAB8EABDF917D
S1130280CF9108950F931F93CF93DF93EC0148E32D
S113029050E060E070E00E94A91588819981AA81EC
S11302A0BB8188339243A444BE4481F48C819D81F4
S11302B0019761F48E819F81C89741F40EA91FA90B
S11302C0CE010E940D010817190781F088819981D8
S11302D0AA81BB818F3F9F4FAF4FBF4F11F00E9448
S11302E09E08CE010E94120180E001C081E0DF91EE
S11302F0CF911F910F910895CF93DF93CDB7DEB7C0
S1130300C057D1090FB6F894DEBF0FBECDBFFC01B4
S113031098E3DE01119601900D929A95E1F788E336
S113032092E3A4E4BEE489839A83AB83BC8381E033
S113033090E09E838D8388E390E098878F83CE013D
S113034001960E940D0198AF8FAB48E350E060E046
S113035070E0CE0101960E94BF1548E350E060E0D2
S113036070E0CE01C9960E94A91548E350E0BE0191
S1130370675C7F4FCE0101960E946215892B21F0A4
S11303800E949E0880E001C081E0C059DF4F0FB693
S1130390F894DEBF0FBECDBFDF91CF910895CF9308
S11303A0DF93CDB7DEB7E8970FB6F894DEBF0FBE84
S11303B0CDBF48E350E06FEF70E0CE0101960E949C
S11303C06F1548E350E060E070E0CE0101960E94B2
S11303D0BF15E8960FB6F894DEBF0FBECDBFDF9110
S11303E0CF910895CF92DF92EF92FF920F931F93D4
S11303F0CF93DF936C01EB01FC01E488F588068957
S1130400178920853185428553856C817D818E8154
S11304109F810E94A5006C837D838E839F83F60158
S1130420E08CF18C028D138D2485358546855785A6
S1130430688579858A859B850E94A5006887798768
S11304408A879B87F601E48CF58C068D178D2089AD
S11304503189428953896C857D858E859F850E946B
S1130460A5006C877D878E879F87DF91CF911F9131
S11304700F91FF90EF90DF90CF900895813029F095
S1130480823031F486E091E0089580E091E00895AF
S11304908CE091E00895CF93DF93EC0184E191E047
S11304A00E947810CE010E94781088EF96E00E9496
S11304B07810DF91CF910895CF93DF93EC0186E21A
S11304C091E00E947810CE010E94781088EF96E0A7
S11304D00E947810DF91CF910895EF92FF920F93CD
S11304E01F93CF93DF9300D0CDB7DEB78C017B0190
S11304F01A8219824AE050E0BE016F5F7F4F0E946A
S11305005F14E981FA810E171F0751F02081211130
S113051009C0F701608371838283938381E003C000
S113052080E001C080E00F900F90DF91CF911F9188
S11305300F91FF90EF900895CF92DF92EF92FF9288
S11305400F931F93CF93DF930097D9F06115710533
S1130550D1F041155105C9F06A01EB01B9010E94BE
S11305606D028823A1F0B801CE010E946D02882398
S113057081F0B701C6010E946D02882361F081E019
S11305800BC080E009C080E007C080E005C080E0C7
S113059003C080E001C080E0DF91CF911F910F91F3
S11305A0FF90EF90DF90CF900895EF92FF920F931A
S11305B01F93CF93DF9300D0CDB7DEB78C017B01BF
S11305C01A8219824AE050E0BE016F5F7F4F0E9499
S11305D04913E981FA810E171F0751F02081211177
S11305E009C0F701608371838283938381E003C030
S11305F080E001C080E00F900F90DF91CF911F91B8
S11306000F91FF90EF900895CF92DF92EF92FF92B7
S11306100F931F93CF93DF930097D9F06115710562
S1130620D1F041155105C9F06A01EB01B9010E94ED
S1130630D5028823A1F0B801CE010E94D5028823F7
S113064081F0B701C6010E94D502882361F081E0E0
S11306500BC080E009C080E007C080E005C080E0F6
S113066003C080E001C080E0DF91CF911F910F9122
S1130670FF90EF90DF90CF9008951F93CF93DF9377
S1130680EC01162F8EE391E00E947810812F0E94D6
S11306903E020E94781084E996E00E9478108C81D2
S11306A09D810E949A108FE491E00E94781068A9BD
S11306B079A98AA99BA90E94F11087E591E00E947B
S11306C07810688579858A859B850E9436118CE52A
S11306D091E00E9478106C857D858E859F850E94AF
S11306E0361181E691E00E947810688979898A89B7
S11306F09B890E94361186E691E00E9478106C89ED
S11307007D898E899F890E9436118BE691E00E9433
S11307107810688D798D8A8D9B8D0E94361180E7C3
S113072091E00E9478106C8D7D8D8E8D9F8D0E943E
S1130730361185E791E00E94781068A179A18AA119
S11307409BA10E94F1108AE791E00E9478106CA1AD
S11307507DA18EA19FA10E94F1108FE791E00E94DC
S1130760781068A579A58AA59BA50E94F11084E854
S113077091E00E9478106CA57DA58EA59FA50E948E
S1130780361188EF96E00E947810DF91CF911F9187
S113079008956F927F928F929F92AF92BF92CF9261
S11307A0DF92EF92FF920F931F93CF93DF93CDB716
S11307B0DEB72C970FB6F894DEBF0FBECDBF5B013A
S11307C06A01F22E6BE871E00E945D158C010097BE
S11307D009F4F9C16DE871E00E947615892B29F4BA
S11307E082E991E00E947810EEC160E372E0C801F2
S11307F00E947615892B39F065E372E0C8010E94E6
S11308007615892B31F4F60160818F2D0E940E0B31
S1130810DAC16EE372E0C8010E947615892B69F58E
S11308206BE871E080E090E00E945D15009721F490
S11308308F2D0E94AC08C7C163E472E00E94761554
S1130840892BB1F46BE871E080E090E00E945D15C3
S1130850009749F067E472E00E947615892B19F439
S11308600E94A111B0C18CE492E00E945C02ABC171
S113087081E692E00E945C02A6C169E772E0C801C9
S11308800E947615892B29F08DE792E00E945C0284
S11308909AC16BE871E080E090E00E945D158C01E4
S11308A0009729F48DE892E00E945C028CC16EE10D
S11308B074E00E947615892B31F4F6016081C5013C
S11308C00E943D0380C16DEB72E0C8010E94761561
S11308D0892B09F049C06BE871E080E090E00E9448
S11308E05D153C016BE871E080E090E00E945D15CD
S11308F04C016BE871E080E090E00E945D159E0180
S11309002F5F3F4F79018E010B5F1F4F285F3F4FD1
S1130910A301B4010E940403811105C084EA92E09A
S11309200E945C0250C189859A85AB85BC85F5011E
S113093080879187A287B3878D819E81AF81B88597
S113094084879587A687B78789819A81AB81BC8183
S1130950808B918BA28BB38B82E0F601808389EB31
S113096092E00E944B022FC16BED72E0C8010E941D
S11309707615892B09F058C06BE871E080E090E0AF
S11309800E945D153C016BE871E080E090E00E94FC
S11309905D154C016BE871E080E090E00E945D150C
S11309A09E012F5F3F4F79018E010B5F1F4F285F20
S11309B03F4FA301B4010E9404038823D9F0898521
S11309C09A85AB85BC85181619061A061B0694F47D
S11309D04D815E816F8178851416150616061706FB
S11309E04CF409811A812B813C81101611061206E0
S11309F013062CF084EC92E00E945C02E4C0F50142
S1130A00848B958BA68BB78B408F518F628F738F9E
S1130A10048F158F268F378F82E0F601808387ED50
S1130A2092E00E944B02CFC068EF72E0C8010E94BE
S1130A307615892B09F049C06BE871E080E090E0FD
S1130A400E945D153C016BE871E080E090E00E943B
S1130A505D154C016BE871E080E090E00E945D154B
S1130A609E012F5F3F4F79018E010B5F1F4F285F5F
S1130A703F4FA301B4010E949C02811105C080EE86
S1130A8092E00E945C029FC089859A85AB85BC85F3
S1130A90F50180A391A3A2A3B3A38D819E81AF810D
S1130AA0B88584A395A3A6A3B7A389819A81AB81B2
S1130AB0BC8180A791A7A2A7B3A782E0F601808397
S1130AC084EF92E00E944B027EC064E173E0C801AF
S1130AD00E947615892B29F56BE871E080E090E09F
S1130AE00E945D15009739F0BE016F5F7F4F0E9431
S1130AF0D502811105C08EEF92E00E945C0263C0B2
S1130B0089819A81AB81BC81F50184A795A7A6A7A9
S1130B10B7A782E0F601808380E193E00E944B0254
S1130B2052C06DE173E0C8010E947615892B79F5F6
S1130B30F50180A991A9A2A9B3A90196A11DB11D8E
S1130B4080AB91ABA2ABB3ABC5010E947C018823FF
S1130B5069F081E0F601808389E193E00E944B0211
S1130B60F6016081C5010E943D032DC0F50180A9F5
S1130B7091A9A2A9B3A90197A109B10980AB91AB2D
S1130B80A2ABB3AB82E293E00E945C021CC06BE3B5
S1130B9073E0C8010E947615892B89F40E94CF0165
S1130BA0C5010E941201F601108287E393E00E94BE
S1130BB04B02F6016081C5010E943D0304C081E43B
S1130BC093E00E945C022C960FB6F894DEBF0FBE31
S1130BD0CDBFDF91CF911F910F91FF90EF90DF90E8
S1130BE0CF90BF90AF909F908F907F906F9008951B
S1130BF0DF92EF92FF920F931F93CF93DF93CDB7C2
S1130C00DEB7E0970FB6F894DEBF0FBECDBF8C0100
S1130C107B01D42E0E94EC0681110E94900860E3AF
S1130C20CE0101960E94B106882349F00E948208F1
S1130C302D2DA701B801CE0101960E94C903E096AB
S1130C400FB6F894DEBF0FBECDBFDF91CF911F91D9
S1130C500F91FF90EF90DF9008951092310710925A
S1130C6000071092FF061092FE0608958091FE067A
S1130C7082608093FE061092310710920007089557
S1130C809091FF06992349F08A3309F069C0809155
S1130C90FE0684608093FE0608959091310799239F
S1130CA019F0913051F04CC08A3309F059C01092B8
S1130CB0000781E08093310708958A3319F4109274
S1130CC0000708958D3011F08A3091F48091000767
S1130CD0882349F0E0910007F0E0EF5FF84F1082BD
S1130CE081E08093FF061092000710923107089567
S1130CF090EE980F9F35F0F42091000730E02F5FBD
S1130D003F4F2033310558F4E091000791E09E0FE6
S1130D1090930007F0E0EF5FF84F8083089580918F
S1130D20FE0681608093FE061092000782E08093A5
S1130D30310708951092000782E0809331070895E7
S1130D408A3331F41092000781E0809331070895CB
S1130D508D3011F08A3021F410920007109231077F
S1130D6008951F93CF93DF93DC01892B71F16623E0
S1130D7071F11FB7F8948091FF0681110CC01FBF59
S1130D8027C0FD01E20FF31FEA01CF5FD84F38817E
S1130D9030839F5F01C090E0292F30E0F901319644
S1130DA0462F50E0E417F50738F4A901FA01EF5F84
S1130DB0F84F70817111E5CFFD01E20FF31F10822E
S1130DC01092FF061FBF81E003C080E001C080E0F5
S1130DD0DF91CF911F9108959FB7F8948091FE06FB
S1130DE01092FE069FBF0895DC0140E050E08FEFB3
S1130DF09FEF1BC0FD01E40FF51F208130E0322F6F
S1130E0022278227932720E00CC099233CF4880FE3
S1130E10991F31E2832730E1932702C0880F991F7D
S1130E202F5F283090F34F5F5F4F4617570710F33B
S1130E30089582E084BD85BD8CE787BD16BCEEE6CF
S1130E40F0E080818260808308951F920F920FB634
S1130E500F9211242F938F939F93AF93BF938091FD
S1130E605B0790915C07019690935C0780935B0706
S1130E7080915B0790915C07883E9340B8F0109294
S1130E805C0710925B078091570790915807A091D7
S1130E905907B0915A070196A11DB11D80935707B8
S1130EA090935807A0935907B0935A07BF91AF91F5
S1130EB09F918F912F910F900FBE0F901F901895B7
S1130EC08091A10780934E07E2E3F7E0108211823C
S1130ED0128213821482158216821782108611865A
S1130EE0128613861486158616861786108A118A2A
S1130EF0128A138A148A158A168A178A108E118EFA
S1130F00128E138E10925C0710925B071092570793
S1130F10109258071092590710925A078CE390E0E8
S1130F200E94B91560935307709354078093550733
S1130F30909356076F3F7F4F8F4F9F4F41F410920E
S1130F405307109254071092550710925607409178
S1130F5053075091540760915507709156074F5F9E
S1130F605F4F6F4F7F4F40935307509354076093E5
S1130F705507709356078CE390E00E94E11588E3CF
S1130F8090E00E94B91560934F07709350078093C7
S1130F905107909352076F3F7F4F8F4F9F4F41F4FC
S1130FA010924F0710925007109251071092520757
S1130FB080914E0783FF18C040914F07509150070E
S1130FC060915107709152074F5F5F4F6F4F7F4F92
S1130FD040934F0750935007609351077093520703
S1130FE088E390E00E94E11580914F0790915007AB
S1130FF0A0915107B091520780934A0790934B07F1
S1131000A0934C07B0934D070E94190708952FB77A
S1131010F8946091570770915807809159079091FF
S11310205A072FBF08956091530770915407809118
S1131030550790915607089580914E0780FF06C08A
S113104088E593E00E94781081E001C080E09091EF
S11310504E0791FF0AC0882319F08CE70E94711093
S113106081E693E00E94781081E090914E0792FF10
S11310700AC0882319F08CE70E9471108AE693E075
S11310800E94781081E090914E0793FF0AC0882354
S113109019F08CE70E94711084E793E00E947810A5
S11310A081E0811104C08DE793E00E9478100895D7
S11310B0E2E3F7E080819181A281B3810196A11DD1
S11310C0B11D80839183A283B3830895E2E3F7E0A3
S11310D084819581A681B7810196A11DB11D848368
S11310E09583A683B7830895E2E3F7E0808591852D
S11310F0A285B3850196A11DB11D80879187A28722
S1131100B3870895E2E3F7E084859585A685B785DE
S11311100196A11DB11D84879587A687B787089579
S1131120E2E3F7E080899189A289B3890196A11D40
S1131130B11D808B918BA28BB38B0895E2E3F7E012
S113114084899589A689B7890196A11DB11D848BCF
S1131150958BA68BB78B0895CF93DF93C82F85E823
S113116093E00E9478108C2F90E00E949A1084E9FA
S113117093E00E9478100E9407080E94F1108FE902
S113118093E00E9478106091530770915407809106
S11311905507909156070E94F11087EA93E00E9448
S11311A07810C2E3D7E0688179818A819B810E94AB
S11311B0F11081EB93E00E9478106C817D818E8127
S11311C09F810E94F1108DEB93E00E947810688556
S11311D079858A859B850E94F11087EC93E00E94B3
S11311E078106C857D858E859F850E94F11082ED37
S11311F093E00E947810688979898A899B890E9482
S1131200F1108DED93E00E9478106C897D898E89B0
S11312109F890E94F1108AEE93E00E9478106091F9
S11312204F077091500780915107909152070E9487
S1131230F11087EF93E00E9478100E941C088FEF52
S113124093E00E94781080914E070E94851088EFE9
S113125096E00E947810DF91CF9108950E94430A8E
S11312600E94940AFDCF2F923F924F925F926F9209
S11312707F928F929F92AF92BF92CF92DF92EF9222
S1131280FF920F931F93CF93DF93CDB7DEB76A9787
S11312900FB6F894DEBF0FBECDBF009709F4B6C0F9
S11312A06115710509F4B4C01A01788B6F879E8BA0
S11312B08D8B10E000E01E86412C512C32011A86E1
S11312C01B861C861D86812C912C5401C12CD12C8B
S11312D0760145C0CE0101960E94D80C882399F16D
S11312E089819A81092E000CAA0BBB0BC80ED91E4A
S11312F0EA1EFB1E8B819C81092E000CAA0BBB0BE2
S1131300880E991EAA1EBB1E8D819E81092E000C7B
S1131310AA0BBB0B2A853B854C855D85280F391F9D
S11313204A1F5B1F2A873B874C875D878F8198857F
S1131330092E000CAA0BBB0B480E591E6A1E7B1EFD
S113134039853E870F5F2114310411F0F1010995AD
S113135087EA91E60197F1F700C000001F5F1A3099
S113136008F4B8CFAF85B88951960C93002309F4DB
S113137051C0202F30E040E050E0298B3A8B4B8B5A
S11313805C8BC301B2010E94D4112F8B388F498F1B
S11313905A8F6A857B858C859D8529893A894B89F5
S11313A05C890E94D4112A873B874C875D87C501DD
S11313B0B40129893A894B895C890E94D411290195
S11313C03A01C701B60129893A894B895C890E948F
S11313D0D411CA01B90138893F934F854F938E8444
S11313E0AF88B88CC98CDA8CEA84FB840C851D85A3
S11313F0A30192010E94310D6F8578898D899E89A0
S11314000E94F2010F900F9081E005C080E003C0BC
S113141080E001C080E06A960FB6F894DEBF0FBE8C
S1131420CDBFDF91CF911F910F91FF90EF90DF908F
S1131430CF90BF90AF909F908F907F906F905F9070
S11314404F903F902F9008950E949F1140915D0707
S113145062E677E083E697E00E94F80580916207F0
S11314600E944C0C0E945E0C08950E942D0E82E096
S11314700E94340C0E94240A8FE493EC0197F1F744
S113148000C00000F7CFCF93DF931F92CDB7DEB734
S113149019820E9460070E942A0E0E94510F0E9426
S11314A088000E94DA0B0E94E80B78940E94950051
S11314B080935D0710925E0710925F071092600799
S11314C01092610783E697E00E94420180936207CD
S11314D00E944C0CCE0101960E94A90C811104C0FB
S11314E08FE094E00E94350A0E94B90C811104C077
S11314F083E294E00E94350A81E00E94340C298141
S113150040915D076091620783E697E00E943E0E7A
S11315106091620780915D070E94820B0E94931183
S11315200F90DF91CF9108950F931F93CF93DF9383
S1131530CDB7DEB762970FB6F894DEBF0FBECDBF4E
S11315400E949F110E94240A44E25AE0BE016F5F88
S11315507F4F83E697E00E943309811118C08DE222
S113156094E00E94781060915E0770915F0780910B
S11315706007909161070E94F11088EF96E00E9445
S1131580781082E00E94340C0E9466082FC081E02B
S11315900E94340C0E94580840915E0750915F07E6
S11315A060916007709161078E010F5F1F4F20915A
S11315B0620780915D070E94A20E80915E07909160
S11315C05F07A0916007B09161070196A11DB11D4D
S11315D080935E0790935F07A0936007B0936107C1
S11315E09BB180E289278BB90E949F1162960FB646
S11315F0F894DEBF0FBECDBFDF91CF911F910F9145
S11316000895813029F0823031F486E091E0089524
S113161080E091E008958CE091E00895CF93DF930A
S1131620D82FC62F8EE494E00E9478108D2F90E07E
S11316300E949A108DE594E00E94781086E694E06A
S11316400E94781083E794E00E94781081E090E093
S11316500E949A108BE794E00E94781087E894E047
S11316600E94781089E894E00E9478108EE894E053
S11316700E9478108FE994E00E94781085EA94E043
S11316800E94781081EB94E00E9478108AEB94E039
S11316900E94781085EC94E00E9478108AE091E032
S11316A00E949A108DEC94E00E9478108AE090E0F9
S11316B00E949A1083ED94E00E94781081E090E0FB
S11316C00E949A1080EE94E00E9478108C2F0E9461
S11316D0010B0E94781086EE94E00E94781083EF4C
S11316E094E00E9478108FEF94E00E9478108CE0D0
S11316F095E00E94781088EF96E00E947810DF91C0
S1131700CF910895CF93DF93D82FC62F85E195E02D
S11317100E94781086E694E00E94781085E295E0B5
S11317200E94781081E090E00E949A108BE794E088
S11317300E94781087E894E00E9478108FE994E082
S11317400E94781085EA94E00E94781081EB94E07E
S11317500E9478108AEB94E00E94781080E395E070
S11317600E9478108D2F90E00E949A1080EE94E0F1
S11317700E9478108C2F0E94010B0E9478108AE33B
S113178095E00E94781083EF94E00E9478108FEF28
S113179094E00E9478108CE095E00E94781088EF25
S11317A096E00E947810DF91CF9108958BB18F71EC
S11317B08BB908958AB1806E8AB90E94D60B1092B3
S11317C09E0710929D0710929C0710929B07089504
S11317D00E94D60B8BB180628BB98FE59AEE01978C
S11317E0F1F700C000000E94D60B8FE295E7019745
S11317F0F1F700C000008BB180648BB98FE59AEEDD
S11318000197F1F700C000000E94D60B8FE295E724
S11318100197F1F700C000008BB180688BB98FE5A8
S11318209AEE0197F1F700C000000E94D60B8FE2F8
S113183095E70197F1F700C000008BB1806E8BB97A
S11318409FE926E881E0915020408040E1F700C004
S113185000000E94D60B10929E0710929D071092D2
S11318609C0710929B07089590919E07981799F0F2
S113187080939E0710929C07811104C08BB18F7BCB
S11318808BB90895813021F48BB180648BB90895AC
S11318908BB18F7B8BB9089590919D07981769F050
S11318A080939D0710929B07813021F48BB180684F
S11318B08BB908958BB18F778BB9089580919E076A
S11318C0813021F48BB180648BB913C0811104C0C1
S11318D08BB18F7B8BB90DC080919C078F5F8093F8
S11318E09C07823030F010929C079BB180E48927DA
S11318F08BB980919D07811104C08BB18F778BB90F
S11319000895813021F48BB180688BB9089580915A
S11319109B078F5F80939B07853028F010929B076D
S11319208BB180588BB9089590E0982F8827862B27
S11319300895CF93462F682F85E30E945D0FC82F2B
S1131940811103C00E94740801C0C1E08C2FCF91A3
S11319500895CF93AC016DE085E30E94910FC82FE9
S1131960811103C00E94740801C0C1E08C2FCF9183
S1131970089560E080E00E94990C8823C1F060E043
S113198081E00E94990C882391F064E782E00E9430
S1131990990C882361F063E083E00E94990C88230A
S11319A031F061E087E00E94990C811181E0089593
S11319B0EF92FF921F93CF93DF93CDB7DEB72997B2
S11319C00FB6F894DEBF0FBECDBF7C0140E06DE8DA
S11319D085E30E945D0F182F811103C00E947408D3
S11319E033C081EE94E00197F1F700C0000029E0D4
S11319F0AE014F5F5F4F60E185E30E94D40F182F63
S1131A00811103C00E9474081FC06A8189810E94E9
S1131A10940CF701918380836C818B810E94940CD8
S1131A20F701938382836E818D810E94940CF70168
S1131A309583848368858F810E94940CF701978332
S1131A4086838985808711E0812F29960FB6F894C3
S1131A50DEBF0FBECDBFDF91CF911F91FF90EF90FE
S1131A6008953F924F925F926F927F928F929F92CE
S1131A70AF92BF92CF92DF92EF92FF920F931F9398
S1131A80CF93DF93CDB7DEB729013A01382C8C8888
S1131A909D889B01AC012456344441095109A8EEA8
S1131AA0B3E00E94021229E532E040E050E00E94D7
S1131AB0D411DA01C9018C53964FAF4FBF4FF401D3
S1131AC080839183A283B383A8EEB7E6A301920136
S1131AD00E9402122B013C01992334F4FFEF4F0EB4
S1131AE0FFE75F1E611C711CD301C201072E7FE05A
S1131AF0B595A795979587957A95D1F7702DF401AB
S1131B0084839583A683B783A8EEB7E6A8019701DB
S1131B100E9402128B019C01992324F40150104865
S1131B202F4F3F4FD901C801072E7FE0B595A795E8
S1131B30979587957A95D1F7702DF40180879187D1
S1131B40A287B387A8EEB7E6A60195010E94021208
S1131B508B019C01992324F4015010482F4F3F4FCF
S1131B60D901C801072E7FE0B595A795979587956C
S1131B707A95D1F7702DF40184879587A687B78766
S1131B80308ADF91CF911F910F91FF90EF90DF90FA
S1131B90CF90BF90AF909F908F907F906F905F9009
S1131BA04F903F900895813029F0823031F486E0DF
S1131BB091E0089580E091E008958CE091E008952B
S1131BC01F93CF93DF93EC01162F88E495E00E94D6
S1131BD07810812F0E94D30D0E94781085E595E03E
S1131BE00E9478108C819D810E949A108FE595E067
S1131BF00E94781068A979A98AA99BA90E94F1106A
S1131C0088EF96E00E94781089E695E00E947810AB
S1131C10688579858A859B850E94521187E795E0BE
S1131C200E9478106C857D858E859F850E94521157
S1131C3086E895E00E947810688979898A899B8969
S1131C400E94521188EF96E00E947810DF91CF91A4
S1131C501F9108950E945B100895CF93DF93EC01C8
S1131C6085E995E00E947810CE010E94781088EFF3
S1131C7096E00E947810DF91CF910895FF920F9320
S1131C801F93CF93DF938C01F62EC42FD22F8CE9B0
S1131C9095E00E94781086E694E00E9478108AEB22
S1131CA095E00E94781085EE95E00E9478108AE015
S1131CB090E00E949A1086EF95E00E94781084E6E6
S1131CC090E00E949A108BE096E00E94781082ECDB
S1131CD094E00E9478108BE196E00E9478108AE0EC
S1131CE091E00E949A1088EF96E00E9478106F2D80
S1131CF0C8010E94E00D8BE296E00E9478108D2FBF
S1131D000E9485108DE396E00E9478108C2F90E05D
S1131D100E949A1087E596E00E9478100E941C08A1
S1131D2086E696E00E9478100E9413080E94F11043
S1131D3083E796E00E947810DF91CF911F910F9175
S1131D40FF9008958F929F92AF92BF92EF92FF926D
S1131D500F931F93CF93DF93E82E4A015B01F22E7A
S1131D60E8018EE896E00E94781086E694E00E94EE
S1131D7078108FE893E00E9478108E2D90E00E94F6
S1131D809A1088E494E00E947810C501B4010E947E
S1131D90F1108DEC94E00E947810898990E00E9403
S1131DA09A1080EE94E00E9478108F2D0E94D30D3B
S1131DB00E9478108AE996E00E94781068817981FF
S1131DC08A819B810E9452118EE996E00E947810CC
S1131DD06C817D818E819F810E94521183EA96E0FD
S1131DE00E947810688579858A859B850E945211A6
S1131DF088EA96E00E9478106C857D858E859F85A3
S1131E000E9452118DEA96E00E94781088890E94FF
S1131E10851088EF96E00E947810DF91CF911F9192
S1131E200F91FF90EF90BF90AF909F908F90089587
S1131E3084EA8093DC008091DC008823E4F78091BD
S1131E40D900887F883021F0803121F481E0089521
S1131E5081E0089580E0089584E98093DC0008958A
S1131E608093DB0084E88093DC008091DC0088238D
S1131E70E4F78091D900887F089584EC8093DC0096
S1131E808091DC008823E4F78091DB00089584E8E6
S1131E908093DC008091DC008823E4F78091DB00F0
S1131EA008958EB183608EB91092D90082E0809338
S1131EB0D80084E08093DC0008950F931F93CF93A0
S1131EC0DF93D82F162F042F0E94180FC82F8111CB
S1131ED003C00E942C0F1FC08D2F880F0E94300F4B
S1131EE0883121F00E942C0FC0E015C0812F0E9480
S1131EF0300F883221F00E942C0FC0E00CC0802FDC
S1131F000E94300F883221F00E942C0FC0E003C0E1
S1131F100E942C0FC1E08C2FDF91CF911F910F9164
S1131F200895EF92FF921F93CF93DF93D82F162F2C
S1131F307A010E94180FC82F811103C00E942C0F30
S1131F402CC0DD0F8D2F0E94300F883121F00E94AC
S1131F502C0FC0E022C0812F0E94300F883221F064
S1131F600E942C0FC0E019C00E94180FC82F8111C5
S1131F7003C00E942C0F11C08D2F81600E94300F6E
S1131F80803421F00E942C0FC0E007C00E94470F4C
S1131F90F70180830E942C0FC1E08C2FDF91CF9139
S1131FA01F91FF90EF900895EF92FF920F931F936C
S1131FB0CF93DF93222309F448C0C22F7A01062F5E
S1131FC0182F0E94180FD82F811103C00E942C0FC4
S1131FD03DC0110F812F0E94300F883121F00E94E3
S1131FE02C0FD0E033C0802F0E94300F883221F0B4
S1131FF00E942C0FD0E02AC00E94180FD82F811104
S113200003C00E942C0F22C0812F81600E94300FD8
S11320108034A1F00E942C0FD0E018C087010D0F6E
S1132020111D8FEF8C0FD81303C00E94470F02C0FD
S11320300E943D0FF8018083DF5F01C0D0E0DC1710
S113204068F30E942C0FD1E001C0D0E08D2FDF9106
S1132050CF911F910F91FF90EF9008951F920F92CF
S11320600FB60F9211242F933F934F935F936F9367
S11320707F938F939F93AF93BF93EF93FF9390912D
S1132080C0008091C6009C7119F00E94360602C0FF
S11320900E944006FF91EF91BF91AF919F918F9164
S11320A07F916F915F914F913F912F910F900FBE50
S11320B00F901F9018958AB18E7F8AB98BB1816079
S11320C08BB90E942D061092C5008CE08093C40049
S11320D01092C00088E98093C10086E08093C2001A
S11320E008959091C00095FFFCCF8093C600089599
S11320F0CF93DF93EC0103C021960E947110888175
S11321008111FACFDF91CF910895CF93C82FE82F93
S1132110E295EF70F0E0E854F94F80810E9471106D
S1132120CF70EC2FF0E0E854F94F80810E947110D9
S1132130CF9108951F93CF93DF9300D000D01F92C7
S1132140CDB7DEB7AC01892B91F580E30E94711005
S11321503FC09A01ADECBCEC0E94F31196958795B3
S113216096958795969587959C01220F331F880F26
S1132170991F880F991F880F991F820F931F9A0127
S1132180281B390BC901805DE1E0F0E0EC0FFD1F75
S1132190E10FF11D80839A010E94F311AC01569561
S11321A0479556954795569547951F5F01C010E092
S11321B04115510571F60AC01150E1E0F0E0EC0F51
S11321C0FD1FE10FF11D80810E9471101111F4CFE8
S11321D00F900F900F900F900F90DF91CF911F9160
S11321E008951F93CF93DF93CDB7DEB72A970FB629
S11321F0F894DEBF0FBECDBF611571058105910551
S1132200C1F480E30E94711027C02AE030E040E06E
S113221050E00E94B211605DE1E0F0E0EC0FFD1FC0
S1132220E10FF11D6083622F732F842F952F1F5FA1
S113223001C010E0611571058105910531F70AC0EF
S11322401150E1E0F0E0EC0FFD1FE10FF11D808182
S11322500E9471101111F4CF2A960FB6F894DEBFC4
S11322600FBECDBFDF91CF911F910895CF92DF9222
S1132270EF92FF926B017C0199235CF48DE20E9442
S11322807110F094E094D094C094C11CD11CE11C52
S1132290F11CC701B6010E94F110FF90EF90DF908E
S11322A0CF900895CF92DF92EF92FF92CF93DF9376
S11322B06B017C0199235CF48DE20E947110F0940F
S11322C0E094D094C094C11CD11CE11CF11CC70142
S11322D0B60124E630E040E050E00E94D411D62F4D
S11322E0CA01B9010E94F1108EE20E947110CDEC76
S11322F0DC9FC12D1124C695C695C69580E38C0F2D
S11323000E947110CC0F8C2F880F880FC80F8D2F4F
S11323108C1B805D0E947110DF91CF91FF90EF9034
S1132320DF90CF90089598E288E10FB6F894A895CD
S1132330809360000FBE90936000A8950895A895BF
S1132340089589EC96E00E947810F8949EE088E164
S11323500FB6F894A895809360000FBE9093600028
S11323607894FFCFA1E21A2EAA1BBB1BFD010DC05E
S1132370AA1FBB1FEE1FFF1FA217B307E407F50731
S113238020F0A21BB30BE40BF50B661F771F881F0D
S1132390991F1A9469F760957095809590959B01A3
S11323A0AC01BD01CF010895052E97FB1EF40094E6
S11323B00E94EB1157FD07D00E94B21107FC03D015
S11323C04EF40C94EB1150954095309521953F4F68
S11323D04F4F5F4F089590958095709561957F4F0D
S11323E08F4F9F4F0895A29FB001B39FC001A39F39
S11323F0700D811D1124911DB29F700D811D11243A
S1132400911D08950E94F311A59F900DB49F900D06
S1132410A49F800D911D11240895DF93CF931F93E2
S11324200F939A9DF02D219FF00D8B9DF00D8A9DA9
S1132430E02DF10D039FF00D029FE00DF11D4E9D67
S1132440E00DF11D5E9DF00D4F9DF00D7F936F9398
S1132450BF92AF925F934F93D5010E94F3118B010A
S1132460AC01D7010E94F311EB01E80FF91FD6016B
S11324700E945D122F913F91D6010E94F311C60F65
S1132480D71FE81FF91FAF91BF910E945D122F91D2
S11324903F910E94F311C60FD71FE81FF91FD60101
S11324A00E94F311E60FF71F9801BE01CF0111241A
S11324B00F911F91CF91DF9108950E94F311460F60
S11324C0571FC81FD91F08F431960895689401C096
S11324D0E894F92FF12B12F00C949A12A0E0B0E0DA
S11324E0E4E7F2E10C940C13092E059422F40E9403
S11324F0F612112392F4F0E80F26FFEFE094F09423
S113250000951095B094C094D094A194BF0ACF0ABA
S1132510DF0AEF0AFF0A0F0B1F0B0E94A51207FC2C
S11325200E94F612CDB7DEB7ECE00C942813689441
S113253001C0E8948F929F92CF93DF930E94A512DB
S1132540DF91CF919F908F90089588249924F4016E
S1132550E401B0E49F93AA279A158B049C04ED052B
S1132560FE05CF05D007A10798F4AD2FDC2FCF2FA0
S1132570FE2FE92D982C892E982F872F762F652FE3
S1132580542F432F322F2227B85031F7BF9127C041
S11325901B2EBF91BB27220F331F441F551F661FDD
S11325A0771F881F991F881C991CEE1FFF1FCC1FC3
S11325B0DD1FAA1FBB1F8A149B04EC05FD05CE0575
S11325C0DF05A007B10748F08A189B08EC09FD094C
S11325D0CE09DF09A00BB10B21601A94E1F62EF4A9
S11325E09401AF01BE01CD01000C08956095709572
S11325F08095909530954095509521953F4F4F4F3C
S11326005F4F6F4F7F4F8F4F9F4F08952F923F9291
S11326104F925F926F927F928F929F92AF92BF92EE
S1132620CF92DF92EF92FF920F931F93CF93DF939A
S1132630CDB7DEB7CA1BDB0B0FB6F894DEBF0FBEF7
S1132640CDBF09942A88398848885F846E847D8444
S11326508C849B84AA84B984C884DF80EE80FD8046
S11326600C811B81AA81B981CE0FD11D0FB6F894BC
S1132670DEBF0FBECDBFED0108950024A7FD009479
S11326802A17300540055005600570058005900542
S11326900895A0E0B0E0EFE4F3E10C9407135C01CB
S11326A06B017A016115710519F0FB019183808337
S11326B0E114F10429F0C7010297839708F0E5C0FB
S11326C0E5012196F5011081812F90E00E945415B7
S11326D0892B11F05E01F4CF1D3229F42196F50106
S11326E0118101E007C01B3221F4E5012296F501B6
S11326F0118100E0E114F10409F1F0E1EF16F104B5
S113270029F43FC010E3E114F10421F128E0E216BA
S1132710F10401F154F4E2E0EE16F10421F5812C08
S1132720912CA12CB0E4BB2E3EC0FAE0EF16F104CC
S113273039F020E1E216F104B1F430C0103319F19C
S1132740FAE0EF2EF12CACEC8A2E982CA82CACE0FD
S1132750BA2E29C078E0E72EF12C812C912CA12CE3
S1132760E0E1BE2E20C060E070E080E090E89701D8
S11327700F2C000C440B550B0E94B21149015A0155
S113278012C0103359F488818F7D883509F0BACF8F
S113279019812296026080E1E82EF12C812C912C83
S11327A0A12C68E0B62E40E060E070E0CB01270188
S11327B00F2C000C66087708FE0150ED352E310E03
S11327C029E0231570F42FEB210F2A3118F439EC8A
S11327D0332E06C02FE9210F2A3118F529EA322EAB
S11327E0310E232D30E02E153F05DCF447FD16C0D5
S11327F086169706A806B90670F0A30192010E94F6
S1132800ED15630D711D811D911D613071058105EB
S113281020E8920710F04FEF01C041E021961081AB
S1132820CBCF202F2170C114D10471F0442329F09F
S11328302197F601D183C08307C001FF19C02297F5
S1132840F601D183C08314C047FF12C0222329F0AC
S113285060E070E080E090E804C06FEF7FEF8FEFFE
S11328609FE722E230E03093A00720939F0709C03E
S1132870222381F090958095709561957F4F8F4FBD
S11328809F4F462F372F282F12C040E030E020E022
S113289090E00DC097FFF5CF82E290E09093A007FF
S11328A080939F076FEF7FEF8FEF9FE7EACF642F4F
S11328B0732F822FCDB7DEB7E1E10C942313A0E090
S11328C0B0E0E5E6F4E10C9407135C016B017A01D6
S11328D06115710519F0FB0191838083E114F10402
S11328E029F0C7010297839708F0C9C0E501219632
S11328F0F5011081812F90E00E945415892B11F06D
S11329005E01F4CF1D3229F42196F501118101E015
S113291007C01B3221F4E5012296F501118100E084
S1132920E114F104B1F0F0E1EF16F10429F4B0C0C0
S113293010E3E114F10401F12AE0E216F104B1F12B
S113294080E1E816F10471F0E8E0EE16F104F1F428
S113295013C0103341F588818F7D883549F719817B
S113296022960260F0E1EF2EF12C88248A94982CB0
S1132970A82CAFE0BA2E20C078E0E72EF12C8824F2
S11329808A94982CA82CEFE1BE2E16C06FEF7FEF2F
S1132990CB0197010F2C000C440B550B0E94B21174
S11329A049015A0109C08AE0E82EF12C69E9862E12
S11329B0982CA82C69E1B62E40E060E070E0CB01D1
S11329C027010F2C000C66087708FE0150ED352E08
S11329D0310E29E0231570F42FEB210F2A3118F45E
S11329E039EC332E06C02FE9210F2A3130F529EABC
S11329F0322E310E232D30E02E153F05F4F44F3FD7
S1132A00C9F086169706A806B90688F0A3019201B4
S1132A100E94ED15232D30E040E050E0620F731F5B
S1132A20841F951F621773078407950710F44FEFEF
S1132A3001C041E021961081C8CFC114D10451F0E6
S1132A40442311F0219703C001FF04C02297F6012B
S1132A50D183C08300FF07C09095809570956195E0
S1132A607F4F8F4F9F4F4F3F79F482E290E09093D6
S1132A70A00780939F073FEF2FEF9FEF0DC040E02B
S1132A8030E020E090E008C0462F372F282F04C004
S1132A90103309F067CF5FCF642F732F822FCDB728
S1132AA0DEB7E1E10C94231391110C94A615803246
S1132AB019F089508550C8F708954CEF56E00E94EC
S1132AC07F150895FB01DC0104C08D9101908019EC
S1132AD021F441505040C8F7881B990B0895DC013C
S1132AE001C06D9341505040E0F70895FB01DC01B3
S1132AF08D91019080190110D9F3990B0895FA0171
S1132B00A191B081009719F41097E1F0CD01DC0197
S1132B10CD010D90002011F4C00113C0FB012191DF
S1132B20222319F02015D9F7F3CFFB0121912015A9
S1132B3019F41E92119606C02223C1F70D900020AD
S1132B40A1F7D001FA01A193B083089599278827AA
S1132B500895DC01CB01FC01F999FECF06C0F2BD5A
S1132B60E1BDF89A319600B40D9241505040B8F747
S1132B700895A6E1B0E044E050E00C94AB15DC010C
S1132B80A40FB51F4150504048F0CB01840F951F4E
S1132B902E910E94D01541505040D0F70895262F11
S1132BA0F999FECF92BD81BDF89A019700B402163F
S1132BB039F01FBA20BD0FB6F894FA9AF99A0FBEED
S1132BC008950396272F0E94D0150E94CF15252F14
S1132BD00E94D015242F0C94D015DB018F939F9362
S1132BE00E940212BF91AF91A29F800D911DA39FDD
S1112BF0900DB29F900D11240895F894FFCF1C
S1132BFE56414C49440044495254590044454641B7
S1132C0E554C5400244E443238305253502C4F4BB2
S1132C1E2C434D443D00244E443238305253502CF4
S1132C2E4552524F522C524541534F4E3D00244E65
S1132C3E4432383043414C2C53544154453D002CBE
S1132C4E434F554E543D002C4F583D002C4F593D8B
S1132C5E002C4F5A3D002C47583D002C47593D003F
S1132C6E2C475A3D002C4E583D002C4E593D002CFD
S1132C7E4E5A3D002C5443414C3D00200048454CD7
S1132C8E5000244E443238305253502C434F4D4D45
S1132C9E414E44533D3A48454C507C3A494E464F7A
S1132CAE7C3A4944454E544954597C3A4449414727
S1132CBE7C3A444941472057445420544553547C4C
S1132CCE3A43414C20524541447C3A43414C204FB7
S1132CDE464653455420782079207A7C3A43414C19
S1132CEE204741494E20782079207A7C3A43414C42
S1132CFE204E4F49534520782079207A7C3A43411F
S1132D0E4C2054454D5020747C3A43414C20534141
S1132D1E56457C3A43414C2052455345540D0A00C6
S1132D2E494E464F004944454E544954590044496E
S1132D3E4147005744540054455354004241445FA4
S1132D4E444941475F5744545F434F4D4D414E44B0
S1132D5E00554E4B4E4F574E5F444941475F5355B6
S1132D6E42434F4D4D414E440043414C00554E4B52
S1132D7E4E4F574E5F434F4D4D414E44004D4953B8
S1132D8E53494E475F43414C5F535542434F4D4D5C
S1132D9E414E44004241445F4F46465345545F41C1
S1132DAE5247554D454E54530043414C5F4F464692
S1132DBE534554004241445F4741494E5F41524797
S1132DCE554D454E54530043414C5F4741494E00C7
S1132DDE4241445F4E4F4953455F415247554D451D
S1132DEE4E54530043414C5F4E4F495345004241AC
S1132DFE445F54454D505F415247554D454E540026
S1132E0E43414C5F54454D500043414C5F53415632
S1132E1E4500454550524F4D5F5645524946595F00
S1132E2E4641494C45440043414C5F524553455439
S1132E3E00554E4B4E4F574E5F43414C5F535542D8
S1132E4E434F4D4D414E4400504F5745525F4F4EE8
S1132E5E0045585445524E414C0042524F574E5F16
S1132E6E4F5554005741544348444F4700554E4B19
S1132E7E4E4F574E00244E44323830444941472C6D
S1132E8E49443D002C555054494D455F533D002C4B
S1132E9E424F4F54533D002C4D4541535F4F4B3DD4
S1132EAE002C4D4541535F4641494C3D002C54572F
S1132EBE495F4552523D002C554152545F434D4497
S1132ECE3D002C554152545F4F56463D002C45450E
S1132EDE50524F4D5F4552523D002C5744545F5251
S1132EEE45534554533D002C52455345543D002CF7
S1132EFE52455345545F464C4147533D3078005438
S1132F0E4D41475F4445564943455F49445F5245E9
S1132F1E414400544D41475F494E49540045525275
S1132F2E4F522C544D41475F4E4F5F56414C4944CE
S1132F3E5F53414D504C45532C5345513D00244E47
S1132F4E44323830494E464F2C49443D002C4E4FA6
S1132F5E44454F533D00302E352E332D616C706831
S1132F6E6131002C50524F544F3D002C424F415270
S1132F7E445F5245563D0041002C48573D00544D88
S1132F8E414720446562756720426F617264002C6C
S1132F9E4D43553D0041546D65676133323850429F
S1132FAE002C53454E534F523D00544D414735323C
S1132FBE37334132002C52414E47453D002C415689
S1132FCE473D002C454550524F4D5F5645523D00EE
S1132FDE2C43414C3D002C4255494C445F444154D2
S1132FEE453D004A756C2031362032303236002C85
S1132FFE4255494C445F54494D453D0030393A31B0
S113300E363A3231004E4F44454F535F5645525374
S113301E494F4E3D002C50524F544F434F4C3D00A0
S113302E2C4E4F44455F49443D000D0A4255494CD0
S113303E445F444154453D0043414C49425241543E
S113304E494F4E3D002C56455253494F4E3D002C90
S113305E434F554E5445523D0043414C5F4F4646F7
S113306E5345545F583D002C43414C5F4F464653E5
S113307E45545F593D002C43414C5F4F46465345E2
S113308E545F5A3D004552524F522C000D0A4E4485
S113309E323830204D61676E657469632046696508
S11330AE6C64204E6F64652076000D0A55415254AF
S11330BE303D343830302C52585F434F4D4D414ED5
S11330CE44533D4F4E2C545749313D5045302F50AB
S11330DE45310D0A00415645524147455F53414D16
S11330EE504C45533D002C53414D504C455F494E79
S11330FE54455256414C5F4D533D000D0A544D41BB
S113310E475F56415249414E543D002C544D414760
S113311E5F52414E47455F4D543D00544D41475F0C
S113312E4445564943455F49443D3078000D0A54A1
S113313E4D41475F494E49543D4F4B0D0A424F4155
S113314E52445F49443D000D0A52455345545F4372
S113315E415553453D002C424F4F545F434F554EFE
S113316E543D000D0A545950452048454C502046B4
S113317E4F5220434F4D4D414E44530D0A00244EA1
S113318E443238302C5645523D002C543D002C42CE
S113319E583D002C42593D002C425A3D002C5354AC
S11331AE415455533D30780030313233343536374F
S11331BE383941424344454600244E443238305255
S11331CE53502C4F4B2C434D443D444941475F577C
S11331DE44545F544553542C52455345545F494E01
S10F31EE5F4D533D313030300D0A0000BD
S9030000FC
