S01700004763634170706C69636174696F6E312E737265635B
S11300000C945A000C9486000C9486000C94860080
S11300100C9486000C9486000C9486000C94860044
S11300200C9486000C9486000C9486000C94860034
S11300300C9486000C9486000C94C2060C948600E2
S11300400C9486000C9486000C94FF0F0C9486008C
S11300500C9486000C9486000C9486000C94860004
S11300600C9486000C9486000C9486000C948600F4
S11300700C9486000C9486000C9486000C948600E4
S11300800C9486000C9486000C9486000C948600D4
S11300900C9486000C9486000C9486000C948600C4
S11300A00C9486000C9486000C9486000C948600B4
S11300B00C94860011241FBECFEFD8E0DEBFCDBF65
S11300C084B78093CA0814BE0FB6F894A89580919B
S11300D06000886180936000109260000FBE17E09A
S11300E0A0E0B1E0ECE7FCE202C005900D92AC3078
S11300F0B107D9F728E0ACE0B7E001C01D92AA3CF3
S1130100B207E1F70E94FF080C943C160C9400001F
S113011087B1807F87B98AB18B7F8AB988B1807FA4
S113012088B98BB18B7F8BB90895309902C080E078
S113013001C081E03199826032998460339988608A
S11301404A99806180958F7108954F925F926F9262
S11301507F92AF92BF92CF92DF92EF92FF920F9372
S11301601F93DC01CB01821B930BA40BB50B2C0159
S11301703D01770C4408542C3201B801A701770FD4
S1130180440B542FBA01AE2CBF2CC02ED12EE42E1A
S1130190F42E042F142F282F392F4A2F5B2F642D70
S11301A0742D842D942D0E943D12A0E00E946D13A5
S11301B04CF0205E3E45484F5F4F6F4F7F4F8F4F4F
S11301C09F4F08C02052314A4740510961097109C3
S11301D0810991096894AA24A6F80F2EF2E4BF2E8F
S11301E0F02D0F2EFFE0CF2EF02DD12CE12CF12C91
S11301F000E010E00E949812622F732F842F952F35
S11302001F910F91FF90EF90DF90CF90BF90AF9030
S11302107F906F905F904F90089566E370E00E9426
S113022091060895CF93DF93EC0188E3FE011192C8
S11302308A95E9F788E392E3A4E4BEE4888399838A
S1130240AA83BB8381E090E09D838C8388E390E064
S11302509F838E8380E492E4AFE0B0E08C8B9D8B2F
S1130260AE8BBF8B888F998FAA8FBB8F8C8F9D8FFE
S1130270AE8FBF8FCE010E940D019FAB8EABDF917D
S1130280CF9108950F931F93CF93DF93EC0148E32D
S113029050E060E070E00E94E81588819981AA81AD
S11302A0BB8188339243A444BE4481F48C819D81F4
S11302B0019761F48E819F81C89741F40EA91FA90B
S11302C0CE010E940D010817190781F088819981D8
S11302D0AA81BB818F3F9F4FAF4FBF4F11F00E9448
S11302E06508CE010E94120180E001C081E0DF9127
S11302F0CF911F910F910895CF93DF93CDB7DEB7C0
S1130300C057D1090FB6F894DEBF0FBECDBFFC01B4
S113031098E3DE01119601900D929A95E1F788E336
S113032092E3A4E4BEE489839A83AB83BC8381E033
S113033090E09E838D8388E390E098878F83CE013D
S113034001960E940D0198AF8FAB48E350E060E046
S113035070E0CE0101960E94FE1548E350E060E093
S113036070E0CE01C9960E94E81548E350E0BE0152
S1130370675C7F4FCE0101960E949215892B21F074
S11303800E94650880E001C081E0C059DF4F0FB6CC
S1130390F894DEBF0FBECDBFDF91CF910895CF9308
S11303A0DF93CDB7DEB7E8970FB6F894DEBF0FBE84
S11303B0CDBF48E350E06FEF70E0CE0101960E949C
S11303C09F1548E350E060E070E0CE0101960E9482
S11303D0FE15E8960FB6F894DEBF0FBECDBFDF91D1
S11303E0CF910895CF92DF92EF92FF920F931F93D4
S11303F0CF93DF936C01EB01FC01E488F588068957
S1130400178920853185428553856C817D818E8154
S11304109F810E94A5006C837D838E839F83F60158
S1130420E08CF18C028D138D2485358546855785A6
S1130430688579858A859B850E94A5006887798768
S11304408A879B87F601E48CF58C068D178D2089AD
S11304503189428953896C857D858E859F850E946B
S1130460A5006C877D878E879F87DF91CF911F9131
S11304700F91FF90EF90DF90CF900895813029F095
S1130480823031F486E091E0089580E091E00895AF
S11304908CE091E00895CF93DF93EC0184E191E047
S11304A00E943E10CE010E943E1088E097E00E9418
S11304B03E10DF91CF910895CF93DF93EC018CE24E
S11304C091E00E943E10CE010E943E1088E097E029
S11304D00E943E10DF91CF910895CF92DF92EF9268
S11304E0FF92CF93DF93EC010E94B4076B017C0170
S11304F080910E07882341F163E177E0CE010E94E9
S1130500A615892B09F580910F0790911007A091EA
S11305101107B0911207A7019601281B390B4A0B4A
S11305205B0BDA01C901C0920F07D0921007E09269
S11305301107F0921207883E9340A105B10520F4FB
S11305400E94570881E015C04FE550E0BE0183E1E9
S113055097E00E94AF1510927207C0920F07D092D5
S11305601007E0921107F092120781E080930E07C2
S113057080E0DF91CF91FF90EF90DF90CF900895CE
S1130580EF92FF920F931F93CF93DF9300D0CDB7D9
S1130590DEB78C017B011A8219824AE050E0BE0169
S11305A06F5F7F4F0E948F14E981FA810E171F0736
S11305B051F02081211109C0F70160837183828386
S11305C0938381E003C080E001C080E00F900F902E
S11305D0DF91CF911F910F91FF90EF900895CF92EB
S11305E0DF92EF92FF920F931F93CF93DF930097C5
S11305F0D9F061157105D1F041155105C9F06A01B1
S1130600EB01B9010E94C0028823A1F0B801CE0118
S11306100E94C002882381F0B701C6010E94C00273
S1130620882361F081E00BC080E009C080E007C04E
S113063080E005C080E003C080E001C080E0DF917D
S1130640CF911F910F91FF90EF90DF90CF9008957D
S1130650EF92FF920F931F93CF93DF9300D0CDB708
S1130660DEB78C017B011A8219824AE050E0BE0198
S11306706F5F7F4F0E947913E981FA810E171F077C
S113068051F02081211109C0F701608371838283B5
S1130690938381E003C080E001C080E00F900F905D
S11306A0DF91CF911F910F91FF90EF900895CF921A
S11306B0DF92EF92FF920F931F93CF93DF930097F4
S11306C0D9F061157105D1F041155105C9F06A01E0
S11306D0EB01B9010E9428038823A1F0B801CE01DF
S11306E00E942803882381F0B701C6010E942803D1
S11306F0882361F081E00BC080E009C080E007C07E
S113070080E005C080E003C080E001C080E0DF91AC
S1130710CF911F910F91FF90EF90DF90CF900895AC
S11307201F93CF93DF93EC01162F8EE391E00E9489
S11307303E10812F0E943E020E943E1084EA96E001
S11307400E943E108C819D810E9460108FE491E094
S11307500E943E1068A979A98AA99BA90E94B71092
S113076087E591E00E943E10688579858A859B859E
S11307700E94FC108CE591E00E943E106C857D8502
S11307808E859F850E94FC1081E691E00E943E10B8
S1130790688979898A899B890E94FC1086E691E0A0
S11307A00E943E106C897D898E899F890E94FC106D
S11307B08BE691E00E943E10688D798D8A8D9B8D29
S11307C00E94FC1080E791E00E943E106C8D7D8DAC
S11307D08E8D9F8D0E94FC1085E791E00E943E1053
S11307E068A179A18AA19BA10E94B7108AE791E030
S11307F00E943E106CA17DA18EA19FA10E94B71002
S11308008FE791E00E943E1068A579A58AA59BA573
S11308100E94B71084E891E00E943E106CA57DA56B
S11308208EA59FA50E94FC1088E097E00E943E10D0
S1130830DF91CF911F9108956F927F928F929F9233
S1130840AF92BF92CF92DF92EF92FF920F931F93DA
S1130850CF93DF93CDB7DEB72C970FB6F894DEBFF6
S11308600FBECDBF5B016A01F22E6BE871E00E94FE
S11308708D158C01009709F4F9C16DE871E00E94AF
S1130880A615892B29F482E991E00E943E10EEC15D
S113089064E272E0C8010E94A615892B39F069E26E
S11308A072E0C8010E94A615892B31F4F60160811B
S11308B08F2D0E94DF0ADAC162E372E0C8010E9450
S11308C0A615892B69F56BE871E080E090E00E9441
S11308D08D15009721F48F2D0E947308C7C167E31B
S11308E072E00E94A615892BB1F46BE871E080E0F8
S11308F090E00E948D15009749F06BE372E00E942E
S1130900A615892B19F40E94D111B0C180E492E09C
S11309100E944B02ABC185E592E00E944B02A6C146
S11309206DE672E0C8010E94A615892B29F081E7C3
S113093092E00E944B029AC16BE871E080E090E083
S11309400E948D158C01009729F481E892E00E94A1
S11309504B028CC16EE274E00E94A615892B31F41F
S1130960F6016081C5010E94900380C161EB72E0D1
S1130970C8010E94A615892B09F049C06BE871E0F3
S113098080E090E00E948D153C016BE871E080E00E
S113099090E00E948D154C016BE871E080E090E0DE
S11309A00E948D159E012F5F3F4F79018E010B5FD1
S11309B01F4F285F3F4FA301B4010E9457038111C9
S11309C005C088E992E00E944B0250C189859A854E
S11309D0AB85BC85F50180879187A287B3878D811C
S11309E09E81AF81B88584879587A687B7878981DB
S11309F09A81AB81BC81808B918BA28BB38B82E07B
S1130A00F60180838DEA92E00E945C022FC16FECB4
S1130A1072E0C8010E94A615892B09F058C06BE842
S1130A2071E080E090E00E948D153C016BE871E07C
S1130A3080E090E00E948D154C016BE871E080E04D
S1130A4090E00E948D159E012F5F3F4F79018E012A
S1130A500B5F1F4F285F3F4FA301B4010E94570350
S1130A608823D9F089859A85AB85BC851816190623
S1130A701A061B0694F44D815E816F8178851416E5
S1130A801506160617064CF409811A812B813C8140
S1130A9010161106120613062CF088EB92E00E9441
S1130AA04B02E4C0F501848B958BA68BB78B408FEA
S1130AB0518F628F738F048F158F268F378F82E04B
S1130AC0F60180838BEC92E00E945C02CFC06CEE56
S1130AD072E0C8010E94A615892B09F049C06BE891
S1130AE071E080E090E00E948D153C016BE871E0BC
S1130AF080E090E00E948D154C016BE871E080E08D
S1130B0090E00E948D159E012F5F3F4F79018E0169
S1130B100B5F1F4F285F3F4FA301B4010E94EF02F8
S1130B20811105C084ED92E00E944B029FC089852B
S1130B309A85AB85BC85F50180A391A3A2A3B3A339
S1130B408D819E81AF81B88584A395A3A6A3B7A305
S1130B5089819A81AB81BC8180A791A7A2A7B3A701
S1130B6082E0F601808388EE92E00E945C027EC0FF
S1130B7068E073E0C8010E94A615892B29F56BE88B
S1130B8071E080E090E00E948D15009739F0BE017D
S1130B906F5F7F4F0E942803811105C082EF92E0AE
S1130BA00E944B0263C089819A81AB81BC81F501AB
S1130BB084A795A7A6A7B7A782E0F601808384E05F
S1130BC093E00E945C0252C061E173E0C8010E949C
S1130BD0A615892B79F5F50180A991A9A2A9B3A934
S1130BE00196A11DB11D80AB91ABA2ABB3ABC50106
S1130BF00E947C01882369F081E0F60180838DE006
S1130C0093E00E945C02F6016081C5010E9490039A
S1130C102DC0F50180A991A9A2A9B3A90197A109A1
S1130C20B10980AB91ABA2ABB3AB86E193E00E9478
S1130C304B021CC06FE273E0C8010E94A615892B09
S1130C4089F40E94CF01C5010E941201F6011082AD
S1130C508BE293E00E945C02F6016081C5010E9470
S1130C60900304C085E393E00E944B022C960FB6D8
S1130C70F894DEBF0FBECDBFDF91CF911F910F91CE
S1130C80FF90EF90DF90CF90BF90AF909F908F90A8
S1130C907F906F900895DF92EF92FF920F931F93CE
S1130CA0CF93DF93CDB7DEB7C056D1090FB6F89412
S1130CB0DEBF0FBECDBF8C017B01D42E0E94BD11BF
S1130CC0882341F00E94C0110E9449088CE493E0FB
S1130CD00E944B0260E6CE0101960E9459118823BE
S1130CE089F0CE0101960E946D0281110BC00E9411
S1130CF03B082D2DA701B801CE0101960E941C04CA
S1130D000E94CF11C05ADF4F0FB6F894DEBF0FBE5A
S1130D10CDBFDF91CF911F910F91FF90EF90DF90A6
S1130D200895DC0140E050E08FEF9FEF1BC0FD0110
S1130D30E40FF51F208130E0322F222782279327EA
S1130D4020E00CC099233CF4880F991F31E28327DB
S1130D5030E1932702C0880F991F2F5F283090F34A
S1130D604F5F5F4F4617570710F3089582E084BD25
S1130D7085BD8CE787BD16BCEEE6F0E0808182601D
S1130D80808308951F920F920FB60F9211242F9310
S1130D908F939F93AF93BF938091A0079091A107E6
S1130DA001969093A1078093A0078091A00790914A
S1130DB0A107883E9340B8F01092A1071092A007B3
S1130DC080919C0790919D07A0919E07B0919F07E9
S1130DD00196A11DB11D80939C0790939D07A0933C
S1130DE09E07B0939F07BF91AF919F918F912F91D1
S1130DF00F900FBE0F901F9018958091CA08809392
S1130E009307E3E7F7E010821182128213821482BF
S1130E10158216821782108611861286138614860E
S1130E20158616861786108A118A128A138A148ADE
S1130E30158A168A178A108E118E128E138E148EAE
S1130E40158E168E178E1092A1071092A00710927D
S1130E509C0710929D0710929E0710929F078CE3A7
S1130E6090E00E94F8156093980770939907809317
S1130E709A0790939B076F3F7F4F8F4F9F4F41F48B
S1130E80109298071092990710929A0710929B0754
S1130E90409198075091990760919A0770919B0728
S1130EA04F5F5F4F6F4F7F4F409398075093990761
S1130EB060939A0770939B078CE390E00E9420163E
S1130EC088E390E00E94F815609394077093950767
S1130ED080939607909397076F3F7F4F8F4F9F4F55
S1130EE041F410929407109295071092960710926D
S1130EF097078091930783FF18C0409194075091FE
S1130F00950760919607709197074F5F5F4F6F4FFA
S1130F107F4F40939407509395076093960770937F
S1130F20970788E390E00E9420168091940790919F
S1130F309507A0919607B091970780938F07909398
S1130F409007A0939107B09392070E94B606089564
S1130F502FB7F89460919C0770919D0780919E072C
S1130F6090919F072FBF08958FB7F89420919C0705
S1130F7030919D0740919E0750919F07E091A007F3
S1130F80F091A1078FBFA8EEB3E00E9432126E0F5A
S1130F907F1F811D911D0895609198077091990795
S1130FA080919A0790919B0708958091930780FF01
S1130FB006C08DE593E00E943E1081E001C080E010
S1130FC09091930791FF0AC0882319F08CE70E943F
S1130FD0371086E693E00E943E1081E090919307DB
S1130FE092FF0AC0882319F08CE70E9437108FE61D
S1130FF093E00E943E1081E09091930793FF0AC012
S1131000882319F08CE70E94371089E793E00E9447
S11310103E1081E0811104C082E893E00E943E10FA
S11310200895E3E7F7E080819181A281B38101967D
S1131030A11DB11D80839183A283B3830895E3E747
S1131040F7E084819581A681B7810196A11DB11D28
S113105084839583A683B7830895E3E7F7E08085C7
S11310609185A285B3850196A11DB11D80879187C5
S1131070A287B3870895E3E7F7E084859585A6857D
S1131080B7850196A11DB11D84879587A687B7876B
S11310900895E3E7F7E080899189A289B3890196ED
S11310A0A11DB11D808B918BA28BB38B0895E3E7B7
S11310B0F7E084899589A689B7890196A11DB11D98
S11310C0848B958BA68BB78B0895E3E7F7E0808D2F
S11310D0918DA28DB38D0196A11DB11D808F918F2D
S11310E0A28FB38F0895CF93DF93C82F8AE893E03C
S11310F00E943E108C2F90E00E94601089E993E0DA
S11311000E943E100E94A8070E94B71084EA93E050
S11311100E943E10609198077091990780919A07F8
S113112090919B070E94B7108CEA93E00E943E10B6
S1131130C3E7D7E0688179818A819B810E94B710D7
S113114086EB93E00E943E106C817D818E819F81AD
S11311500E94B71082EC93E00E943E106885798566
S11311608A859B850E94B7108CEC93E00E943E1008
S11311706C857D858E859F850E94B71087ED93E0F1
S11311800E943E10688979898A899B890E94B710D8
S113119082EE93E00E943E106C897D898E899F893E
S11311A00E94B7108DEE93E00E943E10688D798DF9
S11311B08A8D9B8D0E94B7108AEF93E00E943E10A7
S11311C06091940770919507809196079091970785
S11311D00E94B71087E094E00E943E100E94D50759
S11311E08FE094E00E943E10809193070E944B1080
S11311F088E097E00E943E10DF91CF9108950E940D
S1131200140A0E94650AFDCF2F923F924F925F927B
S11312106F927F928F929F92AF92BF92CF92DF9202
S1131220EF92FF920F931F93CF93DF93CDB7DEB767
S11312306A970FB6F894DEBF0FBECDBF009709F4CE
S1131240B6C06115710509F4B4C01A01788B6F87B3
S11312509E8B8D8B10E000E01E86412C512C3201B8
S11312601A861B861C861D86812C912C5401C12C48
S1131270D12C760145C0CE0101960E94A90C882389
S113128099F189819A81092E000CAA0BBB0BC80E17
S1131290D91EEA1EFB1E8B819C81092E000CAA0B11
S11312A0BB0B880E991EAA1EBB1E8D819E81092E22
S11312B0000CAA0BBB0B2A853B854C855D85280F4A
S11312C0391F4A1F5B1F2A873B874C875D878F81A5
S11312D09885092E000CAA0BBB0B480E591E6A1EDA
S11312E07B1E39853E870F5F2114310411F0F10113
S11312F0099587EA91E60197F1F700C000001F5FA6
S11313001A3008F4B8CFAF85B88951960C930023EE
S113131009F451C0202F30E040E050E0298B3A8B93
S11313204B8B5C8BC301B2010E9404122F8B388F4C
S1131330498F5A8F6A857B858C859D8529893A8951
S11313404B895C890E9404122A873B874C875D87FE
S1131350C501B40129893A894B895C890E94041228
S113136029013A01C701B60129893A894B895C8967
S11313700E940412CA01B90138893F934F854F93E3
S11313808E84AF88B88CC98CDA8CEA84FB840C8593
S11313901D85A30192010E94020D6F8578898D89B4
S11313A09E890E94F2010F900F9081E005C080E0B9
S11313B003C080E001C080E06A960FB6F894DEBFF7
S11313C00FBECDBFDF91CF911F910F91FF90EF9092
S11313D0DF90CF90BF90AF909F908F907F906F9051
S11313E05F904F903F902F9008950E94CF114091AD
S11313F0A20767EA77E088EA97E00E944B068091AB
S1131400A7070E941D0C0E942F0C08950E94FE0D38
S113141082E00E94050C0E94F5098FE493EC019789
S1131420F1F700C00000F7CFCF93DF931F92CDB741
S1131430DEB719820E94FD060E94FB0D0E94220F56
S11314400E9488000E94AB0B0E94B90B78940E9402
S113145095008093A2071092A3071092A4071092FC
S1131460A5071092A60788EA97E00E94420180939C
S1131470A7070E941D0CCE0101960E947A0C8111CF
S113148004C08FE194E00E94060A0E948A0C811134
S113149004C083E394E00E94060A81E00E94050CE4
S11314A029814091A2076091A70788EA97E00E94EA
S11314B00F0E6091A7078091A2070E94530B0E9410
S11314C0C3110F90DF91CF9108950F931F93CF9382
S11314D0DF93CDB7DEB762970FB6F894DEBF0FBEC9
S11314E0CDBF0E94CF110E94F50945EF59E0BE011E
S11314F06F5F7F4F88EA97E00E940409811118C04A
S11315008DE394E00E943E106091A3077091A407BC
S11315108091A5079091A6070E94B71088E097E0F4
S11315200E943E1082E00E94050C0E941F082FC0FA
S113153081E00E94050C0E9411084091A30750917C
S1131540A4076091A5077091A6078E010F5F1F4F36
S11315502091A7078091A2070E94730E8091A30790
S11315609091A407A091A507B091A6070196A11D8B
S1131570B11D8093A3079093A407A093A507B093EC
S1131580A6079BB180E289278BB90E94CF1162968E
S11315900FB6F894DEBF0FBECDBFDF91CF911F9180
S11315A00F910895813029F0823031F486E091E082
S11315B0089580E091E008958CE091E00895CF9340
S11315C0DF93D82FC62F8EE594E00E943E108D2F16
S11315D090E00E9460108DE694E00E943E1086E741
S11315E094E00E943E1083E894E00E943E1081E063
S11315F090E00E9460108BE894E00E943E1087E91E
S113160094E00E943E1089E994E00E943E108EE925
S113161094E00E943E108FEA94E00E943E1085EB15
S113162094E00E943E1081EC94E00E943E108AEC0B
S113163094E00E943E1085ED94E00E943E108AE002
S113164091E00E9460108DED94E00E943E108AE0CB
S113165090E00E94601083EE94E00E943E1081E0CE
S113166090E00E94601080EF94E00E943E108C2F66
S11316700E94D20A0E943E1086EF94E00E943E101F
S113168083E095E00E943E108FE095E00E943E10BA
S11316908CE195E00E943E1088E097E00E943E10A5
S11316A0DF91CF910895CF93DF93D82FC62F85E292
S11316B095E00E943E1086E794E00E943E1085E388
S11316C095E00E943E1081E090E00E9460108BE85B
S11316D094E00E943E1087E994E00E943E108FEA55
S11316E094E00E943E1085EB94E00E943E1081EC51
S11316F094E00E943E108AEC94E00E943E1080E444
S113170095E00E943E108D2F90E00E94601080EFC3
S113171094E00E943E108C2F0E94D20A0E943E1038
S11317208AE495E00E943E1083E095E00E943E101A
S11317308FE095E00E943E108CE195E00E943E10FF
S113174088E097E00E943E10DF91CF9108958BB11D
S11317508F718BB908958AB1806E8AB90E94A70BE4
S11317601092E3071092E2071092E1071092E0074B
S113177008950E94A70B8BB180628BB98FE59AEE16
S11317800197F1F700C000000E94A70B8FE295E7D4
S11317900197F1F700C000008BB180648BB98FE52D
S11317A09AEE0197F1F700C000000E94A70B8FE2A8
S11317B095E70197F1F700C000008BB180688BB901
S11317C08FE59AEE0197F1F700C000000E94A70B85
S11317D08FE295E70197F1F700C000008BB1806EAE
S11317E08BB99FE926E881E0915020408040E1F7E1
S11317F000C000000E94A70B1092E3071092E207BA
S11318001092E1071092E00708959091E30798176A
S113181099F08093E3071092E107811104C08BB122
S11318208F7B8BB90895813021F48BB180648BB99F
S113183008958BB18F7B8BB908959091E207981727
S113184069F08093E2071092E007813021F48BB1B4
S113185080688BB908958BB18F778BB90895809187
S1131860E307813021F48BB180648BB913C08111FB
S113187004C08BB18F7B8BB90DC08091E1078F5F62
S11318808093E107823030F01092E1079BB180E44D
S113189089278BB98091E207811104C08BB18F77BE
S11318A08BB90895813021F48BB180688BB9089588
S11318B08091E0078F5F8093E007853028F01092D5
S11318C0E0078BB180588BB9089590E0982F882752
S11318D0862B0895CF93462F682F85E30E942E0F01
S11318E0C82F811103C00E942D0801C0C1E08C2FB4
S11318F0CF910895CF93AC016DE085E30E94620F10
S1131900C82F811103C00E942D0801C0C1E08C2F93
S1131910CF91089560E080E00E946A0C8823C1F0B2
S113192060E081E00E946A0C882391F064E782E021
S11319300E946A0C882361F063E083E00E946A0CD1
S1131940882331F061E087E00E946A0C811181E014
S11319500895EF92FF921F93CF93DF93CDB7DEB735
S113196029970FB6F894DEBF0FBECDBF7C0140E0CF
S11319706DE885E30E942E0F182F811103C00E9489
S11319802D0833C081EE94E00197F1F700C0000008
S113199029E0AE014F5F5F4F60E185E30E94A50F30
S11319A0182F811103C00E942D081FC06A818981EC
S11319B00E94650CF701918380836C818B810E9466
S11319C0650CF701938382836E818D810E94650C7F
S11319D0F7019583848368858F810E94650CF701E4
S11319E0978386838985808711E0812F29960FB696
S11319F0F894DEBF0FBECDBFDF91CF911F91FF9052
S1131A00EF9008953F924F925F926F927F928F92E0
S1131A109F92AF92BF92CF92DF92EF92FF920F9379
S1131A201F93CF93DF93CDB7DEB729013A01382C4A
S1131A308C889D889B01AC0124563444410951098A
S1131A40A8EEB3E00E94321229E532E040E050E013
S1131A500E940412DA01C9018C53964FAF4FBF4F55
S1131A60F40180839183A283B383A8EEB7E6A30134
S1131A7092010E9432122B013C01992334F4FFEFAE
S1131A804F0EFFE75F1E611C711CD301C201072EBC
S1131A907FE0B595A795979587957A95D1F7702DA1
S1131AA0F40184839583A683B783A8EEB7E6A801DF
S1131AB097010E9432128B019C01992324F4015056
S1131AC010482F4F3F4FD901C801072E7FE0B5952D
S1131AD0A795979587957A95D1F7702DF40180870E
S1131AE09187A287B387A8EEB7E6A60195010E9465
S1131AF032128B019C01992324F4015010482F4F7A
S1131B003F4FD901C801072E7FE0B595A79597955A
S1131B1087957A95D1F7702DF40184879587A687E8
S1131B20B787308ADF91CF911F910F91FF90EF908B
S1131B30DF90CF90BF90AF909F908F907F906F90E9
S1131B405F904F903F900895813029F0823031F4B6
S1131B5086E091E0089580E091E008958CE091E0C2
S1131B6008951F93CF93DF93EC01162F88E595E03A
S1131B700E943E10812F0E94A40D0E943E1085E613
S1131B8095E00E943E108C819D810E9460108FE63A
S1131B9095E00E943E1068A979A98AA99BA90E9490
S1131BA0B71088E097E00E943E1089E795E00E9414
S1131BB03E10688579858A859B850E94181187E87F
S1131BC095E00E943E106C857D858E859F850E94E0
S1131BD0181186E995E00E943E10688979898A89FE
S1131BE09B890E94181188E097E00E943E10DF91C3
S1131BF0CF911F9108950E9429100895CF93DF93E8
S1131C00EC0185EA95E00E943E10CE010E943E1050
S1131C1088E097E00E943E10DF91CF910895FF92F3
S1131C200F931F93CF93DF938C01F62EC42FD22FE3
S1131C308CEA95E00E943E1086E794E00E943E10F4
S1131C408AEC95E00E943E1085EF95E00E943E10DC
S1131C508AE090E00E94601086E096E00E943E10C8
S1131C6084E690E00E9460108BE196E00E943E10B2
S1131C7082ED94E00E943E108BE296E00E943E10BA
S1131C808AE091E00E94601088E097E00E943E1094
S1131C906F2DC8010E94B10D8BE396E00E943E10A7
S1131CA08D2F0E944B108DE496E00E943E108C2FE5
S1131CB090E00E94601087E696E00E943E100E9429
S1131CC0D50786E796E00E943E100E94CC070E944A
S1131CD0B71083E896E00E943E10DF91CF911F91E8
S1131CE00F91FF9008958F929F92AF92BF92EF92BF
S1131CF0FF920F931F93CF93DF93E82E4A015B016A
S1131D00F22EE8018EE996E00E943E1086E794E008
S1131D100E943E1084E993E00E943E108E2D90E0D4
S1131D200E94601088E594E00E943E10C501B40151
S1131D300E94B7108DED94E00E943E10898990E0D6
S1131D400E94601080EF94E00E943E108F2D0E944C
S1131D50A40D0E943E108AEA96E00E943E1068811B
S1131D6079818A819B810E9418118EEA96E00E94F3
S1131D703E106C817D818E819F810E94181183EBBE
S1131D8096E00E943E10688579858A859B850E942D
S1131D90181188EB96E00E943E106C857D858E8537
S1131DA09F850E9418118DEB96E00E943E10888951
S1131DB00E944B1088E097E00E943E10DF91CF9183
S1131DC01F910F91FF90EF90BF90AF909F908F90D5
S1131DD0089584EA8093DC008091DC008823E4F792
S1131DE08091D900887F883021F0803121F481E00E
S1131DF0089581E0089580E0089584E98093DC00EB
S1131E0008958093DB0084E88093DC008091DC00FB
S1131E108823E4F78091D900887F089584EC809327
S1131E20DC008091DC008823E4F78091DB000895D6
S1131E3084E88093DC008091DC008823E4F78091BF
S1131E40DB0008958EB183608EB91092D90082E0D0
S1131E508093D80084E08093DC0008950F931F934F
S1131E60CF93DF93D82F162F042F0E94E90EC82F8B
S1131E70811103C00E94FD0E1FC08D2F880F0E9488
S1131E80010F883121F00E94FD0EC0E015C0812FA2
S1131E900E94010F883221F00E94FD0EC0E00CC0A8
S1131EA0802F0E94010F883221F00E94FD0EC0E0B5
S1131EB003C00E94FD0EC1E08C2FDF91CF911F91D2
S1131EC00F910895EF92FF921F93CF93DF93D82F32
S1131ED0162F7A010E94E90EC82F811103C00E94B7
S1131EE0FD0E2CC0DD0F8D2F0E94010F883121F0D3
S1131EF00E94FD0EC0E022C0812F0E94010F883293
S1131F0021F00E94FD0EC0E019C00E94E90EC82F06
S1131F10811103C00E94FD0E11C08D2F81600E94AB
S1131F20010F803421F00E94FD0EC0E007C00E9422
S1131F30180FF70180830E94FD0EC1E08C2FDF9102
S1131F40CF911F91FF90EF900895EF92FF920F931E
S1131F501F93CF93DF93222309F448C0C22F7A0141
S1131F60062F182F0E94E90ED82F811103C00E945A
S1131F70FD0E3DC0110F812F0E94010F883121F009
S1131F800E94FD0ED0E033C0802F0E94010F8832E2
S1131F9021F00E94FD0ED0E02AC00E94E90ED82F45
S1131FA0811103C00E94FD0E22C0812F81600E9416
S1131FB0010F8034A1F00E94FD0ED0E018C087010B
S1131FC00D0F111D8FEF8C0FD81303C00E94180F33
S1131FD002C00E940E0FF8018083DF5F01C0D0E0D1
S1131FE0DC1768F30E94FD0ED1E001C0D0E08D2F14
S1131FF0DF91CF911F910F91FF90EF9008951F9261
S11320000F920FB60F9211242F938F939F93EF93F8
S1132010FF932091C6008091C7088F5F8F779091BE
S1132020C608891304C081E08093C50808C0E09104
S1132030C708F0E0EB5BF74F20838093C708FF915C
S1132040EF919F918F912F910F900FBE0F901F9042
S113205018951092C5008CE08093C4001092C000C3
S113206088E98093C10086E08093C200089590912E
S1132070C00095FFFCCF8093C6000895CF93DF93F3
S1132080EC0103C021960E94371088818111FACF98
S1132090DF91CF910895CF93C82FE82FE295EF7089
S11320A0F0E0E853F94F80810E943710CF70EC2F95
S11320B0F0E0E853F94F80810E943710CF910895E2
S11320C01F93CF93DF9300D000D01F92CDB7DEB71C
S11320D0AC01892B91F580E30E9437103FC09A012F
S11320E0ADECBCEC0E942312969587959695879546
S11320F0969587959C01220F331F880F991F880F8F
S1132100991F880F991F820F931F9A01281B390B5F
S1132110C901805DE1E0F0E0EC0FFD1FE10FF11D6E
S113212080839A010E942312AC01569547955695D7
S11321304795569547951F5F01C010E0411551051D
S113214071F60AC01150E1E0F0E0EC0FFD1FE10F61
S1132150F11D80810E9437101111F4CF0F900F9060
S11321600F900F900F90DF91CF911F9108951F93BF
S1132170CF93DF93CDB7DEB72A970FB6F894DEBFBF
S11321800FBECDBF6115710581059105C1F480E3D2
S11321900E94371027C02AE030E040E050E00E945F
S11321A0E211605DE1E0F0E0EC0FFD1FE10FF11DD5
S11321B06083622F732F842F952F1F5F01C010E05F
S11321C0611571058105910531F70AC01150E1E0EF
S11321D0F0E0EC0FFD1FE10FF11D80810E9437102C
S11321E01111F4CF2A960FB6F894DEBF0FBECDBFFF
S11321F0DF91CF911F910895CF92DF92EF92FF92DA
S11322006B017C0199235CF48DE20E943710F094F9
S1132210E094D094C094C11CD11CE11CF11CC701F2
S1132220B6010E94B710FF90EF90DF90CF90089511
S1132230CF92DF92EF92FF92CF93DF936B017C01F9
S113224099235CF48DE20E943710F094E094D094CA
S1132250C094C11CD11CE11CF11CC701B60124E6C9
S113226030E040E050E00E940412D62FCA01B901C8
S11322700E94B7108EE20E943710CDECDC9FC12D76
S11322801124C695C695C69580E38C0F0E9437101D
S1132290CC0F8C2F880F880FC80F8D2F8C1B805D5F
S11322A00E943710DF91CF91FF90EF90DF90CF9095
S11322B00895DC015AC0E091C608F0E0EB5BF74FEB
S11322C080819091C6089F5F9F779093C6088D3058
S11322D011F08A3039F5E0914408EE2309F445C041
S11322E0F0E0EC51F84F108290E005C0FD01E20FE0
S11322F0F31F40839F5F292F30E0F9013196462F69
S113230050E0E417F50730F4F901EC51F84F40813F
S11323104111ECCFFD01E20FF31F1082109244082B
S113232081E00895883011F08F3741F4809144089A
S11323308823D9F081508093440817C0E091440861
S11323402E2F30E02F5F3F4F2036310548F491E0C7
S11323509E0F90934408F0E0EC51F84F808305C041
S11323601092440881E08093C5089091C60880913A
S1132370C7089813A0CF80E008958091C5080895F8
S11323801092C508089598E288E10FB6F894A895CC
S1132390809360000FBE90936000A8950895A8955F
S11323A0089589ED96E00E943E10F8949EE088E13D
S11323B00FB6F894A895809360000FBE90936000C8
S11323C07894FFCFA1E21A2EAA1BBB1BFD010DC0FE
S11323D0AA1FBB1FEE1FFF1FA217B307E407F507D1
S11323E020F0A21BB30BE40BF50B661F771F881FAD
S11323F0991F1A9469F760957095809590959B0143
S1132400AC01BD01CF010895052E97FB1EF4009485
S11324100E941B1257FD07D00E94E21107FC03D053
S11324204EF40C941B1250954095309521953F4FD6
S11324304F4F5F4F089590958095709561957F4FAC
S11324408F4F9F4F0895A29FB001B39FC001A39FD8
S1132450700D811D1124911DB29F700D811D1124D9
S1132460911D08950E942312A59F900DB49F900D75
S1132470A49F800D911D11240895DF93CF931F9382
S11324800F939A9DF02D219FF00D8B9DF00D8A9D49
S1132490E02DF10D039FF00D029FE00DF11D4E9D07
S11324A0E00DF11D5E9DF00D4F9DF00D7F936F9338
S11324B0BF92AF925F934F93D5010E9423128B0179
S11324C0AC01D7010E942312EB01E80FF91FD601DA
S11324D00E948D122F913F91D6010E942312C60FA4
S11324E0D71FE81FF91FAF91BF910E948D122F9142
S11324F03F910E942312C60FD71FE81FF91FD60170
S11325000E942312E60FF71F9801BE01CF01112488
S11325100F911F91CF91DF9108950E942312460FCE
S1132520571FC81FD91F08F431960895689401C035
S1132530E894F92FF12B12F00C94CA12A0E0B0E049
S1132540E4EAF2E10C943C13092E059422F40E946F
S11325502613112392F4F0E80F26FFEFE094F09491
S113256000951095B094C094D094A194BF0ACF0A5A
S1132570DF0AEF0AFF0A0F0B1F0B0E94D51207FC9C
S11325800E942613CDB7DEB7ECE00C945813689480
S113259001C0E8948F929F92CF93DF930E94D5124B
S11325A0DF91CF919F908F90089588249924F4010E
S11325B0E401B0E49F93AA279A158B049C04ED05CB
S11325C0FE05CF05D007A10798F4AD2FDC2FCF2F40
S11325D0FE2FE92D982C892E982F872F762F652F83
S11325E0542F432F322F2227B85031F7BF9127C0E1
S11325F01B2EBF91BB27220F331F441F551F661F7D
S1132600771F881F991F881C991CEE1FFF1FCC1F62
S1132610DD1FAA1FBB1F8A149B04EC05FD05CE0514
S1132620DF05A007B10748F08A189B08EC09FD09EB
S1132630CE09DF09A00BB10B21601A94E1F62EF448
S11326409401AF01BE01CD01000C08956095709511
S11326508095909530954095509521953F4F4F4FDB
S11326605F4F6F4F7F4F8F4F9F4F08952F923F9231
S11326704F925F926F927F928F929F92AF92BF928E
S1132680CF92DF92EF92FF920F931F93CF93DF933A
S1132690CDB7DEB7CA1BDB0B0FB6F894DEBF0FBE97
S11326A0CDBF09942A88398848885F846E847D84E4
S11326B08C849B84AA84B984C884DF80EE80FD80E6
S11326C00C811B81AA81B981CE0FD11D0FB6F8945C
S11326D0DEBF0FBECDBFED0108950024A7FD009419
S11326E02A173005400550056005700580059005E2
S11326F00895A0E0B0E0EFE7F3E10C9437135C0138
S11327006B017A016115710519F0FB0191838083D6
S1132710E114F10429F0C7010297839708F0E5C09A
S1132720E5012196F5011081812F90E00E94841526
S1132730892B11F05E01F4CF1D3229F42196F501A5
S1132740118101E007C01B3221F4E5012296F50155
S1132750118100E0E114F10409F1F0E1EF16F10454
S113276029F43FC010E3E114F10421F128E0E2165A
S1132770F10401F154F4E2E0EE16F10421F5812CA8
S1132780912CA12CB0E4BB2E3EC0FAE0EF16F1046C
S113279039F020E1E216F104B1F430C0103319F13C
S11327A0FAE0EF2EF12CACEC8A2E982CA82CACE09D
S11327B0BA2E29C078E0E72EF12C812C912CA12C83
S11327C0E0E1BE2E20C060E070E080E090E8970178
S11327D00F2C000C440B550B0E94E21149015A01C5
S11327E012C0103359F488818F7D883509F0BACF2F
S11327F019812296026080E1E82EF12C812C912C23
S1132800A12C68E0B62E40E060E070E0CB01270127
S11328100F2C000C66087708FE0150ED352E310EA2
S113282029E0231570F42FEB210F2A3118F439EC29
S1132830332E06C02FE9210F2A3118F529EA322E4A
S1132840310E232D30E02E153F05DCF447FD16C074
S113285086169706A806B90670F0A30192010E9495
S11328602C16630D711D811D911D6130710581054B
S113287020E8920710F04FEF01C041E0219610814B
S1132880CBCF202F2170C114D10471F0442329F03F
S11328902197F601D183C08307C001FF19C0229795
S11328A0F601D183C08314C047FF12C0222329F04C
S11328B060E070E080E090E804C06FEF7FEF8FEF9E
S11328C09FE722E230E03093C9082093C80809C08A
S11328D0222381F090958095709561957F4F8F4F5D
S11328E09F4F462F372F282F12C040E030E020E0C2
S11328F090E00DC097FFF5CF82E290E09093C90875
S11329008093C8086FEF7FEF8FEF9FE7EACF642FC4
S1132910732F822FCDB7DEB7E1E10C945313A0E0FF
S1132920B0E0E5E9F4E10C9437135C016B017A0142
S11329306115710519F0FB0191838083E114F104A1
S113294029F0C7010297839708F0C9C0E5012196D1
S1132950F5011081812F90E00E948415892B11F0DC
S11329605E01F4CF1D3229F42196F501118101E0B5
S113297007C01B3221F4E5012296F501118100E024
S1132980E114F104B1F0F0E1EF16F10429F4B0C060
S113299010E3E114F10401F12AE0E216F104B1F1CB
S11329A080E1E816F10471F0E8E0EE16F104F1F4C8
S11329B013C0103341F588818F7D883549F719811B
S11329C022960260F0E1EF2EF12C88248A94982C50
S11329D0A82CAFE0BA2E20C078E0E72EF12C882492
S11329E08A94982CA82CEFE1BE2E16C06FEF7FEFCF
S11329F0CB0197010F2C000C440B550B0E94E211E4
S1132A0049015A0109C08AE0E82EF12C69E9862EB1
S1132A10982CA82C69E1B62E40E060E070E0CB0170
S1132A2027010F2C000C66087708FE0150ED352EA7
S1132A30310E29E0231570F42FEB210F2A3118F4FD
S1132A4039EC332E06C02FE9210F2A3130F529EA5B
S1132A50322E310E232D30E02E153F05F4F44F3F76
S1132A60C9F086169706A806B90688F0A301920154
S1132A700E942C16232D30E040E050E0620F731FBB
S1132A80841F951F621773078407950710F44FEF8F
S1132A9001C041E021961081C8CFC114D10451F086
S1132AA0442311F0219703C001FF04C02297F601CB
S1132AB0D183C08300FF07C0909580957095619580
S1132AC07F4F8F4F9F4F4F3F79F482E290E0909376
S1132AD0C9088093C8083FEF2FEF9FEF0DC040E077
S1132AE030E020E090E008C0462F372F282F04C0A4
S1132AF0103309F067CF5FCF642F732F822FCDB7C8
S1132B00DEB7E1E10C94531391110C94E515803276
S1132B1019F089508550C8F708954CE057E00E9499
S1132B20BE150895FB01DC0104C08D91019080194C
S1132B3021F441505040C8F7881B990B0895DC01DB
S1132B4001C06D9341505040E0F70895FB01DC0152
S1132B508D91019080190110D9F3990B0895FB010F
S1132B60DC014150504048F001900D920020C9F71B
S1132B7001C01D9241505040E0F70895FA01A1911F
S1132B80B081009719F41097E1F0CD01DC01CD017B
S1132B900D90002011F4C00113C0FB0121912223E8
S1132BA019F02015D9F7F3CFFB012191201519F461
S1132BB01E92119606C02223C1F70D900020A1F7A2
S1132BC0D001FA01A193B083089599278827089525
S1132BD0DC01CB01FC01F999FECF06C0F2BDE1BDD9
S1132BE0F89A319600B40D9241505040B8F70895C8
S1132BF0A6E1B0E044E050E00C94EA15DC01A40F37
S1132C00B51F4150504048F0CB01840F951F2E91C1
S1132C100E940F1641505040D0F70895262FF9997D
S1132C20FECF92BD81BDF89A019700B4021639F027
S1132C301FBA20BD0FB6F894FA9AF99A0FBE0895F8
S1132C400396272F0E940F160E940E16252F0E940E
S1132C500F16242F0C940F16DB018F939F930E9461
S1132C603212BF91AF91A29F800D911DA39F900D31
S10F2C70B29F900D11240895F894FFCF3A
S1132C7C56414C4944004449525459004445464138
S1132C8C554C5400244E443238305253502C455237
S1132C9C524F522C524541534F4E3D00244E443218
S1132CAC38305253502C4F4B2C434D443D00244E42
S1132CBC4432383043414C2C53544154453D002C40
S1132CCC434F554E543D002C4F583D002C4F593D0D
S1132CDC002C4F5A3D002C47583D002C47593D00C1
S1132CEC2C475A3D002C4E583D002C4E593D002C7F
S1132CFC4E5A3D002C5443414C3D00200048454C59
S1132D0C5000244E443238305253502C434F4D4DC6
S1132D1C414E44533D48454C507C494E464F7C49AA
S1132D2C44454E544954597C444941477C44494197
S1132D3C472057445420544553547C43414C20520F
S1132D4C4541447C43414C204F46465345542078DE
S1132D5C2079207A7C43414C204741494E207820ED
S1132D6C79207A7C43414C204E4F4953452078209E
S1132D7C79207A7C43414C2054454D5020747C433B
S1132D8C414C20534156457C43414C2052455345BC
S1132D9C540D0A00494E464F004944454E5449547B
S1132DAC5900444941470057445400544553540076
S1132DBC4241445F444941475F5744545F434F4D3C
S1132DCC4D414E4400554E4B4E4F574E5F44494176
S1132DDC475F535542434F4D4D414E440043414C84
S1132DEC00554E4B4E4F574E5F434F4D4D414E4445
S1132DFC004D495353494E475F43414C5F53554231
S1132E0C434F4D4D414E44004241445F4F4646535F
S1132E1C45545F415247554D454E54530043414C24
S1132E2C5F4F4646534554004241445F4741494E27
S1132E3C5F415247554D454E54530043414C5F47F7
S1132E4C41494E004241445F4E4F4953455F415204
S1132E5C47554D454E54530043414C5F4E4F4953D7
S1132E6C45004241445F54454D505F415247554DD6
S1132E7C454E540043414C5F54454D500043414C26
S1132E8C5F5341564500454550524F4D5F56455290
S1132E9C4946595F4641494C45440043414C5F52B5
S1132EAC4553455400554E4B4E4F574E5F43414C82
S1132EBC5F535542434F4D4D414E4400554152547E
S1132ECC5F52585F4F564552464C4F5700504F5720
S1132EDC45525F4F4E0045585445524E414C0042AA
S1132EEC524F574E5F4F5554005741544348444F2B
S1132EFC4700554E4B4E4F574E00244E44323830FB
S1132F0C444941472C49443D002C555054494D45A6
S1132F1C5F533D002C424F4F54533D002C4D4541C3
S1132F2C535F4F4B3D002C4D4541535F4641494C3B
S1132F3C3D002C5457495F4552523D002C5541528B
S1132F4C545F434D443D002C554152545F4F5646FB
S1132F5C3D002C554152545F4455503D002C454581
S1132F6C50524F4D5F4552523D002C5744545F52C2
S1132F7C45534554533D002C52455345543D002C68
S1132F8C52455345545F464C4147533D30780054A9
S1132F9C4D41475F4445564943455F49445F52455B
S1132FAC414400544D41475F494E495400455252E7
S1132FBC4F522C544D41475F4E4F5F56414C494440
S1132FCC5F53414D504C45532C5345513D00244EB9
S1132FDC44323830494E464F2C49443D002C4E4F18
S1132FEC44454F533D00302E352E322D616C7068A4
S1132FFC6132002C50524F544F3D002C424F4152E1
S113300C445F5245563D0041002C48573D00544DF9
S113301C414720446562756720426F617264002CDD
S113302C4D43553D0041546D656761333238504210
S113303C002C53454E534F523D00544D41473532AD
S113304C37334132002C52414E47453D002C4156FA
S113305C473D002C454550524F4D5F5645523D005F
S113306C2C43414C3D002C4255494C445F44415443
S113307C453D004A756C2031352032303236002CF7
S113308C4255494C445F54494D453D0031323A3028
S113309C393A3233004E4F44454F535F56455253E1
S11330AC494F4E3D002C50524F544F434F4C3D0012
S11330BC2C4E4F44455F49443D000D0A4255494C42
S11330CC445F444154453D0043414C4942524154B0
S11330DC494F4E3D002C56455253494F4E3D002C02
S11330EC434F554E5445523D0043414C5F4F464669
S11330FC5345545F583D002C43414C5F4F46465357
S113310C45545F593D002C43414C5F4F4646534553
S113311C545F5A3D004552524F522C000D0A4E44F6
S113312C323830204D61676E657469632046696579
S113313C6C64204E6F64652076000D0A5541525420
S113314C303D343830302C52585F434F4D4D414E46
S113315C44533D4F4E2C545749313D5045302F501C
S113316C45310D0A00415645524147455F53414D87
S113317C504C45533D002C53414D504C455F494EEA
S113318C54455256414C5F4D533D000D0A544D412C
S113319C475F56415249414E543D002C544D4147D2
S11331AC5F52414E47455F4D543D00544D41475F7E
S11331BC4445564943455F49443D3078000D0A5413
S11331CC4D41475F494E49543D4F4B0D0A424F41C7
S11331DC52445F49443D000D0A52455345545F43E4
S11331EC415553453D002C424F4F545F434F554E70
S11331FC543D000D0A545950452048454C50204626
S113320C4F5220434F4D4D414E44530D0A00244E12
S113321C443238302C5645523D002C543D002C423F
S113322C583D002C42593D002C425A3D002C53541D
S113323C415455533D3078003031323334353637C0
S113324C383941424344454600244E4432383052C6
S113325C53502C4F4B2C434D443D444941475F57ED
S113326C44545F544553542C52455345545F494E72
S10F327C5F4D533D313030300D0A00002E
S9030000FC
