S0100000554152542D2D49442E73726563F1
S11300000C945A000C9477000C9477000C947700AD
S11300100C9477000C9477000C9477000C94770080
S11300200C9477000C9477000C9477000C94770070
S11300300C9477000C9477000C9477000C94770060
S11300400C9477000C9477000C9477000C94770050
S11300500C9477000C9477000C9477000C94770040
S11300600C9477000C9477000C9477000C94770030
S11300700C9477000C9477000C9477000C94770020
S11300800C9477000C9477000C9477000C94770010
S11300900C9477000C9477000C9477000C94770000
S11300A00C9477000C9477000C9477000C947700F0
S11300B00C94770011241FBECFEFD8E0DEBFCDBF74
S11300C012E0A0E0B1E0E4E8F3E002C005900D9294
S11300D0A830B107D9F722E0A8E0B2E001C01D9230
S11300E0A930B207E1F70E9479000C94C0010C9486
S11300F00000CF93DF931F92CDB7DEB719820E9421
S113010069010E9412018AB1806E8AB980E091E08F
S11301100E947E0186E291E00E947E0182E091E0ED
S11301200E947E0188E491E00E947E018BE591E0CB
S11301300E947E0187E791E00E947E0180E991E0C0
S11301400E947E01AE014F5F5F4F6DE085E30E9428
S11301501E01882379F085EB91E00E947E0189815C
S11301600E948B0184EC91E00E947E018BB1805847
S11301708BB910C08FEC91E00E947E010E940F01A8
S11301800E948B018CEE91E00E947E019BB180E283
S113019089278BB92FE78AE196E02150804090406F
S11301A0E1F700C00000CACF8091D900887F809316
S11301B00802089584EA8093DC008091DC0088239F
S11301C0E4F70E94D400883021F0803121F481E0EA
S11301D0089581E0089580E0089584E98093DC0027
S11301E008958093DB0084E88093DC008091DC0038
S11301F08823E4F70E94D4000895CF93DF93EC01A1
S113020084E88093DC008091DC008823E4F70E947A
S1130210D4009091DB009883DF91CF910895809171
S1130220080208958EB183608EB91092D90082E0DD
S11302308093D80084E08093DC000895EF92FF92CD
S11302401F93CF93DF93D82F162F7A010E94DA00E1
S1130250C82F811103C00E94ED0034C08D2F880F78
S11302600E94F100883121F00E94ED00C0E02AC014
S1130270812F0E94F100883221F00E94ED00C0E03D
S113028021C00E94DA00C82F811103C00E94ED0032
S113029019C08D2F90E0880F991F81600E94F10092
S11302A0803421F00E94ED00C0E00CC0C7010E9420
S11302B0FD00883521F00E94ED00C0E003C00E94DB
S11302C0ED00C1E08C2FDF91CF911F91FF90EF9053
S11302D008951092C5008CE08093C4001092C00071
S11302E088E08093C10086E08093C20008959091D5
S11302F0C00095FFFCCF8093C6000895CF93DF9391
S1130300EC0103C021960E94770188818111FACF04
S1130310DF91CF9108951F93CF93DF93CDB7DEB7CD
S113032061970FB6F894DEBF0FBECDBF182F81E1E1
S1130330E7EFF1E0DE01119601900D928A95E1F765
S1130340812F82958F70E1E0F0E0EC0FFD1FE80F44
S1130350F11D80810E9477011F70E1E0F0E0EC0F55
S1130360FD1FE10FF11D80810E94770161960FB698
S1130370F894DEBF0FBECDBFDF91CF911F910895DA
S1070380F894FFCF1B
S11303840D0A3D3D3D3D3D3D3D3D3D3D3D3D3D3DF8
S11303943D3D3D3D3D3D3D3D3D3D3D3D3D3D3D3D85
S11303A43D3D3D0D0A004255303035202D20544D3D
S11303B4414735323733204445564943455F494420
S11303C420526561640D0A0055415254303A203478
S11303D438303020626175640D0A00545749312065
S11303E43A205045303D534441312C205045313D51
S11303F453434C310D0A0044657669636520616496
S113040464726573733A20307833350D0A0D0A002B
S113041452656164696E67204445564943455F49A2
S11304244420726567697374657220307830442E91
S11304342E2E0D0A004445564943455F4944203D48
S1130444203078000D0A504153530D0A0D0A00520E
S1130454656164206661696C65642C205457492085
S1130464737461747573203D203078000D0A46411D
S1130474494C0D0A0D0A00303132333435363738DD
S10B048439414243444546009E
S9030000FC
