S01700004763634170706C69636174696F6E312E737265635B
S11300000C945A000C946F000C946F000C946F00C5
S11300100C946F000C946F000C946F000C946F00A0
S11300200C946F000C946F000C946F000C946F0090
S11300300C946F000C946F000C946F000C946F0080
S11300400C946F000C946F000C946F000C946F0070
S11300500C946F000C946F000C946F000C946F0060
S11300600C946F000C946F000C946F000C946F0050
S11300700C946F000C946F000C946F000C946F0040
S11300800C946F000C946F000C946F000C946F0030
S11300900C946F000C946F000C946F000C946F0020
S11300A00C946F000C946F000C946F000C946F0010
S11300B00C946F0011241FBECFEFD8E0DEBFCDBF7C
S11300C011E0A0E0B1E0E6E1F9E002C005900D9294
S11300D0A03FB107D9F70E9401020C9489040C9443
S11300E0000087B1807F87B98AB18B7F8AB988B1D4
S11300F0807F88B98BB18B7F8BB90895309902C00A
S113010080E001C081E03199826032998460339942
S113011088604A99806108950E947E0080958F715D
S1130120089540E060E085E30E942D0342E061E031
S113013085E30E942D0344E762E085E30E942D03DA
S113014043E063E085E30E942D0341E067E085E33B
S11301500E942D030895CF93DF93D82FC4E010C0DD
S11301608D2F90E00C2E02C0959587950A94E2F7A6
S113017080FF02C081E301C080E30E94C103C1503B
S1130180CC2374F7DF91CF910895EF92FF921F93E0
S1130190CF93DF93CDB7DEB728970FB6F894DEBFC1
S11301A00FBECDBF7C01992334F48DE20E94C103BC
S11301B0F194E194F108E114F104A9F480E30E94BC
S11301C0C10324C0C7016AE070E00E940A04E1E0B0
S11301D0F0E0EC0FFD1FE10FF11D805D8083E62E42
S11301E0F72E1F5F01C010E01E141F046CF41830BA
S11301F048F30AC01150E1E0F0E0EC0FFD1FE10FFD
S1130200F11D80810E94C1031111F4CF28960FB60D
S1130210F894DEBF0FBECDBFDF91CF911F91FF9049
S1130220EF900895CF93DF93EC01992334F48DE29A
S11302300E94C103D195C195D109CE0164E670E055
S11302400E940A04D82FCB010E94C5008EE20E94AE
S1130250C103CDECDC9FC12D1124C695C695C6956E
S113026080E38C0F0E94C103CC0F8C2F880F880F62
S1130270C80F8D2F8C1B805D0E94C103DF91CF912D
S113028008952F923F924F925F926F927F928F9236
S11302909F92AF92BF92CF92DF92EF92FF920F9311
S11302A01F93CF93DF93CDB7DEB729970FB6F8949A
S11302B0DEBF0FBECDBF4C015B016A01790129E0AD
S11302C0AE014F5F5F4F60E185E30E945A038823CC
S11302D009F47EC0A981B0E0BA2FAA278A81A82B8D
S11302E06B80712C762C66248C81682A4D80512C6D
S11302F0542C44248E81482A2F80312C322C2224E1
S11303008885282A8985F8018083A456B44424E684
S113031030E00E943D0429E532E040E050E00E94D4
S11303201E042C53364FF4013183208320EA3FE02E
S1130330D3010E943D048B019C01992324F40150B4
S113034010482F4F3F4FD901C801072E7FE0B595C4
S1130350A795979587957A95D1F7702DF501918397
S1130360808320EA3FE0D2010E943D048B019C017E
S1130370992324F4015010482F4F3F4FD901C8014D
S1130380072E7FE0B595A795979587957A95D1F730
S1130390702DF6019183808320EA3FE0D1010E9411
S11303A03D048B019C01992324F4015010482F4FE4
S11303B03F4FD901C801072E7FE0B595A7959795C2
S11303C087957A95D1F7702DF7019183808381E029
S11303D029960FB6F894DEBF0FBECDBFDF91CF9143
S11303E01F910F91FF90EF90DF90CF90BF90AF904F
S11303F09F908F907F906F905F904F903F902F9041
S11304000895CF93DF93CDB7DEB72A970FB6F8944C
S1130410DEBF0FBECDBF0E94B3030E94B0020E9494
S1130420710087EA91E60197F1F700C0000080E0CF
S113043091E00E94C80381E291E00E94C80385E52F
S113044091E00E94C8031982AE014F5F5F4F6DE0D7
S113045085E30E94F202882361F088E691E00E941D
S1130460C80389810E94D50382E591E00E94C803F4
S113047004C087E791E00E94C8030E9491000E9493
S11304807E00082F0E948C00182F8FE891E00E94B4
S1130490C803802F0E94AB008AE991E00E94C80340
S11304A0812F90E00E94C5008E01065F1F4F9E01C0
S11304B02E5F3F4FAE014C5F5F4FBE016A5F7F4FBF
S11304C0CE0108960E9441018823E1F185EA91E07A
S11304D00E94C803888599850E9412018CEA91E0E4
S11304E00E94C8038FEA91E00E94C8038E819F8115
S11304F00E94120184EB91E00E94C80388EB91E012
S11305000E94C8038C819D810E94120184EB91E0BA
S11305100E94C8038DEB91E00E94C8038A819B81ED
S11305200E94120184EB91E00E94C80382EC91E0E6
S11305300E94C8038A850E94D50382E591E00E9447
S1130540C80304C08DEC91E00E94C8039FE32DE032
S113055083E0915020408040E1F700C000008FCF3D
S11305601092D90082E08093D80084E08093DC006C
S1130570089584EA8093DC008091DC008823E4F70A
S11305808091D900887F883021F0803121F481E086
S1130590089581E0089580E0089584E98093DC0063
S11305A008958093DB0084E88093DC008091DC0074
S11305B08823E4F78091D900887F089584EC8093A0
S11305C0DC008091DC008823E4F78091DB0008954F
S11305D084E88093DC008091DC008823E4F7809138
S11305E0DB0008950F931F93CF93DF93C82FD62F6B
S11305F08A010E94B902882359F18C2F880F0E9426
S1130600D102883121F00E94CD0280E021C08D2FDB
S11306100E94D102883221F00E94CD0280E018C0ED
S11306200E94B9028823A1F08C2F90E0880F991FB3
S113063081600E94D102803421F00E94CD0280E0CA
S113064007C00E94E802F80180830E94CD0281E085
S1130650DF91CF911F910F9108951F93CF93DF9353
S1130660C82FD62F142F0E94B9028823F9F08C2F9B
S1130670880F0E94D102883121F00E94CD0280E0CF
S113068015C08D2F0E94D102883221F00E94CD0224
S113069080E00CC0812F0E94D102883221F00E9498
S11306A0CD0280E003C00E94CD0281E0DF91CF91B2
S11306B01F910895EF92FF920F931F93CF93DF93AF
S11306C0222309F448C0C22F8A01F62ED82F0E9493
S11306D0B902882309F440C08D2F880F0E94D102EB
S11306E0883121F00E94CD0280E036C08F2D0E9417
S11306F0D102883221F00E94CD0280E02DC00E94F8
S1130700B902882349F18D2F90E0880F991F8160E9
S11307100E94D1028034C1F00E94CD0280E01CC04E
S11307202D2F30E07801E20EF31E8C2F90E001971C
S11307302817390719F40E94E80202C00E94DE0259
S1130740F7018083DF5F01C0D0E0DC1748F30E942B
S1130750CD0281E001C080E0DF91CF911F910F9124
S1130760FF90EF9008951092C5008CE08093C40030
S11307701092C00088E08093C10086E08093C2009C
S113078008959091C00095FFFCCF8093C600089512
S1130790CF93DF93EC0103C021960E94C1038881AB
S11307A08111FACFDF91CF9108951F93CF93DF93F7
S11307B0CDB7DEB761970FB6F894DEBF0FBECDBFDD
S11307C0182F81E1EFEDF1E0DE01119601900D9219
S11307D08A95E1F7812F82958F70E1E0F0E0EC0FCC
S11307E0FD1FE80FF11D80810E94C1031F70E1E02D
S11307F0F0E0EC0FFD1FE10FF11D80810E94C103A9
S113080061960FB6F894DEBF0FBECDBFDF91CF91D6
S11308101F91089597FB072E16F4009407D077FDD7
S113082009D00E94440407FC05D03EF490958195BC
S11308309F4F0895709561957F4F0895052E97FBFE
S11308401EF400940E94350457FD07D00E945804FA
S113085007FC03D04EF40C94350450954095309524
S113086021953F4F4F4F5F4F089590958095709518
S113087061957F4F8F4F9F4F08950E947A04B7FF71
S11308800895821B930B0895AA1BBB1B51E107C05B
S1130890AA1FBB1FA617B70710F0A61BB70B881F0C
S11308A0991F5A95A9F780959095BC01CD0108959B
S11308B0A1E21A2EAA1BBB1BFD010DC0AA1FBB1F60
S11308C0EE1FFF1FA217B307E407F50720F0A21BD2
S11308D0B30BE40BF50B661F771F881F991F1A943F
S11308E069F760957095809590959B01AC01BD0169
S11308F0CF010895A29FB001B39FC001A39F700DC3
S1130900811D1124911DB29F700D811D1124911D13
S10909100895F894FFCFE6
S11309160D0A4255303038202D20426F6172642012
S11309264944202B20544D414720446174610D0AEB
S1130936004449503A20626974303D504330206285
S11309466974313D50433120626974323D504332FB
S113095620626974333D50433320626974343D50D8
S113096644320D0A0055415254303A20343830305E
S113097620626175640D0A004445564943455F4942
S113098644203D203078004445564943455F494458
S11309962072656164206661696C65640D0A0052A3
S11309A641575F4449503D30620020424F41524412
S11309B65F49443D002054454D503D0020430020EE
S11309C642583D00206D54002042593D0020425AB1
S11309D63D00205354415455533D30780020544D26
S11309E641475F524541445F4641494C0D0A003038
S11309F6313233343536373839414243444546007B
S9030000FC
